{
	"task1/task1.sol": {
		"Voting": {
			"abi": [
				{
					"inputs": [],
					"name": "getVersion",
					"outputs": [
						{
							"internalType": "uint256",
							"name": "",
							"type": "uint256"
						}
					],
					"stateMutability": "view",
					"type": "function"
				},
				{
					"inputs": [
						{
							"internalType": "address",
							"name": "addr",
							"type": "address"
						}
					],
					"name": "getVotes",
					"outputs": [
						{
							"internalType": "uint256",
							"name": "",
							"type": "uint256"
						}
					],
					"stateMutability": "view",
					"type": "function"
				},
				{
					"inputs": [],
					"name": "resetVotes",
					"outputs": [],
					"stateMutability": "nonpayable",
					"type": "function"
				},
				{
					"inputs": [
						{
							"internalType": "string",
							"name": "str",
							"type": "string"
						}
					],
					"name": "reverseString",
					"outputs": [
						{
							"internalType": "string",
							"name": "",
							"type": "string"
						}
					],
					"stateMutability": "pure",
					"type": "function"
				},
				{
					"inputs": [
						{
							"internalType": "address",
							"name": "addr",
							"type": "address"
						}
					],
					"name": "vote",
					"outputs": [],
					"stateMutability": "nonpayable",
					"type": "function"
				}
			],
			"devdoc": {
				"kind": "dev",
				"methods": {},
				"version": 1
			},
			"evm": {
				"assembly": "    /* \"task1/task1.sol\":57:1212  contract Voting {... */\n  mstore(0x40, 0x80)\n    /* \"task1/task1.sol\":150:151  1 */\n  0x01\n    /* \"task1/task1.sol\":132:151  uint256 version = 1 */\n  0x00\n  sstore\n    /* \"task1/task1.sol\":57:1212  contract Voting {... */\n  callvalue\n  dup1\n  iszero\n  tag_1\n  jumpi\n  0x00\n  dup1\n  revert\ntag_1:\n  pop\n  dataSize(sub_0)\n  dup1\n  dataOffset(sub_0)\n  0x00\n  codecopy\n  0x00\n  return\nstop\n\nsub_0: assembly {\n        /* \"task1/task1.sol\":57:1212  contract Voting {... */\n      mstore(0x40, 0x80)\n      callvalue\n      dup1\n      iszero\n      tag_1\n      jumpi\n      0x00\n      dup1\n      revert\n    tag_1:\n      pop\n      jumpi(tag_2, lt(calldatasize, 0x04))\n      shr(0xe0, calldataload(0x00))\n      dup1\n      0x0d8e6e2c\n      eq\n      tag_3\n      jumpi\n      dup1\n      0x5729c211\n      eq\n      tag_4\n      jumpi\n      dup1\n      0x6dd7d8ea\n      eq\n      tag_5\n      jumpi\n      dup1\n      0x9ab24eb0\n      eq\n      tag_6\n      jumpi\n      dup1\n      0xb9830ff1\n      eq\n      tag_7\n      jumpi\n    tag_2:\n      0x00\n      dup1\n      revert\n        /* \"task1/task1.sol\":787:869  function getVersion() public view returns(uint256) {... */\n    tag_3:\n      tag_8\n      tag_9\n      jump\t// in\n    tag_8:\n      mload(0x40)\n      tag_10\n      swap2\n      swap1\n      tag_11\n      jump\t// in\n    tag_10:\n      mload(0x40)\n      dup1\n      swap2\n      sub\n      swap1\n      return\n        /* \"task1/task1.sol\":898:1209  function reverseString(string memory str) public pure returns(string memory) {... */\n    tag_4:\n      tag_12\n      0x04\n      dup1\n      calldatasize\n      sub\n      dup2\n      add\n      swap1\n      tag_13\n      swap2\n      swap1\n      tag_14\n      jump\t// in\n    tag_13:\n      tag_15\n      jump\t// in\n    tag_12:\n      mload(0x40)\n      tag_16\n      swap2\n      swap1\n      tag_17\n      jump\t// in\n    tag_16:\n      mload(0x40)\n      dup1\n      swap2\n      sub\n      swap1\n      return\n        /* \"task1/task1.sol\":325:412  function vote(address addr) public {... */\n    tag_5:\n      tag_18\n      0x04\n      dup1\n      calldatasize\n      sub\n      dup2\n      add\n      swap1\n      tag_19\n      swap2\n      swap1\n      tag_20\n      jump\t// in\n    tag_19:\n      tag_21\n      jump\t// in\n    tag_18:\n      stop\n        /* \"task1/task1.sol\":482:598  function getVotes(address addr) public view returns(uint256) {... */\n    tag_6:\n      tag_22\n      0x04\n      dup1\n      calldatasize\n      sub\n      dup2\n      add\n      swap1\n      tag_23\n      swap2\n      swap1\n      tag_20\n      jump\t// in\n    tag_23:\n      tag_24\n      jump\t// in\n    tag_22:\n      mload(0x40)\n      tag_25\n      swap2\n      swap1\n      tag_11\n      jump\t// in\n    tag_25:\n      mload(0x40)\n      dup1\n      swap2\n      sub\n      swap1\n      return\n        /* \"task1/task1.sol\":670:725  function resetVotes() public {... */\n    tag_7:\n      tag_26\n      tag_27\n      jump\t// in\n    tag_26:\n      stop\n        /* \"task1/task1.sol\":787:869  function getVersion() public view returns(uint256) {... */\n    tag_9:\n        /* \"task1/task1.sol\":829:836  uint256 */\n      0x00\n        /* \"task1/task1.sol\":855:862  version */\n      dup1\n      sload\n        /* \"task1/task1.sol\":848:862  return version */\n      swap1\n      pop\n        /* \"task1/task1.sol\":787:869  function getVersion() public view returns(uint256) {... */\n      swap1\n      jump\t// out\n        /* \"task1/task1.sol\":898:1209  function reverseString(string memory str) public pure returns(string memory) {... */\n    tag_15:\n        /* \"task1/task1.sol\":960:973  string memory */\n      0x60\n        /* \"task1/task1.sol\":985:1002  bytes memory bStr */\n      0x00\n        /* \"task1/task1.sol\":1011:1014  str */\n      dup3\n        /* \"task1/task1.sol\":985:1015  bytes memory bStr = bytes(str) */\n      swap1\n      pop\n        /* \"task1/task1.sol\":1030:1036  uint i */\n      0x00\n        /* \"task1/task1.sol\":1025:1174  for (uint i = 0; i < bStr.length / 2; i++) {... */\n    tag_30:\n        /* \"task1/task1.sol\":1060:1061  2 */\n      0x02\n        /* \"task1/task1.sol\":1046:1050  bStr */\n      dup3\n        /* \"task1/task1.sol\":1046:1057  bStr.length */\n      mload\n        /* \"task1/task1.sol\":1046:1061  bStr.length / 2 */\n      tag_33\n      swap2\n      swap1\n      tag_34\n      jump\t// in\n    tag_33:\n        /* \"task1/task1.sol\":1042:1043  i */\n      dup2\n        /* \"task1/task1.sol\":1042:1061  i < bStr.length / 2 */\n      lt\n        /* \"task1/task1.sol\":1025:1174  for (uint i = 0; i < bStr.length / 2; i++) {... */\n      iszero\n      tag_31\n      jumpi\n        /* \"task1/task1.sol\":1082:1088  uint j */\n      0x00\n        /* \"task1/task1.sol\":1109:1110  i */\n      dup2\n        /* \"task1/task1.sol\":1105:1106  1 */\n      0x01\n        /* \"task1/task1.sol\":1091:1095  bStr */\n      dup5\n        /* \"task1/task1.sol\":1091:1102  bStr.length */\n      mload\n        /* \"task1/task1.sol\":1091:1106  bStr.length - 1 */\n      tag_35\n      swap2\n      swap1\n      tag_36\n      jump\t// in\n    tag_35:\n        /* \"task1/task1.sol\":1091:1110  bStr.length - 1 - i */\n      tag_37\n      swap2\n      swap1\n      tag_36\n      jump\t// in\n    tag_37:\n        /* \"task1/task1.sol\":1082:1110  uint j = bStr.length - 1 - i */\n      swap1\n      pop\n        /* \"task1/task1.sol\":1146:1150  bStr */\n      dup3\n        /* \"task1/task1.sol\":1151:1152  j */\n      dup2\n        /* \"task1/task1.sol\":1146:1153  bStr[j] */\n      dup2\n      mload\n      dup2\n      lt\n      tag_38\n      jumpi\n      tag_39\n      tag_40\n      jump\t// in\n    tag_39:\n    tag_38:\n      0x20\n      add\n      add\n      mload\n      0xf8\n      shr\n      0xf8\n      shl\n        /* \"task1/task1.sol\":1155:1159  bStr */\n      dup4\n        /* \"task1/task1.sol\":1160:1161  i */\n      dup4\n        /* \"task1/task1.sol\":1155:1162  bStr[i] */\n      dup2\n      mload\n      dup2\n      lt\n      tag_41\n      jumpi\n      tag_42\n      tag_40\n      jump\t// in\n    tag_42:\n    tag_41:\n      0x20\n      add\n      add\n      mload\n      0xf8\n      shr\n      0xf8\n      shl\n        /* \"task1/task1.sol\":1125:1129  bStr */\n      dup5\n        /* \"task1/task1.sol\":1130:1131  i */\n      dup5\n        /* \"task1/task1.sol\":1125:1132  bStr[i] */\n      dup2\n      mload\n      dup2\n      lt\n      tag_43\n      jumpi\n      tag_44\n      tag_40\n      jump\t// in\n    tag_44:\n    tag_43:\n      0x20\n      add\n      add\n        /* \"task1/task1.sol\":1134:1138  bStr */\n      dup6\n        /* \"task1/task1.sol\":1139:1140  j */\n      dup5\n        /* \"task1/task1.sol\":1134:1141  bStr[j] */\n      dup2\n      mload\n      dup2\n      lt\n      tag_45\n      jumpi\n      tag_46\n      tag_40\n      jump\t// in\n    tag_46:\n    tag_45:\n      0x20\n      add\n      add\n        /* \"task1/task1.sol\":1124:1163  (bStr[i], bStr[j]) = (bStr[j], bStr[i]) */\n      dup3\n      not(0xffffffffffffffffffffffffffffffffffffffffffffffffffffffffffffff)\n      and\n      0x00\n      byte\n      swap1\n      mstore8\n      dup3\n      not(0xffffffffffffffffffffffffffffffffffffffffffffffffffffffffffffff)\n      and\n      0x00\n      byte\n      swap1\n      mstore8\n      pop\n      pop\n        /* \"task1/task1.sol\":1068:1174  {... */\n      pop\n        /* \"task1/task1.sol\":1063:1066  i++ */\n      dup1\n      dup1\n      0x01\n      add\n      swap2\n      pop\n      pop\n        /* \"task1/task1.sol\":1025:1174  for (uint i = 0; i < bStr.length / 2; i++) {... */\n      jump(tag_30)\n    tag_31:\n      pop\n        /* \"task1/task1.sol\":1197:1201  bStr */\n      dup1\n        /* \"task1/task1.sol\":1183:1202  return string(bStr) */\n      swap2\n      pop\n      pop\n        /* \"task1/task1.sol\":898:1209  function reverseString(string memory str) public pure returns(string memory) {... */\n      swap2\n      swap1\n      pop\n      jump\t// out\n        /* \"task1/task1.sol\":325:412  function vote(address addr) public {... */\n    tag_21:\n        /* \"task1/task1.sol\":370:386  candidateToVotes */\n      0x01\n        /* \"task1/task1.sol\":370:395  candidateToVotes[version] */\n      0x00\n        /* \"task1/task1.sol\":387:394  version */\n      dup1\n      sload\n        /* \"task1/task1.sol\":370:395  candidateToVotes[version] */\n      dup2\n      mstore\n      0x20\n      add\n      swap1\n      dup2\n      mstore\n      0x20\n      add\n      0x00\n      keccak256\n        /* \"task1/task1.sol\":370:401  candidateToVotes[version][addr] */\n      0x00\n        /* \"task1/task1.sol\":396:400  addr */\n      dup3\n        /* \"task1/task1.sol\":370:401  candidateToVotes[version][addr] */\n      0xffffffffffffffffffffffffffffffffffffffff\n      and\n      0xffffffffffffffffffffffffffffffffffffffff\n      and\n      dup2\n      mstore\n      0x20\n      add\n      swap1\n      dup2\n      mstore\n      0x20\n      add\n      0x00\n      keccak256\n      0x00\n        /* \"task1/task1.sol\":370:403  candidateToVotes[version][addr]++ */\n      dup2\n      sload\n      dup1\n      swap3\n      swap2\n      swap1\n      tag_48\n      swap1\n      tag_49\n      jump\t// in\n    tag_48:\n      swap2\n      swap1\n      pop\n      sstore\n      pop\n        /* \"task1/task1.sol\":325:412  function vote(address addr) public {... */\n      pop\n      jump\t// out\n        /* \"task1/task1.sol\":482:598  function getVotes(address addr) public view returns(uint256) {... */\n    tag_24:\n        /* \"task1/task1.sol\":534:541  uint256 */\n      0x00\n        /* \"task1/task1.sol\":560:576  candidateToVotes */\n      0x01\n        /* \"task1/task1.sol\":560:585  candidateToVotes[version] */\n      0x00\n        /* \"task1/task1.sol\":577:584  version */\n      dup1\n      sload\n        /* \"task1/task1.sol\":560:585  candidateToVotes[version] */\n      dup2\n      mstore\n      0x20\n      add\n      swap1\n      dup2\n      mstore\n      0x20\n      add\n      0x00\n      keccak256\n        /* \"task1/task1.sol\":560:591  candidateToVotes[version][addr] */\n      0x00\n        /* \"task1/task1.sol\":586:590  addr */\n      dup4\n        /* \"task1/task1.sol\":560:591  candidateToVotes[version][addr] */\n      0xffffffffffffffffffffffffffffffffffffffff\n      and\n      0xffffffffffffffffffffffffffffffffffffffff\n      and\n      dup2\n      mstore\n      0x20\n      add\n      swap1\n      dup2\n      mstore\n      0x20\n      add\n      0x00\n      keccak256\n      sload\n        /* \"task1/task1.sol\":553:591  return candidateToVotes[version][addr] */\n      swap1\n      pop\n        /* \"task1/task1.sol\":482:598  function getVotes(address addr) public view returns(uint256) {... */\n      swap2\n      swap1\n      pop\n      jump\t// out\n        /* \"task1/task1.sol\":670:725  function resetVotes() public {... */\n    tag_27:\n        /* \"task1/task1.sol\":709:716  version */\n      0x00\n      dup1\n        /* \"task1/task1.sol\":709:718  version++ */\n      dup2\n      sload\n      dup1\n      swap3\n      swap2\n      swap1\n      tag_52\n      swap1\n      tag_49\n      jump\t// in\n    tag_52:\n      swap2\n      swap1\n      pop\n      sstore\n      pop\n        /* \"task1/task1.sol\":670:725  function resetVotes() public {... */\n      jump\t// out\n        /* \"#utility.yul\":7:84   */\n    tag_53:\n        /* \"#utility.yul\":44:51   */\n      0x00\n        /* \"#utility.yul\":73:78   */\n      dup2\n        /* \"#utility.yul\":62:78   */\n      swap1\n      pop\n        /* \"#utility.yul\":7:84   */\n      swap2\n      swap1\n      pop\n      jump\t// out\n        /* \"#utility.yul\":90:208   */\n    tag_54:\n        /* \"#utility.yul\":177:201   */\n      tag_81\n        /* \"#utility.yul\":195:200   */\n      dup2\n        /* \"#utility.yul\":177:201   */\n      tag_53\n      jump\t// in\n    tag_81:\n        /* \"#utility.yul\":172:175   */\n      dup3\n        /* \"#utility.yul\":165:202   */\n      mstore\n        /* \"#utility.yul\":90:208   */\n      pop\n      pop\n      jump\t// out\n        /* \"#utility.yul\":214:436   */\n    tag_11:\n        /* \"#utility.yul\":307:311   */\n      0x00\n        /* \"#utility.yul\":345:347   */\n      0x20\n        /* \"#utility.yul\":334:343   */\n      dup3\n        /* \"#utility.yul\":330:348   */\n      add\n        /* \"#utility.yul\":322:348   */\n      swap1\n      pop\n        /* \"#utility.yul\":358:429   */\n      tag_83\n        /* \"#utility.yul\":426:427   */\n      0x00\n        /* \"#utility.yul\":415:424   */\n      dup4\n        /* \"#utility.yul\":411:428   */\n      add\n        /* \"#utility.yul\":402:408   */\n      dup5\n        /* \"#utility.yul\":358:429   */\n      tag_54\n      jump\t// in\n    tag_83:\n        /* \"#utility.yul\":214:436   */\n      swap3\n      swap2\n      pop\n      pop\n      jump\t// out\n        /* \"#utility.yul\":442:517   */\n    tag_55:\n        /* \"#utility.yul\":475:481   */\n      0x00\n        /* \"#utility.yul\":508:510   */\n      0x40\n        /* \"#utility.yul\":502:511   */\n      mload\n        /* \"#utility.yul\":492:511   */\n      swap1\n      pop\n        /* \"#utility.yul\":442:517   */\n      swap1\n      jump\t// out\n        /* \"#utility.yul\":523:640   */\n    tag_56:\n        /* \"#utility.yul\":632:633   */\n      0x00\n        /* \"#utility.yul\":629:630   */\n      dup1\n        /* \"#utility.yul\":622:634   */\n      revert\n        /* \"#utility.yul\":646:763   */\n    tag_57:\n        /* \"#utility.yul\":755:756   */\n      0x00\n        /* \"#utility.yul\":752:753   */\n      dup1\n        /* \"#utility.yul\":745:757   */\n      revert\n        /* \"#utility.yul\":769:886   */\n    tag_58:\n        /* \"#utility.yul\":878:879   */\n      0x00\n        /* \"#utility.yul\":875:876   */\n      dup1\n        /* \"#utility.yul\":868:880   */\n      revert\n        /* \"#utility.yul\":892:1009   */\n    tag_59:\n        /* \"#utility.yul\":1001:1002   */\n      0x00\n        /* \"#utility.yul\":998:999   */\n      dup1\n        /* \"#utility.yul\":991:1003   */\n      revert\n        /* \"#utility.yul\":1015:1117   */\n    tag_60:\n        /* \"#utility.yul\":1056:1062   */\n      0x00\n        /* \"#utility.yul\":1107:1109   */\n      0x1f\n        /* \"#utility.yul\":1103:1110   */\n      not\n        /* \"#utility.yul\":1098:1100   */\n      0x1f\n        /* \"#utility.yul\":1091:1096   */\n      dup4\n        /* \"#utility.yul\":1087:1101   */\n      add\n        /* \"#utility.yul\":1083:1111   */\n      and\n        /* \"#utility.yul\":1073:1111   */\n      swap1\n      pop\n        /* \"#utility.yul\":1015:1117   */\n      swap2\n      swap1\n      pop\n      jump\t// out\n        /* \"#utility.yul\":1123:1303   */\n    tag_61:\n        /* \"#utility.yul\":1171:1248   */\n      0x4e487b7100000000000000000000000000000000000000000000000000000000\n        /* \"#utility.yul\":1168:1169   */\n      0x00\n        /* \"#utility.yul\":1161:1249   */\n      mstore\n        /* \"#utility.yul\":1268:1272   */\n      0x41\n        /* \"#utility.yul\":1265:1266   */\n      0x04\n        /* \"#utility.yul\":1258:1273   */\n      mstore\n        /* \"#utility.yul\":1292:1296   */\n      0x24\n        /* \"#utility.yul\":1289:1290   */\n      0x00\n        /* \"#utility.yul\":1282:1297   */\n      revert\n        /* \"#utility.yul\":1309:1590   */\n    tag_62:\n        /* \"#utility.yul\":1392:1419   */\n      tag_92\n        /* \"#utility.yul\":1414:1418   */\n      dup3\n        /* \"#utility.yul\":1392:1419   */\n      tag_60\n      jump\t// in\n    tag_92:\n        /* \"#utility.yul\":1384:1390   */\n      dup2\n        /* \"#utility.yul\":1380:1420   */\n      add\n        /* \"#utility.yul\":1522:1528   */\n      dup2\n        /* \"#utility.yul\":1510:1520   */\n      dup2\n        /* \"#utility.yul\":1507:1529   */\n      lt\n        /* \"#utility.yul\":1486:1504   */\n      0xffffffffffffffff\n        /* \"#utility.yul\":1474:1484   */\n      dup3\n        /* \"#utility.yul\":1471:1505   */\n      gt\n        /* \"#utility.yul\":1468:1530   */\n      or\n        /* \"#utility.yul\":1465:1553   */\n      iszero\n      tag_93\n      jumpi\n        /* \"#utility.yul\":1533:1551   */\n      tag_94\n      tag_61\n      jump\t// in\n    tag_94:\n        /* \"#utility.yul\":1465:1553   */\n    tag_93:\n        /* \"#utility.yul\":1573:1583   */\n      dup1\n        /* \"#utility.yul\":1569:1571   */\n      0x40\n        /* \"#utility.yul\":1562:1584   */\n      mstore\n        /* \"#utility.yul\":1352:1590   */\n      pop\n        /* \"#utility.yul\":1309:1590   */\n      pop\n      pop\n      jump\t// out\n        /* \"#utility.yul\":1596:1725   */\n    tag_63:\n        /* \"#utility.yul\":1630:1636   */\n      0x00\n        /* \"#utility.yul\":1657:1677   */\n      tag_96\n      tag_55\n      jump\t// in\n    tag_96:\n        /* \"#utility.yul\":1647:1677   */\n      swap1\n      pop\n        /* \"#utility.yul\":1686:1719   */\n      tag_97\n        /* \"#utility.yul\":1714:1718   */\n      dup3\n        /* \"#utility.yul\":1706:1712   */\n      dup3\n        /* \"#utility.yul\":1686:1719   */\n      tag_62\n      jump\t// in\n    tag_97:\n        /* \"#utility.yul\":1596:1725   */\n      swap2\n      swap1\n      pop\n      jump\t// out\n        /* \"#utility.yul\":1731:2039   */\n    tag_64:\n        /* \"#utility.yul\":1793:1797   */\n      0x00\n        /* \"#utility.yul\":1883:1901   */\n      0xffffffffffffffff\n        /* \"#utility.yul\":1875:1881   */\n      dup3\n        /* \"#utility.yul\":1872:1902   */\n      gt\n        /* \"#utility.yul\":1869:1925   */\n      iszero\n      tag_99\n      jumpi\n        /* \"#utility.yul\":1905:1923   */\n      tag_100\n      tag_61\n      jump\t// in\n    tag_100:\n        /* \"#utility.yul\":1869:1925   */\n    tag_99:\n        /* \"#utility.yul\":1943:1972   */\n      tag_101\n        /* \"#utility.yul\":1965:1971   */\n      dup3\n        /* \"#utility.yul\":1943:1972   */\n      tag_60\n      jump\t// in\n    tag_101:\n        /* \"#utility.yul\":1935:1972   */\n      swap1\n      pop\n        /* \"#utility.yul\":2027:2031   */\n      0x20\n        /* \"#utility.yul\":2021:2025   */\n      dup2\n        /* \"#utility.yul\":2017:2032   */\n      add\n        /* \"#utility.yul\":2009:2032   */\n      swap1\n      pop\n        /* \"#utility.yul\":1731:2039   */\n      swap2\n      swap1\n      pop\n      jump\t// out\n        /* \"#utility.yul\":2045:2193   */\n    tag_65:\n        /* \"#utility.yul\":2143:2149   */\n      dup3\n        /* \"#utility.yul\":2138:2141   */\n      dup2\n        /* \"#utility.yul\":2133:2136   */\n      dup4\n        /* \"#utility.yul\":2120:2150   */\n      calldatacopy\n        /* \"#utility.yul\":2184:2185   */\n      0x00\n        /* \"#utility.yul\":2175:2181   */\n      dup4\n        /* \"#utility.yul\":2170:2173   */\n      dup4\n        /* \"#utility.yul\":2166:2182   */\n      add\n        /* \"#utility.yul\":2159:2186   */\n      mstore\n        /* \"#utility.yul\":2045:2193   */\n      pop\n      pop\n      pop\n      jump\t// out\n        /* \"#utility.yul\":2199:2624   */\n    tag_66:\n        /* \"#utility.yul\":2277:2282   */\n      0x00\n        /* \"#utility.yul\":2302:2368   */\n      tag_104\n        /* \"#utility.yul\":2318:2367   */\n      tag_105\n        /* \"#utility.yul\":2360:2366   */\n      dup5\n        /* \"#utility.yul\":2318:2367   */\n      tag_64\n      jump\t// in\n    tag_105:\n        /* \"#utility.yul\":2302:2368   */\n      tag_63\n      jump\t// in\n    tag_104:\n        /* \"#utility.yul\":2293:2368   */\n      swap1\n      pop\n        /* \"#utility.yul\":2391:2397   */\n      dup3\n        /* \"#utility.yul\":2384:2389   */\n      dup2\n        /* \"#utility.yul\":2377:2398   */\n      mstore\n        /* \"#utility.yul\":2429:2433   */\n      0x20\n        /* \"#utility.yul\":2422:2427   */\n      dup2\n        /* \"#utility.yul\":2418:2434   */\n      add\n        /* \"#utility.yul\":2467:2470   */\n      dup5\n        /* \"#utility.yul\":2458:2464   */\n      dup5\n        /* \"#utility.yul\":2453:2456   */\n      dup5\n        /* \"#utility.yul\":2449:2465   */\n      add\n        /* \"#utility.yul\":2446:2471   */\n      gt\n        /* \"#utility.yul\":2443:2555   */\n      iszero\n      tag_106\n      jumpi\n        /* \"#utility.yul\":2474:2553   */\n      tag_107\n      tag_59\n      jump\t// in\n    tag_107:\n        /* \"#utility.yul\":2443:2555   */\n    tag_106:\n        /* \"#utility.yul\":2564:2618   */\n      tag_108\n        /* \"#utility.yul\":2611:2617   */\n      dup5\n        /* \"#utility.yul\":2606:2609   */\n      dup3\n        /* \"#utility.yul\":2601:2604   */\n      dup6\n        /* \"#utility.yul\":2564:2618   */\n      tag_65\n      jump\t// in\n    tag_108:\n        /* \"#utility.yul\":2283:2624   */\n      pop\n        /* \"#utility.yul\":2199:2624   */\n      swap4\n      swap3\n      pop\n      pop\n      pop\n      jump\t// out\n        /* \"#utility.yul\":2644:2984   */\n    tag_67:\n        /* \"#utility.yul\":2700:2705   */\n      0x00\n        /* \"#utility.yul\":2749:2752   */\n      dup3\n        /* \"#utility.yul\":2742:2746   */\n      0x1f\n        /* \"#utility.yul\":2734:2740   */\n      dup4\n        /* \"#utility.yul\":2730:2747   */\n      add\n        /* \"#utility.yul\":2726:2753   */\n      slt\n        /* \"#utility.yul\":2716:2838   */\n      tag_110\n      jumpi\n        /* \"#utility.yul\":2757:2836   */\n      tag_111\n      tag_58\n      jump\t// in\n    tag_111:\n        /* \"#utility.yul\":2716:2838   */\n    tag_110:\n        /* \"#utility.yul\":2874:2880   */\n      dup2\n        /* \"#utility.yul\":2861:2881   */\n      calldataload\n        /* \"#utility.yul\":2899:2978   */\n      tag_112\n        /* \"#utility.yul\":2974:2977   */\n      dup5\n        /* \"#utility.yul\":2966:2972   */\n      dup3\n        /* \"#utility.yul\":2959:2963   */\n      0x20\n        /* \"#utility.yul\":2951:2957   */\n      dup7\n        /* \"#utility.yul\":2947:2964   */\n      add\n        /* \"#utility.yul\":2899:2978   */\n      tag_66\n      jump\t// in\n    tag_112:\n        /* \"#utility.yul\":2890:2978   */\n      swap2\n      pop\n        /* \"#utility.yul\":2706:2984   */\n      pop\n        /* \"#utility.yul\":2644:2984   */\n      swap3\n      swap2\n      pop\n      pop\n      jump\t// out\n        /* \"#utility.yul\":2990:3499   */\n    tag_14:\n        /* \"#utility.yul\":3059:3065   */\n      0x00\n        /* \"#utility.yul\":3108:3110   */\n      0x20\n        /* \"#utility.yul\":3096:3105   */\n      dup3\n        /* \"#utility.yul\":3087:3094   */\n      dup5\n        /* \"#utility.yul\":3083:3106   */\n      sub\n        /* \"#utility.yul\":3079:3111   */\n      slt\n        /* \"#utility.yul\":3076:3195   */\n      iszero\n      tag_114\n      jumpi\n        /* \"#utility.yul\":3114:3193   */\n      tag_115\n      tag_56\n      jump\t// in\n    tag_115:\n        /* \"#utility.yul\":3076:3195   */\n    tag_114:\n        /* \"#utility.yul\":3262:3263   */\n      0x00\n        /* \"#utility.yul\":3251:3260   */\n      dup3\n        /* \"#utility.yul\":3247:3264   */\n      add\n        /* \"#utility.yul\":3234:3265   */\n      calldataload\n        /* \"#utility.yul\":3292:3310   */\n      0xffffffffffffffff\n        /* \"#utility.yul\":3284:3290   */\n      dup2\n        /* \"#utility.yul\":3281:3311   */\n      gt\n        /* \"#utility.yul\":3278:3395   */\n      iszero\n      tag_116\n      jumpi\n        /* \"#utility.yul\":3314:3393   */\n      tag_117\n      tag_57\n      jump\t// in\n    tag_117:\n        /* \"#utility.yul\":3278:3395   */\n    tag_116:\n        /* \"#utility.yul\":3419:3482   */\n      tag_118\n        /* \"#utility.yul\":3474:3481   */\n      dup5\n        /* \"#utility.yul\":3465:3471   */\n      dup3\n        /* \"#utility.yul\":3454:3463   */\n      dup6\n        /* \"#utility.yul\":3450:3472   */\n      add\n        /* \"#utility.yul\":3419:3482   */\n      tag_67\n      jump\t// in\n    tag_118:\n        /* \"#utility.yul\":3409:3482   */\n      swap2\n      pop\n        /* \"#utility.yul\":3205:3492   */\n      pop\n        /* \"#utility.yul\":2990:3499   */\n      swap3\n      swap2\n      pop\n      pop\n      jump\t// out\n        /* \"#utility.yul\":3505:3604   */\n    tag_68:\n        /* \"#utility.yul\":3557:3563   */\n      0x00\n        /* \"#utility.yul\":3591:3596   */\n      dup2\n        /* \"#utility.yul\":3585:3597   */\n      mload\n        /* \"#utility.yul\":3575:3597   */\n      swap1\n      pop\n        /* \"#utility.yul\":3505:3604   */\n      swap2\n      swap1\n      pop\n      jump\t// out\n        /* \"#utility.yul\":3610:3779   */\n    tag_69:\n        /* \"#utility.yul\":3694:3705   */\n      0x00\n        /* \"#utility.yul\":3728:3734   */\n      dup3\n        /* \"#utility.yul\":3723:3726   */\n      dup3\n        /* \"#utility.yul\":3716:3735   */\n      mstore\n        /* \"#utility.yul\":3768:3772   */\n      0x20\n        /* \"#utility.yul\":3763:3766   */\n      dup3\n        /* \"#utility.yul\":3759:3773   */\n      add\n        /* \"#utility.yul\":3744:3773   */\n      swap1\n      pop\n        /* \"#utility.yul\":3610:3779   */\n      swap3\n      swap2\n      pop\n      pop\n      jump\t// out\n        /* \"#utility.yul\":3785:3924   */\n    tag_70:\n        /* \"#utility.yul\":3874:3880   */\n      dup3\n        /* \"#utility.yul\":3869:3872   */\n      dup2\n        /* \"#utility.yul\":3864:3867   */\n      dup4\n        /* \"#utility.yul\":3858:3881   */\n      mcopy\n        /* \"#utility.yul\":3915:3916   */\n      0x00\n        /* \"#utility.yul\":3906:3912   */\n      dup4\n        /* \"#utility.yul\":3901:3904   */\n      dup4\n        /* \"#utility.yul\":3897:3913   */\n      add\n        /* \"#utility.yul\":3890:3917   */\n      mstore\n        /* \"#utility.yul\":3785:3924   */\n      pop\n      pop\n      pop\n      jump\t// out\n        /* \"#utility.yul\":3930:4307   */\n    tag_71:\n        /* \"#utility.yul\":4018:4021   */\n      0x00\n        /* \"#utility.yul\":4046:4085   */\n      tag_123\n        /* \"#utility.yul\":4079:4084   */\n      dup3\n        /* \"#utility.yul\":4046:4085   */\n      tag_68\n      jump\t// in\n    tag_123:\n        /* \"#utility.yul\":4101:4172   */\n      tag_124\n        /* \"#utility.yul\":4165:4171   */\n      dup2\n        /* \"#utility.yul\":4160:4163   */\n      dup6\n        /* \"#utility.yul\":4101:4172   */\n      tag_69\n      jump\t// in\n    tag_124:\n        /* \"#utility.yul\":4094:4172   */\n      swap4\n      pop\n        /* \"#utility.yul\":4181:4246   */\n      tag_125\n        /* \"#utility.yul\":4239:4245   */\n      dup2\n        /* \"#utility.yul\":4234:4237   */\n      dup6\n        /* \"#utility.yul\":4227:4231   */\n      0x20\n        /* \"#utility.yul\":4220:4225   */\n      dup7\n        /* \"#utility.yul\":4216:4232   */\n      add\n        /* \"#utility.yul\":4181:4246   */\n      tag_70\n      jump\t// in\n    tag_125:\n        /* \"#utility.yul\":4271:4300   */\n      tag_126\n        /* \"#utility.yul\":4293:4299   */\n      dup2\n        /* \"#utility.yul\":4271:4300   */\n      tag_60\n      jump\t// in\n    tag_126:\n        /* \"#utility.yul\":4266:4269   */\n      dup5\n        /* \"#utility.yul\":4262:4301   */\n      add\n        /* \"#utility.yul\":4255:4301   */\n      swap2\n      pop\n        /* \"#utility.yul\":4022:4307   */\n      pop\n        /* \"#utility.yul\":3930:4307   */\n      swap3\n      swap2\n      pop\n      pop\n      jump\t// out\n        /* \"#utility.yul\":4313:4626   */\n    tag_17:\n        /* \"#utility.yul\":4426:4430   */\n      0x00\n        /* \"#utility.yul\":4464:4466   */\n      0x20\n        /* \"#utility.yul\":4453:4462   */\n      dup3\n        /* \"#utility.yul\":4449:4467   */\n      add\n        /* \"#utility.yul\":4441:4467   */\n      swap1\n      pop\n        /* \"#utility.yul\":4513:4522   */\n      dup2\n        /* \"#utility.yul\":4507:4511   */\n      dup2\n        /* \"#utility.yul\":4503:4523   */\n      sub\n        /* \"#utility.yul\":4499:4500   */\n      0x00\n        /* \"#utility.yul\":4488:4497   */\n      dup4\n        /* \"#utility.yul\":4484:4501   */\n      add\n        /* \"#utility.yul\":4477:4524   */\n      mstore\n        /* \"#utility.yul\":4541:4619   */\n      tag_128\n        /* \"#utility.yul\":4614:4618   */\n      dup2\n        /* \"#utility.yul\":4605:4611   */\n      dup5\n        /* \"#utility.yul\":4541:4619   */\n      tag_71\n      jump\t// in\n    tag_128:\n        /* \"#utility.yul\":4533:4619   */\n      swap1\n      pop\n        /* \"#utility.yul\":4313:4626   */\n      swap3\n      swap2\n      pop\n      pop\n      jump\t// out\n        /* \"#utility.yul\":4632:4758   */\n    tag_72:\n        /* \"#utility.yul\":4669:4676   */\n      0x00\n        /* \"#utility.yul\":4709:4751   */\n      0xffffffffffffffffffffffffffffffffffffffff\n        /* \"#utility.yul\":4702:4707   */\n      dup3\n        /* \"#utility.yul\":4698:4752   */\n      and\n        /* \"#utility.yul\":4687:4752   */\n      swap1\n      pop\n        /* \"#utility.yul\":4632:4758   */\n      swap2\n      swap1\n      pop\n      jump\t// out\n        /* \"#utility.yul\":4764:4860   */\n    tag_73:\n        /* \"#utility.yul\":4801:4808   */\n      0x00\n        /* \"#utility.yul\":4830:4854   */\n      tag_131\n        /* \"#utility.yul\":4848:4853   */\n      dup3\n        /* \"#utility.yul\":4830:4854   */\n      tag_72\n      jump\t// in\n    tag_131:\n        /* \"#utility.yul\":4819:4854   */\n      swap1\n      pop\n        /* \"#utility.yul\":4764:4860   */\n      swap2\n      swap1\n      pop\n      jump\t// out\n        /* \"#utility.yul\":4866:4988   */\n    tag_74:\n        /* \"#utility.yul\":4939:4963   */\n      tag_133\n        /* \"#utility.yul\":4957:4962   */\n      dup2\n        /* \"#utility.yul\":4939:4963   */\n      tag_73\n      jump\t// in\n    tag_133:\n        /* \"#utility.yul\":4932:4937   */\n      dup2\n        /* \"#utility.yul\":4929:4964   */\n      eq\n        /* \"#utility.yul\":4919:4982   */\n      tag_134\n      jumpi\n        /* \"#utility.yul\":4978:4979   */\n      0x00\n        /* \"#utility.yul\":4975:4976   */\n      dup1\n        /* \"#utility.yul\":4968:4980   */\n      revert\n        /* \"#utility.yul\":4919:4982   */\n    tag_134:\n        /* \"#utility.yul\":4866:4988   */\n      pop\n      jump\t// out\n        /* \"#utility.yul\":4994:5133   */\n    tag_75:\n        /* \"#utility.yul\":5040:5045   */\n      0x00\n        /* \"#utility.yul\":5078:5084   */\n      dup2\n        /* \"#utility.yul\":5065:5085   */\n      calldataload\n        /* \"#utility.yul\":5056:5085   */\n      swap1\n      pop\n        /* \"#utility.yul\":5094:5127   */\n      tag_136\n        /* \"#utility.yul\":5121:5126   */\n      dup2\n        /* \"#utility.yul\":5094:5127   */\n      tag_74\n      jump\t// in\n    tag_136:\n        /* \"#utility.yul\":4994:5133   */\n      swap3\n      swap2\n      pop\n      pop\n      jump\t// out\n        /* \"#utility.yul\":5139:5468   */\n    tag_20:\n        /* \"#utility.yul\":5198:5204   */\n      0x00\n        /* \"#utility.yul\":5247:5249   */\n      0x20\n        /* \"#utility.yul\":5235:5244   */\n      dup3\n        /* \"#utility.yul\":5226:5233   */\n      dup5\n        /* \"#utility.yul\":5222:5245   */\n      sub\n        /* \"#utility.yul\":5218:5250   */\n      slt\n        /* \"#utility.yul\":5215:5334   */\n      iszero\n      tag_138\n      jumpi\n        /* \"#utility.yul\":5253:5332   */\n      tag_139\n      tag_56\n      jump\t// in\n    tag_139:\n        /* \"#utility.yul\":5215:5334   */\n    tag_138:\n        /* \"#utility.yul\":5373:5374   */\n      0x00\n        /* \"#utility.yul\":5398:5451   */\n      tag_140\n        /* \"#utility.yul\":5443:5450   */\n      dup5\n        /* \"#utility.yul\":5434:5440   */\n      dup3\n        /* \"#utility.yul\":5423:5432   */\n      dup6\n        /* \"#utility.yul\":5419:5441   */\n      add\n        /* \"#utility.yul\":5398:5451   */\n      tag_75\n      jump\t// in\n    tag_140:\n        /* \"#utility.yul\":5388:5451   */\n      swap2\n      pop\n        /* \"#utility.yul\":5344:5461   */\n      pop\n        /* \"#utility.yul\":5139:5468   */\n      swap3\n      swap2\n      pop\n      pop\n      jump\t// out\n        /* \"#utility.yul\":5474:5654   */\n    tag_76:\n        /* \"#utility.yul\":5522:5599   */\n      0x4e487b7100000000000000000000000000000000000000000000000000000000\n        /* \"#utility.yul\":5519:5520   */\n      0x00\n        /* \"#utility.yul\":5512:5600   */\n      mstore\n        /* \"#utility.yul\":5619:5623   */\n      0x12\n        /* \"#utility.yul\":5616:5617   */\n      0x04\n        /* \"#utility.yul\":5609:5624   */\n      mstore\n        /* \"#utility.yul\":5643:5647   */\n      0x24\n        /* \"#utility.yul\":5640:5641   */\n      0x00\n        /* \"#utility.yul\":5633:5648   */\n      revert\n        /* \"#utility.yul\":5660:5840   */\n    tag_77:\n        /* \"#utility.yul\":5708:5785   */\n      0x4e487b7100000000000000000000000000000000000000000000000000000000\n        /* \"#utility.yul\":5705:5706   */\n      0x00\n        /* \"#utility.yul\":5698:5786   */\n      mstore\n        /* \"#utility.yul\":5805:5809   */\n      0x11\n        /* \"#utility.yul\":5802:5803   */\n      0x04\n        /* \"#utility.yul\":5795:5810   */\n      mstore\n        /* \"#utility.yul\":5829:5833   */\n      0x24\n        /* \"#utility.yul\":5826:5827   */\n      0x00\n        /* \"#utility.yul\":5819:5834   */\n      revert\n        /* \"#utility.yul\":5846:6031   */\n    tag_34:\n        /* \"#utility.yul\":5886:5887   */\n      0x00\n        /* \"#utility.yul\":5903:5923   */\n      tag_144\n        /* \"#utility.yul\":5921:5922   */\n      dup3\n        /* \"#utility.yul\":5903:5923   */\n      tag_53\n      jump\t// in\n    tag_144:\n        /* \"#utility.yul\":5898:5923   */\n      swap2\n      pop\n        /* \"#utility.yul\":5937:5957   */\n      tag_145\n        /* \"#utility.yul\":5955:5956   */\n      dup4\n        /* \"#utility.yul\":5937:5957   */\n      tag_53\n      jump\t// in\n    tag_145:\n        /* \"#utility.yul\":5932:5957   */\n      swap3\n      pop\n        /* \"#utility.yul\":5976:5977   */\n      dup3\n        /* \"#utility.yul\":5966:6001   */\n      tag_146\n      jumpi\n        /* \"#utility.yul\":5981:5999   */\n      tag_147\n      tag_76\n      jump\t// in\n    tag_147:\n        /* \"#utility.yul\":5966:6001   */\n    tag_146:\n        /* \"#utility.yul\":6023:6024   */\n      dup3\n        /* \"#utility.yul\":6020:6021   */\n      dup3\n        /* \"#utility.yul\":6016:6025   */\n      div\n        /* \"#utility.yul\":6011:6025   */\n      swap1\n      pop\n        /* \"#utility.yul\":5846:6031   */\n      swap3\n      swap2\n      pop\n      pop\n      jump\t// out\n        /* \"#utility.yul\":6037:6231   */\n    tag_36:\n        /* \"#utility.yul\":6077:6081   */\n      0x00\n        /* \"#utility.yul\":6097:6117   */\n      tag_149\n        /* \"#utility.yul\":6115:6116   */\n      dup3\n        /* \"#utility.yul\":6097:6117   */\n      tag_53\n      jump\t// in\n    tag_149:\n        /* \"#utility.yul\":6092:6117   */\n      swap2\n      pop\n        /* \"#utility.yul\":6131:6151   */\n      tag_150\n        /* \"#utility.yul\":6149:6150   */\n      dup4\n        /* \"#utility.yul\":6131:6151   */\n      tag_53\n      jump\t// in\n    tag_150:\n        /* \"#utility.yul\":6126:6151   */\n      swap3\n      pop\n        /* \"#utility.yul\":6175:6176   */\n      dup3\n        /* \"#utility.yul\":6172:6173   */\n      dup3\n        /* \"#utility.yul\":6168:6177   */\n      sub\n        /* \"#utility.yul\":6160:6177   */\n      swap1\n      pop\n        /* \"#utility.yul\":6199:6200   */\n      dup2\n        /* \"#utility.yul\":6193:6197   */\n      dup2\n        /* \"#utility.yul\":6190:6201   */\n      gt\n        /* \"#utility.yul\":6187:6224   */\n      iszero\n      tag_151\n      jumpi\n        /* \"#utility.yul\":6204:6222   */\n      tag_152\n      tag_77\n      jump\t// in\n    tag_152:\n        /* \"#utility.yul\":6187:6224   */\n    tag_151:\n        /* \"#utility.yul\":6037:6231   */\n      swap3\n      swap2\n      pop\n      pop\n      jump\t// out\n        /* \"#utility.yul\":6237:6417   */\n    tag_40:\n        /* \"#utility.yul\":6285:6362   */\n      0x4e487b7100000000000000000000000000000000000000000000000000000000\n        /* \"#utility.yul\":6282:6283   */\n      0x00\n        /* \"#utility.yul\":6275:6363   */\n      mstore\n        /* \"#utility.yul\":6382:6386   */\n      0x32\n        /* \"#utility.yul\":6379:6380   */\n      0x04\n        /* \"#utility.yul\":6372:6387   */\n      mstore\n        /* \"#utility.yul\":6406:6410   */\n      0x24\n        /* \"#utility.yul\":6403:6404   */\n      0x00\n        /* \"#utility.yul\":6396:6411   */\n      revert\n        /* \"#utility.yul\":6423:6656   */\n    tag_49:\n        /* \"#utility.yul\":6462:6465   */\n      0x00\n        /* \"#utility.yul\":6485:6509   */\n      tag_155\n        /* \"#utility.yul\":6503:6508   */\n      dup3\n        /* \"#utility.yul\":6485:6509   */\n      tag_53\n      jump\t// in\n    tag_155:\n        /* \"#utility.yul\":6476:6509   */\n      swap2\n      pop\n        /* \"#utility.yul\":6531:6597   */\n      0xffffffffffffffffffffffffffffffffffffffffffffffffffffffffffffffff\n        /* \"#utility.yul\":6524:6529   */\n      dup3\n        /* \"#utility.yul\":6521:6598   */\n      sub\n        /* \"#utility.yul\":6518:6621   */\n      tag_156\n      jumpi\n        /* \"#utility.yul\":6601:6619   */\n      tag_157\n      tag_77\n      jump\t// in\n    tag_157:\n        /* \"#utility.yul\":6518:6621   */\n    tag_156:\n        /* \"#utility.yul\":6648:6649   */\n      0x01\n        /* \"#utility.yul\":6641:6646   */\n      dup3\n        /* \"#utility.yul\":6637:6650   */\n      add\n        /* \"#utility.yul\":6630:6650   */\n      swap1\n      pop\n        /* \"#utility.yul\":6423:6656   */\n      swap2\n      swap1\n      pop\n      jump\t// out\n\n    auxdata: 0xa2646970667358221220aad2fdcfdaee6aa216d3d40630853669754c4ad1165e8308f01e09525d2924ef64736f6c634300081a0033\n}\n",
				"bytecode": {
					"linkReferences": {},
					"object": "608060405260015f553480156012575f80fd5b50610714806100205f395ff3fe608060405234801561000f575f80fd5b5060043610610055575f3560e01c80630d8e6e2c146100595780635729c211146100775780636dd7d8ea146100a75780639ab24eb0146100c3578063b9830ff1146100f3575b5f80fd5b6100616100fd565b60405161006e91906102fb565b60405180910390f35b610091600480360381019061008c9190610461565b610105565b60405161009e9190610508565b60405180910390f35b6100c160048036038101906100bc9190610582565b610210565b005b6100dd60048036038101906100d89190610582565b610275565b6040516100ea91906102fb565b60405180910390f35b6100fb6102cb565b005b5f8054905090565b60605f8290505f5b6002825161011b9190610607565b811015610206575f81600184516101329190610637565b61013c9190610637565b90508281815181106101515761015061066a565b5b602001015160f81c60f81b83838151811061016f5761016e61066a565b5b602001015160f81c60f81b84848151811061018d5761018c61066a565b5b602001018584815181106101a4576101a361066a565b5b60200101827effffffffffffffffffffffffffffffffffffffffffffffffffffffffffffff19165f1a9053827effffffffffffffffffffffffffffffffffffffffffffffffffffffffffffff19165f1a9053505050808060010191505061010d565b5080915050919050565b60015f805481526020019081526020015f205f8273ffffffffffffffffffffffffffffffffffffffff1673ffffffffffffffffffffffffffffffffffffffff1681526020019081526020015f205f81548092919061026d90610697565b919050555050565b5f60015f805481526020019081526020015f205f8373ffffffffffffffffffffffffffffffffffffffff1673ffffffffffffffffffffffffffffffffffffffff1681526020019081526020015f20549050919050565b5f808154809291906102dc90610697565b9190505550565b5f819050919050565b6102f5816102e3565b82525050565b5f60208201905061030e5f8301846102ec565b92915050565b5f604051905090565b5f80fd5b5f80fd5b5f80fd5b5f80fd5b5f601f19601f8301169050919050565b7f4e487b71000000000000000000000000000000000000000000000000000000005f52604160045260245ffd5b6103738261032d565b810181811067ffffffffffffffff821117156103925761039161033d565b5b80604052505050565b5f6103a4610314565b90506103b0828261036a565b919050565b5f67ffffffffffffffff8211156103cf576103ce61033d565b5b6103d88261032d565b9050602081019050919050565b828183375f83830152505050565b5f610405610400846103b5565b61039b565b90508281526020810184848401111561042157610420610329565b5b61042c8482856103e5565b509392505050565b5f82601f83011261044857610447610325565b5b81356104588482602086016103f3565b91505092915050565b5f602082840312156104765761047561031d565b5b5f82013567ffffffffffffffff81111561049357610492610321565b5b61049f84828501610434565b91505092915050565b5f81519050919050565b5f82825260208201905092915050565b8281835e5f83830152505050565b5f6104da826104a8565b6104e481856104b2565b93506104f48185602086016104c2565b6104fd8161032d565b840191505092915050565b5f6020820190508181035f83015261052081846104d0565b905092915050565b5f73ffffffffffffffffffffffffffffffffffffffff82169050919050565b5f61055182610528565b9050919050565b61056181610547565b811461056b575f80fd5b50565b5f8135905061057c81610558565b92915050565b5f602082840312156105975761059661031d565b5b5f6105a48482850161056e565b91505092915050565b7f4e487b71000000000000000000000000000000000000000000000000000000005f52601260045260245ffd5b7f4e487b71000000000000000000000000000000000000000000000000000000005f52601160045260245ffd5b5f610611826102e3565b915061061c836102e3565b92508261062c5761062b6105ad565b5b828204905092915050565b5f610641826102e3565b915061064c836102e3565b9250828203905081811115610664576106636105da565b5b92915050565b7f4e487b71000000000000000000000000000000000000000000000000000000005f52603260045260245ffd5b5f6106a1826102e3565b91507fffffffffffffffffffffffffffffffffffffffffffffffffffffffffffffffff82036106d3576106d26105da565b5b60018201905091905056fea2646970667358221220aad2fdcfdaee6aa216d3d40630853669754c4ad1165e8308f01e09525d2924ef64736f6c634300081a0033",
					"opcodes": "PUSH1 0x80 PUSH1 0x40 MSTORE PUSH1 0x1 PUSH0 SSTORE CALLVALUE DUP1 ISZERO PUSH1 0x12 JUMPI PUSH0 DUP1 REVERT JUMPDEST POP PUSH2 0x714 DUP1 PUSH2 0x20 PUSH0 CODECOPY PUSH0 RETURN INVALID PUSH1 0x80 PUSH1 0x40 MSTORE CALLVALUE DUP1 ISZERO PUSH2 0xF JUMPI PUSH0 DUP1 REVERT JUMPDEST POP PUSH1 0x4 CALLDATASIZE LT PUSH2 0x55 JUMPI PUSH0 CALLDATALOAD PUSH1 0xE0 SHR DUP1 PUSH4 0xD8E6E2C EQ PUSH2 0x59 JUMPI DUP1 PUSH4 0x5729C211 EQ PUSH2 0x77 JUMPI DUP1 PUSH4 0x6DD7D8EA EQ PUSH2 0xA7 JUMPI DUP1 PUSH4 0x9AB24EB0 EQ PUSH2 0xC3 JUMPI DUP1 PUSH4 0xB9830FF1 EQ PUSH2 0xF3 JUMPI JUMPDEST PUSH0 DUP1 REVERT JUMPDEST PUSH2 0x61 PUSH2 0xFD JUMP JUMPDEST PUSH1 0x40 MLOAD PUSH2 0x6E SWAP2 SWAP1 PUSH2 0x2FB JUMP JUMPDEST PUSH1 0x40 MLOAD DUP1 SWAP2 SUB SWAP1 RETURN JUMPDEST PUSH2 0x91 PUSH1 0x4 DUP1 CALLDATASIZE SUB DUP2 ADD SWAP1 PUSH2 0x8C SWAP2 SWAP1 PUSH2 0x461 JUMP JUMPDEST PUSH2 0x105 JUMP JUMPDEST PUSH1 0x40 MLOAD PUSH2 0x9E SWAP2 SWAP1 PUSH2 0x508 JUMP JUMPDEST PUSH1 0x40 MLOAD DUP1 SWAP2 SUB SWAP1 RETURN JUMPDEST PUSH2 0xC1 PUSH1 0x4 DUP1 CALLDATASIZE SUB DUP2 ADD SWAP1 PUSH2 0xBC SWAP2 SWAP1 PUSH2 0x582 JUMP JUMPDEST PUSH2 0x210 JUMP JUMPDEST STOP JUMPDEST PUSH2 0xDD PUSH1 0x4 DUP1 CALLDATASIZE SUB DUP2 ADD SWAP1 PUSH2 0xD8 SWAP2 SWAP1 PUSH2 0x582 JUMP JUMPDEST PUSH2 0x275 JUMP JUMPDEST PUSH1 0x40 MLOAD PUSH2 0xEA SWAP2 SWAP1 PUSH2 0x2FB JUMP JUMPDEST PUSH1 0x40 MLOAD DUP1 SWAP2 SUB SWAP1 RETURN JUMPDEST PUSH2 0xFB PUSH2 0x2CB JUMP JUMPDEST STOP JUMPDEST PUSH0 DUP1 SLOAD SWAP1 POP SWAP1 JUMP JUMPDEST PUSH1 0x60 PUSH0 DUP3 SWAP1 POP PUSH0 JUMPDEST PUSH1 0x2 DUP3 MLOAD PUSH2 0x11B SWAP2 SWAP1 PUSH2 0x607 JUMP JUMPDEST DUP2 LT ISZERO PUSH2 0x206 JUMPI PUSH0 DUP2 PUSH1 0x1 DUP5 MLOAD PUSH2 0x132 SWAP2 SWAP1 PUSH2 0x637 JUMP JUMPDEST PUSH2 0x13C SWAP2 SWAP1 PUSH2 0x637 JUMP JUMPDEST SWAP1 POP DUP3 DUP2 DUP2 MLOAD DUP2 LT PUSH2 0x151 JUMPI PUSH2 0x150 PUSH2 0x66A JUMP JUMPDEST JUMPDEST PUSH1 0x20 ADD ADD MLOAD PUSH1 0xF8 SHR PUSH1 0xF8 SHL DUP4 DUP4 DUP2 MLOAD DUP2 LT PUSH2 0x16F JUMPI PUSH2 0x16E PUSH2 0x66A JUMP JUMPDEST JUMPDEST PUSH1 0x20 ADD ADD MLOAD PUSH1 0xF8 SHR PUSH1 0xF8 SHL DUP5 DUP5 DUP2 MLOAD DUP2 LT PUSH2 0x18D JUMPI PUSH2 0x18C PUSH2 0x66A JUMP JUMPDEST JUMPDEST PUSH1 0x20 ADD ADD DUP6 DUP5 DUP2 MLOAD DUP2 LT PUSH2 0x1A4 JUMPI PUSH2 0x1A3 PUSH2 0x66A JUMP JUMPDEST JUMPDEST PUSH1 0x20 ADD ADD DUP3 PUSH31 0xFFFFFFFFFFFFFFFFFFFFFFFFFFFFFFFFFFFFFFFFFFFFFFFFFFFFFFFFFFFFFF NOT AND PUSH0 BYTE SWAP1 MSTORE8 DUP3 PUSH31 0xFFFFFFFFFFFFFFFFFFFFFFFFFFFFFFFFFFFFFFFFFFFFFFFFFFFFFFFFFFFFFF NOT AND PUSH0 BYTE SWAP1 MSTORE8 POP POP POP DUP1 DUP1 PUSH1 0x1 ADD SWAP2 POP POP PUSH2 0x10D JUMP JUMPDEST POP DUP1 SWAP2 POP POP SWAP2 SWAP1 POP JUMP JUMPDEST PUSH1 0x1 PUSH0 DUP1 SLOAD DUP2 MSTORE PUSH1 0x20 ADD SWAP1 DUP2 MSTORE PUSH1 0x20 ADD PUSH0 KECCAK256 PUSH0 DUP3 PUSH20 0xFFFFFFFFFFFFFFFFFFFFFFFFFFFFFFFFFFFFFFFF AND PUSH20 0xFFFFFFFFFFFFFFFFFFFFFFFFFFFFFFFFFFFFFFFF AND DUP2 MSTORE PUSH1 0x20 ADD SWAP1 DUP2 MSTORE PUSH1 0x20 ADD PUSH0 KECCAK256 PUSH0 DUP2 SLOAD DUP1 SWAP3 SWAP2 SWAP1 PUSH2 0x26D SWAP1 PUSH2 0x697 JUMP JUMPDEST SWAP2 SWAP1 POP SSTORE POP POP JUMP JUMPDEST PUSH0 PUSH1 0x1 PUSH0 DUP1 SLOAD DUP2 MSTORE PUSH1 0x20 ADD SWAP1 DUP2 MSTORE PUSH1 0x20 ADD PUSH0 KECCAK256 PUSH0 DUP4 PUSH20 0xFFFFFFFFFFFFFFFFFFFFFFFFFFFFFFFFFFFFFFFF AND PUSH20 0xFFFFFFFFFFFFFFFFFFFFFFFFFFFFFFFFFFFFFFFF AND DUP2 MSTORE PUSH1 0x20 ADD SWAP1 DUP2 MSTORE PUSH1 0x20 ADD PUSH0 KECCAK256 SLOAD SWAP1 POP SWAP2 SWAP1 POP JUMP JUMPDEST PUSH0 DUP1 DUP2 SLOAD DUP1 SWAP3 SWAP2 SWAP1 PUSH2 0x2DC SWAP1 PUSH2 0x697 JUMP JUMPDEST SWAP2 SWAP1 POP SSTORE POP JUMP JUMPDEST PUSH0 DUP2 SWAP1 POP SWAP2 SWAP1 POP JUMP JUMPDEST PUSH2 0x2F5 DUP2 PUSH2 0x2E3 JUMP JUMPDEST DUP3 MSTORE POP POP JUMP JUMPDEST PUSH0 PUSH1 0x20 DUP3 ADD SWAP1 POP PUSH2 0x30E PUSH0 DUP4 ADD DUP5 PUSH2 0x2EC JUMP JUMPDEST SWAP3 SWAP2 POP POP JUMP JUMPDEST PUSH0 PUSH1 0x40 MLOAD SWAP1 POP SWAP1 JUMP JUMPDEST PUSH0 DUP1 REVERT JUMPDEST PUSH0 DUP1 REVERT JUMPDEST PUSH0 DUP1 REVERT JUMPDEST PUSH0 DUP1 REVERT JUMPDEST PUSH0 PUSH1 0x1F NOT PUSH1 0x1F DUP4 ADD AND SWAP1 POP SWAP2 SWAP1 POP JUMP JUMPDEST PUSH32 0x4E487B7100000000000000000000000000000000000000000000000000000000 PUSH0 MSTORE PUSH1 0x41 PUSH1 0x4 MSTORE PUSH1 0x24 PUSH0 REVERT JUMPDEST PUSH2 0x373 DUP3 PUSH2 0x32D JUMP JUMPDEST DUP2 ADD DUP2 DUP2 LT PUSH8 0xFFFFFFFFFFFFFFFF DUP3 GT OR ISZERO PUSH2 0x392 JUMPI PUSH2 0x391 PUSH2 0x33D JUMP JUMPDEST JUMPDEST DUP1 PUSH1 0x40 MSTORE POP POP POP JUMP JUMPDEST PUSH0 PUSH2 0x3A4 PUSH2 0x314 JUMP JUMPDEST SWAP1 POP PUSH2 0x3B0 DUP3 DUP3 PUSH2 0x36A JUMP JUMPDEST SWAP2 SWAP1 POP JUMP JUMPDEST PUSH0 PUSH8 0xFFFFFFFFFFFFFFFF DUP3 GT ISZERO PUSH2 0x3CF JUMPI PUSH2 0x3CE PUSH2 0x33D JUMP JUMPDEST JUMPDEST PUSH2 0x3D8 DUP3 PUSH2 0x32D JUMP JUMPDEST SWAP1 POP PUSH1 0x20 DUP2 ADD SWAP1 POP SWAP2 SWAP1 POP JUMP JUMPDEST DUP3 DUP2 DUP4 CALLDATACOPY PUSH0 DUP4 DUP4 ADD MSTORE POP POP POP JUMP JUMPDEST PUSH0 PUSH2 0x405 PUSH2 0x400 DUP5 PUSH2 0x3B5 JUMP JUMPDEST PUSH2 0x39B JUMP JUMPDEST SWAP1 POP DUP3 DUP2 MSTORE PUSH1 0x20 DUP2 ADD DUP5 DUP5 DUP5 ADD GT ISZERO PUSH2 0x421 JUMPI PUSH2 0x420 PUSH2 0x329 JUMP JUMPDEST JUMPDEST PUSH2 0x42C DUP5 DUP3 DUP6 PUSH2 0x3E5 JUMP JUMPDEST POP SWAP4 SWAP3 POP POP POP JUMP JUMPDEST PUSH0 DUP3 PUSH1 0x1F DUP4 ADD SLT PUSH2 0x448 JUMPI PUSH2 0x447 PUSH2 0x325 JUMP JUMPDEST JUMPDEST DUP2 CALLDATALOAD PUSH2 0x458 DUP5 DUP3 PUSH1 0x20 DUP7 ADD PUSH2 0x3F3 JUMP JUMPDEST SWAP2 POP POP SWAP3 SWAP2 POP POP JUMP JUMPDEST PUSH0 PUSH1 0x20 DUP3 DUP5 SUB SLT ISZERO PUSH2 0x476 JUMPI PUSH2 0x475 PUSH2 0x31D JUMP JUMPDEST JUMPDEST PUSH0 DUP3 ADD CALLDATALOAD PUSH8 0xFFFFFFFFFFFFFFFF DUP2 GT ISZERO PUSH2 0x493 JUMPI PUSH2 0x492 PUSH2 0x321 JUMP JUMPDEST JUMPDEST PUSH2 0x49F DUP5 DUP3 DUP6 ADD PUSH2 0x434 JUMP JUMPDEST SWAP2 POP POP SWAP3 SWAP2 POP POP JUMP JUMPDEST PUSH0 DUP2 MLOAD SWAP1 POP SWAP2 SWAP1 POP JUMP JUMPDEST PUSH0 DUP3 DUP3 MSTORE PUSH1 0x20 DUP3 ADD SWAP1 POP SWAP3 SWAP2 POP POP JUMP JUMPDEST DUP3 DUP2 DUP4 MCOPY PUSH0 DUP4 DUP4 ADD MSTORE POP POP POP JUMP JUMPDEST PUSH0 PUSH2 0x4DA DUP3 PUSH2 0x4A8 JUMP JUMPDEST PUSH2 0x4E4 DUP2 DUP6 PUSH2 0x4B2 JUMP JUMPDEST SWAP4 POP PUSH2 0x4F4 DUP2 DUP6 PUSH1 0x20 DUP7 ADD PUSH2 0x4C2 JUMP JUMPDEST PUSH2 0x4FD DUP2 PUSH2 0x32D JUMP JUMPDEST DUP5 ADD SWAP2 POP POP SWAP3 SWAP2 POP POP JUMP JUMPDEST PUSH0 PUSH1 0x20 DUP3 ADD SWAP1 POP DUP2 DUP2 SUB PUSH0 DUP4 ADD MSTORE PUSH2 0x520 DUP2 DUP5 PUSH2 0x4D0 JUMP JUMPDEST SWAP1 POP SWAP3 SWAP2 POP POP JUMP JUMPDEST PUSH0 PUSH20 0xFFFFFFFFFFFFFFFFFFFFFFFFFFFFFFFFFFFFFFFF DUP3 AND SWAP1 POP SWAP2 SWAP1 POP JUMP JUMPDEST PUSH0 PUSH2 0x551 DUP3 PUSH2 0x528 JUMP JUMPDEST SWAP1 POP SWAP2 SWAP1 POP JUMP JUMPDEST PUSH2 0x561 DUP2 PUSH2 0x547 JUMP JUMPDEST DUP2 EQ PUSH2 0x56B JUMPI PUSH0 DUP1 REVERT JUMPDEST POP JUMP JUMPDEST PUSH0 DUP2 CALLDATALOAD SWAP1 POP PUSH2 0x57C DUP2 PUSH2 0x558 JUMP JUMPDEST SWAP3 SWAP2 POP POP JUMP JUMPDEST PUSH0 PUSH1 0x20 DUP3 DUP5 SUB SLT ISZERO PUSH2 0x597 JUMPI PUSH2 0x596 PUSH2 0x31D JUMP JUMPDEST JUMPDEST PUSH0 PUSH2 0x5A4 DUP5 DUP3 DUP6 ADD PUSH2 0x56E JUMP JUMPDEST SWAP2 POP POP SWAP3 SWAP2 POP POP JUMP JUMPDEST PUSH32 0x4E487B7100000000000000000000000000000000000000000000000000000000 PUSH0 MSTORE PUSH1 0x12 PUSH1 0x4 MSTORE PUSH1 0x24 PUSH0 REVERT JUMPDEST PUSH32 0x4E487B7100000000000000000000000000000000000000000000000000000000 PUSH0 MSTORE PUSH1 0x11 PUSH1 0x4 MSTORE PUSH1 0x24 PUSH0 REVERT JUMPDEST PUSH0 PUSH2 0x611 DUP3 PUSH2 0x2E3 JUMP JUMPDEST SWAP2 POP PUSH2 0x61C DUP4 PUSH2 0x2E3 JUMP JUMPDEST SWAP3 POP DUP3 PUSH2 0x62C JUMPI PUSH2 0x62B PUSH2 0x5AD JUMP JUMPDEST JUMPDEST DUP3 DUP3 DIV SWAP1 POP SWAP3 SWAP2 POP POP JUMP JUMPDEST PUSH0 PUSH2 0x641 DUP3 PUSH2 0x2E3 JUMP JUMPDEST SWAP2 POP PUSH2 0x64C DUP4 PUSH2 0x2E3 JUMP JUMPDEST SWAP3 POP DUP3 DUP3 SUB SWAP1 POP DUP2 DUP2 GT ISZERO PUSH2 0x664 JUMPI PUSH2 0x663 PUSH2 0x5DA JUMP JUMPDEST JUMPDEST SWAP3 SWAP2 POP POP JUMP JUMPDEST PUSH32 0x4E487B7100000000000000000000000000000000000000000000000000000000 PUSH0 MSTORE PUSH1 0x32 PUSH1 0x4 MSTORE PUSH1 0x24 PUSH0 REVERT JUMPDEST PUSH0 PUSH2 0x6A1 DUP3 PUSH2 0x2E3 JUMP JUMPDEST SWAP2 POP PUSH32 0xFFFFFFFFFFFFFFFFFFFFFFFFFFFFFFFFFFFFFFFFFFFFFFFFFFFFFFFFFFFFFFFF DUP3 SUB PUSH2 0x6D3 JUMPI PUSH2 0x6D2 PUSH2 0x5DA JUMP JUMPDEST JUMPDEST PUSH1 0x1 DUP3 ADD SWAP1 POP SWAP2 SWAP1 POP JUMP INVALID LOG2 PUSH5 0x6970667358 0x22 SLT KECCAK256 0xAA 0xD2 REVERT 0xCF 0xDA 0xEE PUSH11 0xA216D3D40630853669754C BLOBBASEFEE 0xD1 AND MCOPY DUP4 ADDMOD CREATE 0x1E MULMOD MSTORE TSTORE 0x29 0x24 0xEF PUSH5 0x736F6C6343 STOP ADDMOD BYTE STOP CALLER "
				},
				"gasEstimates": {
					"creation": {
						"codeDepositCost": "362400",
						"executionCost": "22502",
						"totalCost": "384902"
					},
					"external": {
						"getVersion()": "2410",
						"getVotes(address)": "5049",
						"resetVotes()": "24563",
						"reverseString(string)": "infinite",
						"vote(address)": "27089"
					}
				},
				"methodIdentifiers": {
					"getVersion()": "0d8e6e2c",
					"getVotes(address)": "9ab24eb0",
					"resetVotes()": "b9830ff1",
					"reverseString(string)": "5729c211",
					"vote(address)": "6dd7d8ea"
				}
			},
			"storageLayout": {
				"storage": [
					{
						"astId": 4,
						"contract": "task1/task1.sol:Voting",
						"label": "version",
						"offset": 0,
						"slot": "0",
						"type": "t_uint256"
					},
					{
						"astId": 10,
						"contract": "task1/task1.sol:Voting",
						"label": "candidateToVotes",
						"offset": 0,
						"slot": "1",
						"type": "t_mapping(t_uint256,t_mapping(t_address,t_uint256))"
					}
				],
				"types": {
					"t_address": {
						"encoding": "inplace",
						"label": "address",
						"numberOfBytes": "20"
					},
					"t_mapping(t_address,t_uint256)": {
						"encoding": "mapping",
						"key": "t_address",
						"label": "mapping(address => uint256)",
						"numberOfBytes": "32",
						"value": "t_uint256"
					},
					"t_mapping(t_uint256,t_mapping(t_address,t_uint256))": {
						"encoding": "mapping",
						"key": "t_uint256",
						"label": "mapping(uint256 => mapping(address => uint256))",
						"numberOfBytes": "32",
						"value": "t_mapping(t_address,t_uint256)"
					},
					"t_uint256": {
						"encoding": "inplace",
						"label": "uint256",
						"numberOfBytes": "32"
					}
				}
			},
			"userdoc": {
				"kind": "user",
				"methods": {},
				"version": 1
			}
		}
	}
}