{
	"task1/MergeSortedArray.sol": {
		"MergeSortedArray": {
			"abi": [
				{
					"inputs": [
						{
							"internalType": "uint256",
							"name": "",
							"type": "uint256"
						}
					],
					"name": "arr3",
					"outputs": [
						{
							"internalType": "uint256",
							"name": "",
							"type": "uint256"
						}
					],
					"stateMutability": "view",
					"type": "function"
				},
				{
					"inputs": [],
					"name": "getArr3",
					"outputs": [
						{
							"internalType": "uint256[]",
							"name": "",
							"type": "uint256[]"
						}
					],
					"stateMutability": "view",
					"type": "function"
				},
				{
					"inputs": [],
					"name": "merge",
					"outputs": [
						{
							"internalType": "uint256[]",
							"name": "",
							"type": "uint256[]"
						}
					],
					"stateMutability": "nonpayable",
					"type": "function"
				}
			],
			"devdoc": {
				"kind": "dev",
				"methods": {},
				"version": 1
			},
			"evm": {
				"assembly": "    /* \"task1/MergeSortedArray.sol\":57:954  contract MergeSortedArray {... */\n  mstore(0x40, 0x80)\n    /* \"task1/MergeSortedArray.sol\":89:117  uint256[] arr1 = [1,3,4,5,6] */\n  mload(0x40)\n  dup1\n  0xa0\n  add\n  0x40\n  mstore\n  dup1\n    /* \"task1/MergeSortedArray.sol\":107:108  1 */\n  0x01\n    /* \"task1/MergeSortedArray.sol\":89:117  uint256[] arr1 = [1,3,4,5,6] */\n  0xff\n  and\n  dup2\n  mstore\n  0x20\n  add\n    /* \"task1/MergeSortedArray.sol\":109:110  3 */\n  0x03\n    /* \"task1/MergeSortedArray.sol\":89:117  uint256[] arr1 = [1,3,4,5,6] */\n  0xff\n  and\n  dup2\n  mstore\n  0x20\n  add\n    /* \"task1/MergeSortedArray.sol\":111:112  4 */\n  0x04\n    /* \"task1/MergeSortedArray.sol\":89:117  uint256[] arr1 = [1,3,4,5,6] */\n  0xff\n  and\n  dup2\n  mstore\n  0x20\n  add\n    /* \"task1/MergeSortedArray.sol\":113:114  5 */\n  0x05\n    /* \"task1/MergeSortedArray.sol\":89:117  uint256[] arr1 = [1,3,4,5,6] */\n  0xff\n  and\n  dup2\n  mstore\n  0x20\n  add\n    /* \"task1/MergeSortedArray.sol\":115:116  6 */\n  0x06\n    /* \"task1/MergeSortedArray.sol\":89:117  uint256[] arr1 = [1,3,4,5,6] */\n  0xff\n  and\n  dup2\n  mstore\n  pop\n  0x00\n  swap1\n  0x05\n  tag_1\n  swap3\n  swap2\n  swap1\n  tag_2\n  jump\t// in\ntag_1:\n  pop\n    /* \"task1/MergeSortedArray.sol\":123:151  uint256[] arr2 = [2,4,5,7,8] */\n  mload(0x40)\n  dup1\n  0xa0\n  add\n  0x40\n  mstore\n  dup1\n    /* \"task1/MergeSortedArray.sol\":141:142  2 */\n  0x02\n    /* \"task1/MergeSortedArray.sol\":123:151  uint256[] arr2 = [2,4,5,7,8] */\n  0xff\n  and\n  dup2\n  mstore\n  0x20\n  add\n    /* \"task1/MergeSortedArray.sol\":143:144  4 */\n  0x04\n    /* \"task1/MergeSortedArray.sol\":123:151  uint256[] arr2 = [2,4,5,7,8] */\n  0xff\n  and\n  dup2\n  mstore\n  0x20\n  add\n    /* \"task1/MergeSortedArray.sol\":145:146  5 */\n  0x05\n    /* \"task1/MergeSortedArray.sol\":123:151  uint256[] arr2 = [2,4,5,7,8] */\n  0xff\n  and\n  dup2\n  mstore\n  0x20\n  add\n    /* \"task1/MergeSortedArray.sol\":147:148  7 */\n  0x07\n    /* \"task1/MergeSortedArray.sol\":123:151  uint256[] arr2 = [2,4,5,7,8] */\n  0xff\n  and\n  dup2\n  mstore\n  0x20\n  add\n    /* \"task1/MergeSortedArray.sol\":149:150  8 */\n  0x08\n    /* \"task1/MergeSortedArray.sol\":123:151  uint256[] arr2 = [2,4,5,7,8] */\n  0xff\n  and\n  dup2\n  mstore\n  pop\n  0x01\n  swap1\n  0x05\n  tag_3\n  swap3\n  swap2\n  swap1\n  tag_2\n  jump\t// in\ntag_3:\n  pop\n    /* \"task1/MergeSortedArray.sol\":209:213  arr2 */\n  0x01\n    /* \"task1/MergeSortedArray.sol\":209:220  arr2.length */\n  dup1\n  sload\n  swap1\n  pop\n    /* \"task1/MergeSortedArray.sol\":195:199  arr1 */\n  0x00\n    /* \"task1/MergeSortedArray.sol\":195:206  arr1.length */\n  dup1\n  sload\n  swap1\n  pop\n    /* \"task1/MergeSortedArray.sol\":195:220  arr1.length + arr2.length */\n  tag_4\n  swap2\n  swap1\n  tag_5\n  jump\t// in\ntag_4:\n    /* \"task1/MergeSortedArray.sol\":181:221  new uint256[](arr1.length + arr2.length) */\n  0xffffffffffffffff\n  dup2\n  gt\n  iszero\n  tag_6\n  jumpi\n  tag_7\n  tag_8\n  jump\t// in\ntag_7:\ntag_6:\n  mload(0x40)\n  swap1\n  dup1\n  dup3\n  mstore\n  dup1\n  0x20\n  mul\n  0x20\n  add\n  dup3\n  add\n  0x40\n  mstore\n  dup1\n  iszero\n  tag_9\n  jumpi\n  dup2\n  0x20\n  add\n  0x20\n  dup3\n  mul\n  dup1\n  calldatasize\n  dup4\n  calldatacopy\n  dup1\n  dup3\n  add\n  swap2\n  pop\n  pop\n  swap1\n  pop\ntag_9:\n  pop\n    /* \"task1/MergeSortedArray.sol\":157:221  uint256[] public arr3 = new uint256[](arr1.length + arr2.length) */\n  0x02\n  swap1\n  dup1\n  mload\n  swap1\n  0x20\n  add\n  swap1\n  tag_10\n  swap3\n  swap2\n  swap1\n  tag_11\n  jump\t// in\ntag_10:\n  pop\n    /* \"task1/MergeSortedArray.sol\":57:954  contract MergeSortedArray {... */\n  callvalue\n  dup1\n  iszero\n  tag_12\n  jumpi\n  0x00\n  dup1\n  revert\ntag_12:\n  pop\n  jump(tag_13)\ntag_2:\n  dup3\n  dup1\n  sload\n  dup3\n  dup3\n  sstore\n  swap1\n  0x00\n  mstore\n  keccak256(0x00, 0x20)\n  swap1\n  dup2\n  add\n  swap3\n  dup3\n  iszero\n  tag_14\n  jumpi\n  swap2\n  0x20\n  mul\n  dup3\n  add\ntag_15:\n  dup3\n  dup2\n  gt\n  iszero\n  tag_16\n  jumpi\n  dup3\n  mload\n  dup3\n  swap1\n  0xff\n  and\n  swap1\n  sstore\n  swap2\n  0x20\n  add\n  swap2\n  swap1\n  0x01\n  add\n  swap1\n  jump(tag_15)\ntag_16:\ntag_14:\n  pop\n  swap1\n  pop\n  tag_17\n  swap2\n  swap1\n  tag_18\n  jump\t// in\ntag_17:\n  pop\n  swap1\n  jump\t// out\ntag_11:\n  dup3\n  dup1\n  sload\n  dup3\n  dup3\n  sstore\n  swap1\n  0x00\n  mstore\n  keccak256(0x00, 0x20)\n  swap1\n  dup2\n  add\n  swap3\n  dup3\n  iszero\n  tag_19\n  jumpi\n  swap2\n  0x20\n  mul\n  dup3\n  add\ntag_20:\n  dup3\n  dup2\n  gt\n  iszero\n  tag_21\n  jumpi\n  dup3\n  mload\n  dup3\n  sstore\n  swap2\n  0x20\n  add\n  swap2\n  swap1\n  0x01\n  add\n  swap1\n  jump(tag_20)\ntag_21:\ntag_19:\n  pop\n  swap1\n  pop\n  tag_22\n  swap2\n  swap1\n  tag_18\n  jump\t// in\ntag_22:\n  pop\n  swap1\n  jump\t// out\ntag_18:\ntag_23:\n  dup1\n  dup3\n  gt\n  iszero\n  tag_24\n  jumpi\n  0x00\n  dup2\n  0x00\n  swap1\n  sstore\n  pop\n  0x01\n  add\n  jump(tag_23)\ntag_24:\n  pop\n  swap1\n  jump\t// out\n    /* \"#utility.yul\":7:84   */\ntag_25:\n    /* \"#utility.yul\":44:51   */\n  0x00\n    /* \"#utility.yul\":73:78   */\n  dup2\n    /* \"#utility.yul\":62:78   */\n  swap1\n  pop\n    /* \"#utility.yul\":7:84   */\n  swap2\n  swap1\n  pop\n  jump\t// out\n    /* \"#utility.yul\":90:270   */\ntag_26:\n    /* \"#utility.yul\":138:215   */\n  0x4e487b7100000000000000000000000000000000000000000000000000000000\n    /* \"#utility.yul\":135:136   */\n  0x00\n    /* \"#utility.yul\":128:216   */\n  mstore\n    /* \"#utility.yul\":235:239   */\n  0x11\n    /* \"#utility.yul\":232:233   */\n  0x04\n    /* \"#utility.yul\":225:240   */\n  mstore\n    /* \"#utility.yul\":259:263   */\n  0x24\n    /* \"#utility.yul\":256:257   */\n  0x00\n    /* \"#utility.yul\":249:264   */\n  revert\n    /* \"#utility.yul\":276:467   */\ntag_5:\n    /* \"#utility.yul\":316:319   */\n  0x00\n    /* \"#utility.yul\":335:355   */\n  tag_31\n    /* \"#utility.yul\":353:354   */\n  dup3\n    /* \"#utility.yul\":335:355   */\n  tag_25\n  jump\t// in\ntag_31:\n    /* \"#utility.yul\":330:355   */\n  swap2\n  pop\n    /* \"#utility.yul\":369:389   */\n  tag_32\n    /* \"#utility.yul\":387:388   */\n  dup4\n    /* \"#utility.yul\":369:389   */\n  tag_25\n  jump\t// in\ntag_32:\n    /* \"#utility.yul\":364:389   */\n  swap3\n  pop\n    /* \"#utility.yul\":412:413   */\n  dup3\n    /* \"#utility.yul\":409:410   */\n  dup3\n    /* \"#utility.yul\":405:414   */\n  add\n    /* \"#utility.yul\":398:414   */\n  swap1\n  pop\n    /* \"#utility.yul\":433:436   */\n  dup1\n    /* \"#utility.yul\":430:431   */\n  dup3\n    /* \"#utility.yul\":427:437   */\n  gt\n    /* \"#utility.yul\":424:460   */\n  iszero\n  tag_33\n  jumpi\n    /* \"#utility.yul\":440:458   */\n  tag_34\n  tag_26\n  jump\t// in\ntag_34:\n    /* \"#utility.yul\":424:460   */\ntag_33:\n    /* \"#utility.yul\":276:467   */\n  swap3\n  swap2\n  pop\n  pop\n  jump\t// out\n    /* \"#utility.yul\":473:653   */\ntag_8:\n    /* \"#utility.yul\":521:598   */\n  0x4e487b7100000000000000000000000000000000000000000000000000000000\n    /* \"#utility.yul\":518:519   */\n  0x00\n    /* \"#utility.yul\":511:599   */\n  mstore\n    /* \"#utility.yul\":618:622   */\n  0x41\n    /* \"#utility.yul\":615:616   */\n  0x04\n    /* \"#utility.yul\":608:623   */\n  mstore\n    /* \"#utility.yul\":642:646   */\n  0x24\n    /* \"#utility.yul\":639:640   */\n  0x00\n    /* \"#utility.yul\":632:647   */\n  revert\n    /* \"task1/MergeSortedArray.sol\":57:954  contract MergeSortedArray {... */\ntag_13:\n  dataSize(sub_0)\n  dup1\n  dataOffset(sub_0)\n  0x00\n  codecopy\n  0x00\n  return\nstop\n\nsub_0: assembly {\n        /* \"task1/MergeSortedArray.sol\":57:954  contract MergeSortedArray {... */\n      mstore(0x40, 0x80)\n      callvalue\n      dup1\n      iszero\n      tag_1\n      jumpi\n      0x00\n      dup1\n      revert\n    tag_1:\n      pop\n      jumpi(tag_2, lt(calldatasize, 0x04))\n      shr(0xe0, calldataload(0x00))\n      dup1\n      0x0b65108b\n      eq\n      tag_3\n      jumpi\n      dup1\n      0x47f9c1ac\n      eq\n      tag_4\n      jumpi\n      dup1\n      0x8732ded8\n      eq\n      tag_5\n      jumpi\n    tag_2:\n      0x00\n      dup1\n      revert\n        /* \"task1/MergeSortedArray.sol\":229:860  function merge() public returns (uint256[] memory){... */\n    tag_3:\n      tag_6\n      tag_7\n      jump\t// in\n    tag_6:\n      mload(0x40)\n      tag_8\n      swap2\n      swap1\n      tag_9\n      jump\t// in\n    tag_8:\n      mload(0x40)\n      dup1\n      swap2\n      sub\n      swap1\n      return\n        /* \"task1/MergeSortedArray.sol\":866:951  function getArr3() public view returns (uint256[] memory){... */\n    tag_4:\n      tag_10\n      tag_11\n      jump\t// in\n    tag_10:\n      mload(0x40)\n      tag_12\n      swap2\n      swap1\n      tag_9\n      jump\t// in\n    tag_12:\n      mload(0x40)\n      dup1\n      swap2\n      sub\n      swap1\n      return\n        /* \"task1/MergeSortedArray.sol\":157:221  uint256[] public arr3 = new uint256[](arr1.length + arr2.length) */\n    tag_5:\n      tag_13\n      0x04\n      dup1\n      calldatasize\n      sub\n      dup2\n      add\n      swap1\n      tag_14\n      swap2\n      swap1\n      tag_15\n      jump\t// in\n    tag_14:\n      tag_16\n      jump\t// in\n    tag_13:\n      mload(0x40)\n      tag_17\n      swap2\n      swap1\n      tag_18\n      jump\t// in\n    tag_17:\n      mload(0x40)\n      dup1\n      swap2\n      sub\n      swap1\n      return\n        /* \"task1/MergeSortedArray.sol\":229:860  function merge() public returns (uint256[] memory){... */\n    tag_7:\n        /* \"task1/MergeSortedArray.sol\":262:278  uint256[] memory */\n      0x60\n        /* \"task1/MergeSortedArray.sol\":289:298  uint256 i */\n      0x00\n        /* \"task1/MergeSortedArray.sol\":312:321  uint256 j */\n      dup1\n        /* \"task1/MergeSortedArray.sol\":335:344  uint256 k */\n      0x00\n        /* \"task1/MergeSortedArray.sol\":359:614  while (i < arr1.length && j < arr2.length) {... */\n    tag_20:\n        /* \"task1/MergeSortedArray.sol\":370:374  arr1 */\n      0x00\n        /* \"task1/MergeSortedArray.sol\":370:381  arr1.length */\n      dup1\n      sload\n      swap1\n      pop\n        /* \"task1/MergeSortedArray.sol\":366:367  i */\n      dup4\n        /* \"task1/MergeSortedArray.sol\":366:381  i < arr1.length */\n      lt\n        /* \"task1/MergeSortedArray.sol\":366:400  i < arr1.length && j < arr2.length */\n      dup1\n      iszero\n      tag_22\n      jumpi\n      pop\n        /* \"task1/MergeSortedArray.sol\":389:393  arr2 */\n      0x01\n        /* \"task1/MergeSortedArray.sol\":389:400  arr2.length */\n      dup1\n      sload\n      swap1\n      pop\n        /* \"task1/MergeSortedArray.sol\":385:386  j */\n      dup3\n        /* \"task1/MergeSortedArray.sol\":385:400  j < arr2.length */\n      lt\n        /* \"task1/MergeSortedArray.sol\":366:400  i < arr1.length && j < arr2.length */\n    tag_22:\n        /* \"task1/MergeSortedArray.sol\":359:614  while (i < arr1.length && j < arr2.length) {... */\n      iszero\n      tag_21\n      jumpi\n        /* \"task1/MergeSortedArray.sol\":430:434  arr2 */\n      0x01\n        /* \"task1/MergeSortedArray.sol\":435:436  j */\n      dup3\n        /* \"task1/MergeSortedArray.sol\":430:437  arr2[j] */\n      dup2\n      sload\n      dup2\n      lt\n      tag_23\n      jumpi\n      tag_24\n      tag_25\n      jump\t// in\n    tag_24:\n    tag_23:\n      swap1\n      0x00\n      mstore\n      keccak256(0x00, 0x20)\n      add\n      sload\n        /* \"task1/MergeSortedArray.sol\":420:424  arr1 */\n      0x00\n        /* \"task1/MergeSortedArray.sol\":425:426  i */\n      dup5\n        /* \"task1/MergeSortedArray.sol\":420:427  arr1[i] */\n      dup2\n      sload\n      dup2\n      lt\n      tag_27\n      jumpi\n      tag_28\n      tag_25\n      jump\t// in\n    tag_28:\n    tag_27:\n      swap1\n      0x00\n      mstore\n      keccak256(0x00, 0x20)\n      add\n      sload\n        /* \"task1/MergeSortedArray.sol\":420:437  arr1[i] < arr2[j] */\n      lt\n        /* \"task1/MergeSortedArray.sol\":416:587  if (arr1[i] < arr2[j]) {... */\n      iszero\n      tag_30\n      jumpi\n        /* \"task1/MergeSortedArray.sol\":467:471  arr1 */\n      0x00\n        /* \"task1/MergeSortedArray.sol\":472:473  i */\n      dup4\n        /* \"task1/MergeSortedArray.sol\":467:474  arr1[i] */\n      dup2\n      sload\n      dup2\n      lt\n      tag_31\n      jumpi\n      tag_32\n      tag_25\n      jump\t// in\n    tag_32:\n    tag_31:\n      swap1\n      0x00\n      mstore\n      keccak256(0x00, 0x20)\n      add\n      sload\n        /* \"task1/MergeSortedArray.sol\":457:461  arr3 */\n      0x02\n        /* \"task1/MergeSortedArray.sol\":462:463  k */\n      dup3\n        /* \"task1/MergeSortedArray.sol\":457:464  arr3[k] */\n      dup2\n      sload\n      dup2\n      lt\n      tag_34\n      jumpi\n      tag_35\n      tag_25\n      jump\t// in\n    tag_35:\n    tag_34:\n      swap1\n      0x00\n      mstore\n      keccak256(0x00, 0x20)\n      add\n        /* \"task1/MergeSortedArray.sol\":457:474  arr3[k] = arr1[i] */\n      dup2\n      swap1\n      sstore\n      pop\n        /* \"task1/MergeSortedArray.sol\":492:495  i++ */\n      dup3\n      dup1\n      tag_37\n      swap1\n      tag_38\n      jump\t// in\n    tag_37:\n      swap4\n      pop\n      pop\n        /* \"task1/MergeSortedArray.sol\":416:587  if (arr1[i] < arr2[j]) {... */\n      jump(tag_39)\n    tag_30:\n        /* \"task1/MergeSortedArray.sol\":544:548  arr2 */\n      0x01\n        /* \"task1/MergeSortedArray.sol\":549:550  j */\n      dup3\n        /* \"task1/MergeSortedArray.sol\":544:551  arr2[j] */\n      dup2\n      sload\n      dup2\n      lt\n      tag_40\n      jumpi\n      tag_41\n      tag_25\n      jump\t// in\n    tag_41:\n    tag_40:\n      swap1\n      0x00\n      mstore\n      keccak256(0x00, 0x20)\n      add\n      sload\n        /* \"task1/MergeSortedArray.sol\":534:538  arr3 */\n      0x02\n        /* \"task1/MergeSortedArray.sol\":539:540  k */\n      dup3\n        /* \"task1/MergeSortedArray.sol\":534:541  arr3[k] */\n      dup2\n      sload\n      dup2\n      lt\n      tag_43\n      jumpi\n      tag_44\n      tag_25\n      jump\t// in\n    tag_44:\n    tag_43:\n      swap1\n      0x00\n      mstore\n      keccak256(0x00, 0x20)\n      add\n        /* \"task1/MergeSortedArray.sol\":534:551  arr3[k] = arr2[j] */\n      dup2\n      swap1\n      sstore\n      pop\n        /* \"task1/MergeSortedArray.sol\":569:572  j++ */\n      dup2\n      dup1\n      tag_46\n      swap1\n      tag_38\n      jump\t// in\n    tag_46:\n      swap3\n      pop\n      pop\n        /* \"task1/MergeSortedArray.sol\":416:587  if (arr1[i] < arr2[j]) {... */\n    tag_39:\n        /* \"task1/MergeSortedArray.sol\":600:603  k++ */\n      dup1\n      dup1\n      tag_47\n      swap1\n      tag_38\n      jump\t// in\n    tag_47:\n      swap2\n      pop\n      pop\n        /* \"task1/MergeSortedArray.sol\":359:614  while (i < arr1.length && j < arr2.length) {... */\n      jump(tag_20)\n    tag_21:\n        /* \"task1/MergeSortedArray.sol\":623:723  while (i < arr1.length) {... */\n    tag_48:\n        /* \"task1/MergeSortedArray.sol\":634:638  arr1 */\n      0x00\n        /* \"task1/MergeSortedArray.sol\":634:645  arr1.length */\n      dup1\n      sload\n      swap1\n      pop\n        /* \"task1/MergeSortedArray.sol\":630:631  i */\n      dup4\n        /* \"task1/MergeSortedArray.sol\":630:645  i < arr1.length */\n      lt\n        /* \"task1/MergeSortedArray.sol\":623:723  while (i < arr1.length) {... */\n      iszero\n      tag_49\n      jumpi\n        /* \"task1/MergeSortedArray.sol\":671:675  arr1 */\n      0x00\n        /* \"task1/MergeSortedArray.sol\":676:677  i */\n      dup4\n        /* \"task1/MergeSortedArray.sol\":671:678  arr1[i] */\n      dup2\n      sload\n      dup2\n      lt\n      tag_50\n      jumpi\n      tag_51\n      tag_25\n      jump\t// in\n    tag_51:\n    tag_50:\n      swap1\n      0x00\n      mstore\n      keccak256(0x00, 0x20)\n      add\n      sload\n        /* \"task1/MergeSortedArray.sol\":661:665  arr3 */\n      0x02\n        /* \"task1/MergeSortedArray.sol\":666:667  k */\n      dup3\n        /* \"task1/MergeSortedArray.sol\":661:668  arr3[k] */\n      dup2\n      sload\n      dup2\n      lt\n      tag_53\n      jumpi\n      tag_54\n      tag_25\n      jump\t// in\n    tag_54:\n    tag_53:\n      swap1\n      0x00\n      mstore\n      keccak256(0x00, 0x20)\n      add\n        /* \"task1/MergeSortedArray.sol\":661:678  arr3[k] = arr1[i] */\n      dup2\n      swap1\n      sstore\n      pop\n        /* \"task1/MergeSortedArray.sol\":692:695  i++ */\n      dup3\n      dup1\n      tag_56\n      swap1\n      tag_38\n      jump\t// in\n    tag_56:\n      swap4\n      pop\n      pop\n        /* \"task1/MergeSortedArray.sol\":709:712  k++ */\n      dup1\n      dup1\n      tag_57\n      swap1\n      tag_38\n      jump\t// in\n    tag_57:\n      swap2\n      pop\n      pop\n        /* \"task1/MergeSortedArray.sol\":623:723  while (i < arr1.length) {... */\n      jump(tag_48)\n    tag_49:\n        /* \"task1/MergeSortedArray.sol\":732:832  while (j < arr2.length) {... */\n    tag_58:\n        /* \"task1/MergeSortedArray.sol\":743:747  arr2 */\n      0x01\n        /* \"task1/MergeSortedArray.sol\":743:754  arr2.length */\n      dup1\n      sload\n      swap1\n      pop\n        /* \"task1/MergeSortedArray.sol\":739:740  j */\n      dup3\n        /* \"task1/MergeSortedArray.sol\":739:754  j < arr2.length */\n      lt\n        /* \"task1/MergeSortedArray.sol\":732:832  while (j < arr2.length) {... */\n      iszero\n      tag_59\n      jumpi\n        /* \"task1/MergeSortedArray.sol\":780:784  arr2 */\n      0x01\n        /* \"task1/MergeSortedArray.sol\":785:786  j */\n      dup3\n        /* \"task1/MergeSortedArray.sol\":780:787  arr2[j] */\n      dup2\n      sload\n      dup2\n      lt\n      tag_60\n      jumpi\n      tag_61\n      tag_25\n      jump\t// in\n    tag_61:\n    tag_60:\n      swap1\n      0x00\n      mstore\n      keccak256(0x00, 0x20)\n      add\n      sload\n        /* \"task1/MergeSortedArray.sol\":770:774  arr3 */\n      0x02\n        /* \"task1/MergeSortedArray.sol\":775:776  k */\n      dup3\n        /* \"task1/MergeSortedArray.sol\":770:777  arr3[k] */\n      dup2\n      sload\n      dup2\n      lt\n      tag_63\n      jumpi\n      tag_64\n      tag_25\n      jump\t// in\n    tag_64:\n    tag_63:\n      swap1\n      0x00\n      mstore\n      keccak256(0x00, 0x20)\n      add\n        /* \"task1/MergeSortedArray.sol\":770:787  arr3[k] = arr2[j] */\n      dup2\n      swap1\n      sstore\n      pop\n        /* \"task1/MergeSortedArray.sol\":801:804  j++ */\n      dup2\n      dup1\n      tag_66\n      swap1\n      tag_38\n      jump\t// in\n    tag_66:\n      swap3\n      pop\n      pop\n        /* \"task1/MergeSortedArray.sol\":818:821  k++ */\n      dup1\n      dup1\n      tag_67\n      swap1\n      tag_38\n      jump\t// in\n    tag_67:\n      swap2\n      pop\n      pop\n        /* \"task1/MergeSortedArray.sol\":732:832  while (j < arr2.length) {... */\n      jump(tag_58)\n    tag_59:\n        /* \"task1/MergeSortedArray.sol\":849:853  arr3 */\n      0x02\n        /* \"task1/MergeSortedArray.sol\":842:853  return arr3 */\n      dup1\n      sload\n      dup1\n      0x20\n      mul\n      0x20\n      add\n      mload(0x40)\n      swap1\n      dup2\n      add\n      0x40\n      mstore\n      dup1\n      swap3\n      swap2\n      swap1\n      dup2\n      dup2\n      mstore\n      0x20\n      add\n      dup3\n      dup1\n      sload\n      dup1\n      iszero\n      tag_68\n      jumpi\n      0x20\n      mul\n      dup3\n      add\n      swap2\n      swap1\n      0x00\n      mstore\n      keccak256(0x00, 0x20)\n      swap1\n    tag_69:\n      dup2\n      sload\n      dup2\n      mstore\n      0x20\n      add\n      swap1\n      0x01\n      add\n      swap1\n      dup1\n      dup4\n      gt\n      tag_69\n      jumpi\n    tag_68:\n      pop\n      pop\n      pop\n      pop\n      pop\n      swap4\n      pop\n      pop\n      pop\n      pop\n        /* \"task1/MergeSortedArray.sol\":229:860  function merge() public returns (uint256[] memory){... */\n      swap1\n      jump\t// out\n        /* \"task1/MergeSortedArray.sol\":866:951  function getArr3() public view returns (uint256[] memory){... */\n    tag_11:\n        /* \"task1/MergeSortedArray.sol\":906:922  uint256[] memory */\n      0x60\n        /* \"task1/MergeSortedArray.sol\":940:944  arr3 */\n      0x02\n        /* \"task1/MergeSortedArray.sol\":933:944  return arr3 */\n      dup1\n      sload\n      dup1\n      0x20\n      mul\n      0x20\n      add\n      mload(0x40)\n      swap1\n      dup2\n      add\n      0x40\n      mstore\n      dup1\n      swap3\n      swap2\n      swap1\n      dup2\n      dup2\n      mstore\n      0x20\n      add\n      dup3\n      dup1\n      sload\n      dup1\n      iszero\n      tag_71\n      jumpi\n      0x20\n      mul\n      dup3\n      add\n      swap2\n      swap1\n      0x00\n      mstore\n      keccak256(0x00, 0x20)\n      swap1\n    tag_72:\n      dup2\n      sload\n      dup2\n      mstore\n      0x20\n      add\n      swap1\n      0x01\n      add\n      swap1\n      dup1\n      dup4\n      gt\n      tag_72\n      jumpi\n    tag_71:\n      pop\n      pop\n      pop\n      pop\n      pop\n      swap1\n      pop\n        /* \"task1/MergeSortedArray.sol\":866:951  function getArr3() public view returns (uint256[] memory){... */\n      swap1\n      jump\t// out\n        /* \"task1/MergeSortedArray.sol\":157:221  uint256[] public arr3 = new uint256[](arr1.length + arr2.length) */\n    tag_16:\n      0x02\n      dup2\n      dup2\n      sload\n      dup2\n      lt\n      tag_73\n      jumpi\n      0x00\n      dup1\n      revert\n    tag_73:\n      swap1\n      0x00\n      mstore\n      keccak256(0x00, 0x20)\n      add\n      0x00\n      swap2\n      pop\n      swap1\n      pop\n      sload\n      dup2\n      jump\t// out\n        /* \"#utility.yul\":7:121   */\n    tag_75:\n        /* \"#utility.yul\":74:80   */\n      0x00\n        /* \"#utility.yul\":108:113   */\n      dup2\n        /* \"#utility.yul\":102:114   */\n      mload\n        /* \"#utility.yul\":92:114   */\n      swap1\n      pop\n        /* \"#utility.yul\":7:121   */\n      swap2\n      swap1\n      pop\n      jump\t// out\n        /* \"#utility.yul\":127:311   */\n    tag_76:\n        /* \"#utility.yul\":226:237   */\n      0x00\n        /* \"#utility.yul\":260:266   */\n      dup3\n        /* \"#utility.yul\":255:258   */\n      dup3\n        /* \"#utility.yul\":248:267   */\n      mstore\n        /* \"#utility.yul\":300:304   */\n      0x20\n        /* \"#utility.yul\":295:298   */\n      dup3\n        /* \"#utility.yul\":291:305   */\n      add\n        /* \"#utility.yul\":276:305   */\n      swap1\n      pop\n        /* \"#utility.yul\":127:311   */\n      swap3\n      swap2\n      pop\n      pop\n      jump\t// out\n        /* \"#utility.yul\":317:449   */\n    tag_77:\n        /* \"#utility.yul\":384:388   */\n      0x00\n        /* \"#utility.yul\":407:410   */\n      dup2\n        /* \"#utility.yul\":399:410   */\n      swap1\n      pop\n        /* \"#utility.yul\":437:441   */\n      0x20\n        /* \"#utility.yul\":432:435   */\n      dup3\n        /* \"#utility.yul\":428:442   */\n      add\n        /* \"#utility.yul\":420:442   */\n      swap1\n      pop\n        /* \"#utility.yul\":317:449   */\n      swap2\n      swap1\n      pop\n      jump\t// out\n        /* \"#utility.yul\":455:532   */\n    tag_78:\n        /* \"#utility.yul\":492:499   */\n      0x00\n        /* \"#utility.yul\":521:526   */\n      dup2\n        /* \"#utility.yul\":510:526   */\n      swap1\n      pop\n        /* \"#utility.yul\":455:532   */\n      swap2\n      swap1\n      pop\n      jump\t// out\n        /* \"#utility.yul\":538:646   */\n    tag_79:\n        /* \"#utility.yul\":615:639   */\n      tag_96\n        /* \"#utility.yul\":633:638   */\n      dup2\n        /* \"#utility.yul\":615:639   */\n      tag_78\n      jump\t// in\n    tag_96:\n        /* \"#utility.yul\":610:613   */\n      dup3\n        /* \"#utility.yul\":603:640   */\n      mstore\n        /* \"#utility.yul\":538:646   */\n      pop\n      pop\n      jump\t// out\n        /* \"#utility.yul\":652:831   */\n    tag_80:\n        /* \"#utility.yul\":721:731   */\n      0x00\n        /* \"#utility.yul\":742:788   */\n      tag_98\n        /* \"#utility.yul\":784:787   */\n      dup4\n        /* \"#utility.yul\":776:782   */\n      dup4\n        /* \"#utility.yul\":742:788   */\n      tag_79\n      jump\t// in\n    tag_98:\n        /* \"#utility.yul\":820:824   */\n      0x20\n        /* \"#utility.yul\":815:818   */\n      dup4\n        /* \"#utility.yul\":811:825   */\n      add\n        /* \"#utility.yul\":797:825   */\n      swap1\n      pop\n        /* \"#utility.yul\":652:831   */\n      swap3\n      swap2\n      pop\n      pop\n      jump\t// out\n        /* \"#utility.yul\":837:950   */\n    tag_81:\n        /* \"#utility.yul\":907:911   */\n      0x00\n        /* \"#utility.yul\":939:943   */\n      0x20\n        /* \"#utility.yul\":934:937   */\n      dup3\n        /* \"#utility.yul\":930:944   */\n      add\n        /* \"#utility.yul\":922:944   */\n      swap1\n      pop\n        /* \"#utility.yul\":837:950   */\n      swap2\n      swap1\n      pop\n      jump\t// out\n        /* \"#utility.yul\":986:1718   */\n    tag_82:\n        /* \"#utility.yul\":1105:1108   */\n      0x00\n        /* \"#utility.yul\":1134:1188   */\n      tag_101\n        /* \"#utility.yul\":1182:1187   */\n      dup3\n        /* \"#utility.yul\":1134:1188   */\n      tag_75\n      jump\t// in\n    tag_101:\n        /* \"#utility.yul\":1204:1290   */\n      tag_102\n        /* \"#utility.yul\":1283:1289   */\n      dup2\n        /* \"#utility.yul\":1278:1281   */\n      dup6\n        /* \"#utility.yul\":1204:1290   */\n      tag_76\n      jump\t// in\n    tag_102:\n        /* \"#utility.yul\":1197:1290   */\n      swap4\n      pop\n        /* \"#utility.yul\":1314:1370   */\n      tag_103\n        /* \"#utility.yul\":1364:1369   */\n      dup4\n        /* \"#utility.yul\":1314:1370   */\n      tag_77\n      jump\t// in\n    tag_103:\n        /* \"#utility.yul\":1393:1400   */\n      dup1\n        /* \"#utility.yul\":1424:1425   */\n      0x00\n        /* \"#utility.yul\":1409:1693   */\n    tag_104:\n        /* \"#utility.yul\":1434:1440   */\n      dup4\n        /* \"#utility.yul\":1431:1432   */\n      dup2\n        /* \"#utility.yul\":1428:1441   */\n      lt\n        /* \"#utility.yul\":1409:1693   */\n      iszero\n      tag_106\n      jumpi\n        /* \"#utility.yul\":1510:1516   */\n      dup2\n        /* \"#utility.yul\":1504:1517   */\n      mload\n        /* \"#utility.yul\":1537:1600   */\n      tag_107\n        /* \"#utility.yul\":1596:1599   */\n      dup9\n        /* \"#utility.yul\":1581:1594   */\n      dup3\n        /* \"#utility.yul\":1537:1600   */\n      tag_80\n      jump\t// in\n    tag_107:\n        /* \"#utility.yul\":1530:1600   */\n      swap8\n      pop\n        /* \"#utility.yul\":1623:1683   */\n      tag_108\n        /* \"#utility.yul\":1676:1682   */\n      dup4\n        /* \"#utility.yul\":1623:1683   */\n      tag_81\n      jump\t// in\n    tag_108:\n        /* \"#utility.yul\":1613:1683   */\n      swap3\n      pop\n        /* \"#utility.yul\":1469:1693   */\n      pop\n        /* \"#utility.yul\":1456:1457   */\n      0x01\n        /* \"#utility.yul\":1453:1454   */\n      dup2\n        /* \"#utility.yul\":1449:1458   */\n      add\n        /* \"#utility.yul\":1444:1458   */\n      swap1\n      pop\n        /* \"#utility.yul\":1409:1693   */\n      jump(tag_104)\n    tag_106:\n        /* \"#utility.yul\":1413:1427   */\n      pop\n        /* \"#utility.yul\":1709:1712   */\n      dup6\n        /* \"#utility.yul\":1702:1712   */\n      swap4\n      pop\n        /* \"#utility.yul\":1110:1718   */\n      pop\n      pop\n      pop\n        /* \"#utility.yul\":986:1718   */\n      swap3\n      swap2\n      pop\n      pop\n      jump\t// out\n        /* \"#utility.yul\":1724:2097   */\n    tag_9:\n        /* \"#utility.yul\":1867:1871   */\n      0x00\n        /* \"#utility.yul\":1905:1907   */\n      0x20\n        /* \"#utility.yul\":1894:1903   */\n      dup3\n        /* \"#utility.yul\":1890:1908   */\n      add\n        /* \"#utility.yul\":1882:1908   */\n      swap1\n      pop\n        /* \"#utility.yul\":1954:1963   */\n      dup2\n        /* \"#utility.yul\":1948:1952   */\n      dup2\n        /* \"#utility.yul\":1944:1964   */\n      sub\n        /* \"#utility.yul\":1940:1941   */\n      0x00\n        /* \"#utility.yul\":1929:1938   */\n      dup4\n        /* \"#utility.yul\":1925:1942   */\n      add\n        /* \"#utility.yul\":1918:1965   */\n      mstore\n        /* \"#utility.yul\":1982:2090   */\n      tag_110\n        /* \"#utility.yul\":2085:2089   */\n      dup2\n        /* \"#utility.yul\":2076:2082   */\n      dup5\n        /* \"#utility.yul\":1982:2090   */\n      tag_82\n      jump\t// in\n    tag_110:\n        /* \"#utility.yul\":1974:2090   */\n      swap1\n      pop\n        /* \"#utility.yul\":1724:2097   */\n      swap3\n      swap2\n      pop\n      pop\n      jump\t// out\n        /* \"#utility.yul\":2184:2301   */\n    tag_84:\n        /* \"#utility.yul\":2293:2294   */\n      0x00\n        /* \"#utility.yul\":2290:2291   */\n      dup1\n        /* \"#utility.yul\":2283:2295   */\n      revert\n        /* \"#utility.yul\":2430:2552   */\n    tag_86:\n        /* \"#utility.yul\":2503:2527   */\n      tag_115\n        /* \"#utility.yul\":2521:2526   */\n      dup2\n        /* \"#utility.yul\":2503:2527   */\n      tag_78\n      jump\t// in\n    tag_115:\n        /* \"#utility.yul\":2496:2501   */\n      dup2\n        /* \"#utility.yul\":2493:2528   */\n      eq\n        /* \"#utility.yul\":2483:2546   */\n      tag_116\n      jumpi\n        /* \"#utility.yul\":2542:2543   */\n      0x00\n        /* \"#utility.yul\":2539:2540   */\n      dup1\n        /* \"#utility.yul\":2532:2544   */\n      revert\n        /* \"#utility.yul\":2483:2546   */\n    tag_116:\n        /* \"#utility.yul\":2430:2552   */\n      pop\n      jump\t// out\n        /* \"#utility.yul\":2558:2697   */\n    tag_87:\n        /* \"#utility.yul\":2604:2609   */\n      0x00\n        /* \"#utility.yul\":2642:2648   */\n      dup2\n        /* \"#utility.yul\":2629:2649   */\n      calldataload\n        /* \"#utility.yul\":2620:2649   */\n      swap1\n      pop\n        /* \"#utility.yul\":2658:2691   */\n      tag_118\n        /* \"#utility.yul\":2685:2690   */\n      dup2\n        /* \"#utility.yul\":2658:2691   */\n      tag_86\n      jump\t// in\n    tag_118:\n        /* \"#utility.yul\":2558:2697   */\n      swap3\n      swap2\n      pop\n      pop\n      jump\t// out\n        /* \"#utility.yul\":2703:3032   */\n    tag_15:\n        /* \"#utility.yul\":2762:2768   */\n      0x00\n        /* \"#utility.yul\":2811:2813   */\n      0x20\n        /* \"#utility.yul\":2799:2808   */\n      dup3\n        /* \"#utility.yul\":2790:2797   */\n      dup5\n        /* \"#utility.yul\":2786:2809   */\n      sub\n        /* \"#utility.yul\":2782:2814   */\n      slt\n        /* \"#utility.yul\":2779:2898   */\n      iszero\n      tag_120\n      jumpi\n        /* \"#utility.yul\":2817:2896   */\n      tag_121\n      tag_84\n      jump\t// in\n    tag_121:\n        /* \"#utility.yul\":2779:2898   */\n    tag_120:\n        /* \"#utility.yul\":2937:2938   */\n      0x00\n        /* \"#utility.yul\":2962:3015   */\n      tag_122\n        /* \"#utility.yul\":3007:3014   */\n      dup5\n        /* \"#utility.yul\":2998:3004   */\n      dup3\n        /* \"#utility.yul\":2987:2996   */\n      dup6\n        /* \"#utility.yul\":2983:3005   */\n      add\n        /* \"#utility.yul\":2962:3015   */\n      tag_87\n      jump\t// in\n    tag_122:\n        /* \"#utility.yul\":2952:3015   */\n      swap2\n      pop\n        /* \"#utility.yul\":2908:3025   */\n      pop\n        /* \"#utility.yul\":2703:3032   */\n      swap3\n      swap2\n      pop\n      pop\n      jump\t// out\n        /* \"#utility.yul\":3038:3156   */\n    tag_88:\n        /* \"#utility.yul\":3125:3149   */\n      tag_124\n        /* \"#utility.yul\":3143:3148   */\n      dup2\n        /* \"#utility.yul\":3125:3149   */\n      tag_78\n      jump\t// in\n    tag_124:\n        /* \"#utility.yul\":3120:3123   */\n      dup3\n        /* \"#utility.yul\":3113:3150   */\n      mstore\n        /* \"#utility.yul\":3038:3156   */\n      pop\n      pop\n      jump\t// out\n        /* \"#utility.yul\":3162:3384   */\n    tag_18:\n        /* \"#utility.yul\":3255:3259   */\n      0x00\n        /* \"#utility.yul\":3293:3295   */\n      0x20\n        /* \"#utility.yul\":3282:3291   */\n      dup3\n        /* \"#utility.yul\":3278:3296   */\n      add\n        /* \"#utility.yul\":3270:3296   */\n      swap1\n      pop\n        /* \"#utility.yul\":3306:3377   */\n      tag_126\n        /* \"#utility.yul\":3374:3375   */\n      0x00\n        /* \"#utility.yul\":3363:3372   */\n      dup4\n        /* \"#utility.yul\":3359:3376   */\n      add\n        /* \"#utility.yul\":3350:3356   */\n      dup5\n        /* \"#utility.yul\":3306:3377   */\n      tag_88\n      jump\t// in\n    tag_126:\n        /* \"#utility.yul\":3162:3384   */\n      swap3\n      swap2\n      pop\n      pop\n      jump\t// out\n        /* \"#utility.yul\":3390:3570   */\n    tag_25:\n        /* \"#utility.yul\":3438:3515   */\n      0x4e487b7100000000000000000000000000000000000000000000000000000000\n        /* \"#utility.yul\":3435:3436   */\n      0x00\n        /* \"#utility.yul\":3428:3516   */\n      mstore\n        /* \"#utility.yul\":3535:3539   */\n      0x32\n        /* \"#utility.yul\":3532:3533   */\n      0x04\n        /* \"#utility.yul\":3525:3540   */\n      mstore\n        /* \"#utility.yul\":3559:3563   */\n      0x24\n        /* \"#utility.yul\":3556:3557   */\n      0x00\n        /* \"#utility.yul\":3549:3564   */\n      revert\n        /* \"#utility.yul\":3576:3756   */\n    tag_89:\n        /* \"#utility.yul\":3624:3701   */\n      0x4e487b7100000000000000000000000000000000000000000000000000000000\n        /* \"#utility.yul\":3621:3622   */\n      0x00\n        /* \"#utility.yul\":3614:3702   */\n      mstore\n        /* \"#utility.yul\":3721:3725   */\n      0x11\n        /* \"#utility.yul\":3718:3719   */\n      0x04\n        /* \"#utility.yul\":3711:3726   */\n      mstore\n        /* \"#utility.yul\":3745:3749   */\n      0x24\n        /* \"#utility.yul\":3742:3743   */\n      0x00\n        /* \"#utility.yul\":3735:3750   */\n      revert\n        /* \"#utility.yul\":3762:3995   */\n    tag_38:\n        /* \"#utility.yul\":3801:3804   */\n      0x00\n        /* \"#utility.yul\":3824:3848   */\n      tag_130\n        /* \"#utility.yul\":3842:3847   */\n      dup3\n        /* \"#utility.yul\":3824:3848   */\n      tag_78\n      jump\t// in\n    tag_130:\n        /* \"#utility.yul\":3815:3848   */\n      swap2\n      pop\n        /* \"#utility.yul\":3870:3936   */\n      0xffffffffffffffffffffffffffffffffffffffffffffffffffffffffffffffff\n        /* \"#utility.yul\":3863:3868   */\n      dup3\n        /* \"#utility.yul\":3860:3937   */\n      sub\n        /* \"#utility.yul\":3857:3960   */\n      tag_131\n      jumpi\n        /* \"#utility.yul\":3940:3958   */\n      tag_132\n      tag_89\n      jump\t// in\n    tag_132:\n        /* \"#utility.yul\":3857:3960   */\n    tag_131:\n        /* \"#utility.yul\":3987:3988   */\n      0x01\n        /* \"#utility.yul\":3980:3985   */\n      dup3\n        /* \"#utility.yul\":3976:3989   */\n      add\n        /* \"#utility.yul\":3969:3989   */\n      swap1\n      pop\n        /* \"#utility.yul\":3762:3995   */\n      swap2\n      swap1\n      pop\n      jump\t// out\n\n    auxdata: 0xa264697066735822122047bcabeade2a198eaae4c0235ea36804c13ab006ce037cd05c6358168b25173764736f6c634300081a0033\n}\n",
				"bytecode": {
					"linkReferences": {},
					"object": "60806040526040518060a00160405280600160ff168152602001600360ff168152602001600460ff168152602001600560ff168152602001600660ff168152505f90600561004e92919061011f565b506040518060a00160405280600260ff168152602001600460ff168152602001600560ff168152602001600760ff168152602001600860ff16815250600190600561009a92919061011f565b506001805490505f805490506100b0919061020b565b67ffffffffffffffff8111156100c9576100c861023e565b5b6040519080825280602002602001820160405280156100f75781602001602082028036833780820191505090505b506002908051906020019061010d92919061016f565b50348015610119575f80fd5b5061026b565b828054828255905f5260205f2090810192821561015e579160200282015b8281111561015d578251829060ff1690559160200191906001019061013d565b5b50905061016b91906101ba565b5090565b828054828255905f5260205f209081019282156101a9579160200282015b828111156101a857825182559160200191906001019061018d565b5b5090506101b691906101ba565b5090565b5b808211156101d1575f815f9055506001016101bb565b5090565b5f819050919050565b7f4e487b71000000000000000000000000000000000000000000000000000000005f52601160045260245ffd5b5f610215826101d5565b9150610220836101d5565b9250828201905080821115610238576102376101de565b5b92915050565b7f4e487b71000000000000000000000000000000000000000000000000000000005f52604160045260245ffd5b610599806102785f395ff3fe608060405234801561000f575f80fd5b506004361061003f575f3560e01c80630b65108b1461004357806347f9c1ac146100615780638732ded81461007f575b5f80fd5b61004b6100af565b6040516100589190610421565b60405180910390f35b6100696102eb565b6040516100769190610421565b60405180910390f35b6100996004803603810190610094919061046f565b610341565b6040516100a691906104a9565b60405180910390f35b60605f805f5b5f80549050831080156100cc575060018054905082105b156101be57600182815481106100e5576100e46104c2565b5b905f5260205f2001545f8481548110610101576101006104c2565b5b905f5260205f200154101561015f575f8381548110610123576101226104c2565b5b905f5260205f200154600282815481106101405761013f6104c2565b5b905f5260205f20018190555082806101579061051c565b9350506101ab565b60018281548110610173576101726104c2565b5b905f5260205f200154600282815481106101905761018f6104c2565b5b905f5260205f20018190555081806101a79061051c565b9250505b80806101b69061051c565b9150506100b5565b5b5f80549050831015610228575f83815481106101de576101dd6104c2565b5b905f5260205f200154600282815481106101fb576101fa6104c2565b5b905f5260205f20018190555082806102129061051c565b93505080806102209061051c565b9150506101bf565b5b600180549050821015610294576001828154811061024a576102496104c2565b5b905f5260205f20015460028281548110610267576102666104c2565b5b905f5260205f200181905550818061027e9061051c565b925050808061028c9061051c565b915050610229565b60028054806020026020016040519081016040528092919081815260200182805480156102de57602002820191905f5260205f20905b8154815260200190600101908083116102ca575b5050505050935050505090565b6060600280548060200260200160405190810160405280929190818152602001828054801561033757602002820191905f5260205f20905b815481526020019060010190808311610323575b5050505050905090565b60028181548110610350575f80fd5b905f5260205f20015f915090505481565b5f81519050919050565b5f82825260208201905092915050565b5f819050602082019050919050565b5f819050919050565b61039c8161038a565b82525050565b5f6103ad8383610393565b60208301905092915050565b5f602082019050919050565b5f6103cf82610361565b6103d9818561036b565b93506103e48361037b565b805f5b838110156104145781516103fb88826103a2565b9750610406836103b9565b9250506001810190506103e7565b5085935050505092915050565b5f6020820190508181035f83015261043981846103c5565b905092915050565b5f80fd5b61044e8161038a565b8114610458575f80fd5b50565b5f8135905061046981610445565b92915050565b5f6020828403121561048457610483610441565b5b5f6104918482850161045b565b91505092915050565b6104a38161038a565b82525050565b5f6020820190506104bc5f83018461049a565b92915050565b7f4e487b71000000000000000000000000000000000000000000000000000000005f52603260045260245ffd5b7f4e487b71000000000000000000000000000000000000000000000000000000005f52601160045260245ffd5b5f6105268261038a565b91507fffffffffffffffffffffffffffffffffffffffffffffffffffffffffffffffff8203610558576105576104ef565b5b60018201905091905056fea264697066735822122047bcabeade2a198eaae4c0235ea36804c13ab006ce037cd05c6358168b25173764736f6c634300081a0033",
					"opcodes": "PUSH1 0x80 PUSH1 0x40 MSTORE PUSH1 0x40 MLOAD DUP1 PUSH1 0xA0 ADD PUSH1 0x40 MSTORE DUP1 PUSH1 0x1 PUSH1 0xFF AND DUP2 MSTORE PUSH1 0x20 ADD PUSH1 0x3 PUSH1 0xFF AND DUP2 MSTORE PUSH1 0x20 ADD PUSH1 0x4 PUSH1 0xFF AND DUP2 MSTORE PUSH1 0x20 ADD PUSH1 0x5 PUSH1 0xFF AND DUP2 MSTORE PUSH1 0x20 ADD PUSH1 0x6 PUSH1 0xFF AND DUP2 MSTORE POP PUSH0 SWAP1 PUSH1 0x5 PUSH2 0x4E SWAP3 SWAP2 SWAP1 PUSH2 0x11F JUMP JUMPDEST POP PUSH1 0x40 MLOAD DUP1 PUSH1 0xA0 ADD PUSH1 0x40 MSTORE DUP1 PUSH1 0x2 PUSH1 0xFF AND DUP2 MSTORE PUSH1 0x20 ADD PUSH1 0x4 PUSH1 0xFF AND DUP2 MSTORE PUSH1 0x20 ADD PUSH1 0x5 PUSH1 0xFF AND DUP2 MSTORE PUSH1 0x20 ADD PUSH1 0x7 PUSH1 0xFF AND DUP2 MSTORE PUSH1 0x20 ADD PUSH1 0x8 PUSH1 0xFF AND DUP2 MSTORE POP PUSH1 0x1 SWAP1 PUSH1 0x5 PUSH2 0x9A SWAP3 SWAP2 SWAP1 PUSH2 0x11F JUMP JUMPDEST POP PUSH1 0x1 DUP1 SLOAD SWAP1 POP PUSH0 DUP1 SLOAD SWAP1 POP PUSH2 0xB0 SWAP2 SWAP1 PUSH2 0x20B JUMP JUMPDEST PUSH8 0xFFFFFFFFFFFFFFFF DUP2 GT ISZERO PUSH2 0xC9 JUMPI PUSH2 0xC8 PUSH2 0x23E JUMP JUMPDEST JUMPDEST PUSH1 0x40 MLOAD SWAP1 DUP1 DUP3 MSTORE DUP1 PUSH1 0x20 MUL PUSH1 0x20 ADD DUP3 ADD PUSH1 0x40 MSTORE DUP1 ISZERO PUSH2 0xF7 JUMPI DUP2 PUSH1 0x20 ADD PUSH1 0x20 DUP3 MUL DUP1 CALLDATASIZE DUP4 CALLDATACOPY DUP1 DUP3 ADD SWAP2 POP POP SWAP1 POP JUMPDEST POP PUSH1 0x2 SWAP1 DUP1 MLOAD SWAP1 PUSH1 0x20 ADD SWAP1 PUSH2 0x10D SWAP3 SWAP2 SWAP1 PUSH2 0x16F JUMP JUMPDEST POP CALLVALUE DUP1 ISZERO PUSH2 0x119 JUMPI PUSH0 DUP1 REVERT JUMPDEST POP PUSH2 0x26B JUMP JUMPDEST DUP3 DUP1 SLOAD DUP3 DUP3 SSTORE SWAP1 PUSH0 MSTORE PUSH1 0x20 PUSH0 KECCAK256 SWAP1 DUP2 ADD SWAP3 DUP3 ISZERO PUSH2 0x15E JUMPI SWAP2 PUSH1 0x20 MUL DUP3 ADD JUMPDEST DUP3 DUP2 GT ISZERO PUSH2 0x15D JUMPI DUP3 MLOAD DUP3 SWAP1 PUSH1 0xFF AND SWAP1 SSTORE SWAP2 PUSH1 0x20 ADD SWAP2 SWAP1 PUSH1 0x1 ADD SWAP1 PUSH2 0x13D JUMP JUMPDEST JUMPDEST POP SWAP1 POP PUSH2 0x16B SWAP2 SWAP1 PUSH2 0x1BA JUMP JUMPDEST POP SWAP1 JUMP JUMPDEST DUP3 DUP1 SLOAD DUP3 DUP3 SSTORE SWAP1 PUSH0 MSTORE PUSH1 0x20 PUSH0 KECCAK256 SWAP1 DUP2 ADD SWAP3 DUP3 ISZERO PUSH2 0x1A9 JUMPI SWAP2 PUSH1 0x20 MUL DUP3 ADD JUMPDEST DUP3 DUP2 GT ISZERO PUSH2 0x1A8 JUMPI DUP3 MLOAD DUP3 SSTORE SWAP2 PUSH1 0x20 ADD SWAP2 SWAP1 PUSH1 0x1 ADD SWAP1 PUSH2 0x18D JUMP JUMPDEST JUMPDEST POP SWAP1 POP PUSH2 0x1B6 SWAP2 SWAP1 PUSH2 0x1BA JUMP JUMPDEST POP SWAP1 JUMP JUMPDEST JUMPDEST DUP1 DUP3 GT ISZERO PUSH2 0x1D1 JUMPI PUSH0 DUP2 PUSH0 SWAP1 SSTORE POP PUSH1 0x1 ADD PUSH2 0x1BB JUMP JUMPDEST POP SWAP1 JUMP JUMPDEST PUSH0 DUP2 SWAP1 POP SWAP2 SWAP1 POP JUMP JUMPDEST PUSH32 0x4E487B7100000000000000000000000000000000000000000000000000000000 PUSH0 MSTORE PUSH1 0x11 PUSH1 0x4 MSTORE PUSH1 0x24 PUSH0 REVERT JUMPDEST PUSH0 PUSH2 0x215 DUP3 PUSH2 0x1D5 JUMP JUMPDEST SWAP2 POP PUSH2 0x220 DUP4 PUSH2 0x1D5 JUMP JUMPDEST SWAP3 POP DUP3 DUP3 ADD SWAP1 POP DUP1 DUP3 GT ISZERO PUSH2 0x238 JUMPI PUSH2 0x237 PUSH2 0x1DE JUMP JUMPDEST JUMPDEST SWAP3 SWAP2 POP POP JUMP JUMPDEST PUSH32 0x4E487B7100000000000000000000000000000000000000000000000000000000 PUSH0 MSTORE PUSH1 0x41 PUSH1 0x4 MSTORE PUSH1 0x24 PUSH0 REVERT JUMPDEST PUSH2 0x599 DUP1 PUSH2 0x278 PUSH0 CODECOPY PUSH0 RETURN INVALID PUSH1 0x80 PUSH1 0x40 MSTORE CALLVALUE DUP1 ISZERO PUSH2 0xF JUMPI PUSH0 DUP1 REVERT JUMPDEST POP PUSH1 0x4 CALLDATASIZE LT PUSH2 0x3F JUMPI PUSH0 CALLDATALOAD PUSH1 0xE0 SHR DUP1 PUSH4 0xB65108B EQ PUSH2 0x43 JUMPI DUP1 PUSH4 0x47F9C1AC EQ PUSH2 0x61 JUMPI DUP1 PUSH4 0x8732DED8 EQ PUSH2 0x7F JUMPI JUMPDEST PUSH0 DUP1 REVERT JUMPDEST PUSH2 0x4B PUSH2 0xAF JUMP JUMPDEST PUSH1 0x40 MLOAD PUSH2 0x58 SWAP2 SWAP1 PUSH2 0x421 JUMP JUMPDEST PUSH1 0x40 MLOAD DUP1 SWAP2 SUB SWAP1 RETURN JUMPDEST PUSH2 0x69 PUSH2 0x2EB JUMP JUMPDEST PUSH1 0x40 MLOAD PUSH2 0x76 SWAP2 SWAP1 PUSH2 0x421 JUMP JUMPDEST PUSH1 0x40 MLOAD DUP1 SWAP2 SUB SWAP1 RETURN JUMPDEST PUSH2 0x99 PUSH1 0x4 DUP1 CALLDATASIZE SUB DUP2 ADD SWAP1 PUSH2 0x94 SWAP2 SWAP1 PUSH2 0x46F JUMP JUMPDEST PUSH2 0x341 JUMP JUMPDEST PUSH1 0x40 MLOAD PUSH2 0xA6 SWAP2 SWAP1 PUSH2 0x4A9 JUMP JUMPDEST PUSH1 0x40 MLOAD DUP1 SWAP2 SUB SWAP1 RETURN JUMPDEST PUSH1 0x60 PUSH0 DUP1 PUSH0 JUMPDEST PUSH0 DUP1 SLOAD SWAP1 POP DUP4 LT DUP1 ISZERO PUSH2 0xCC JUMPI POP PUSH1 0x1 DUP1 SLOAD SWAP1 POP DUP3 LT JUMPDEST ISZERO PUSH2 0x1BE JUMPI PUSH1 0x1 DUP3 DUP2 SLOAD DUP2 LT PUSH2 0xE5 JUMPI PUSH2 0xE4 PUSH2 0x4C2 JUMP JUMPDEST JUMPDEST SWAP1 PUSH0 MSTORE PUSH1 0x20 PUSH0 KECCAK256 ADD SLOAD PUSH0 DUP5 DUP2 SLOAD DUP2 LT PUSH2 0x101 JUMPI PUSH2 0x100 PUSH2 0x4C2 JUMP JUMPDEST JUMPDEST SWAP1 PUSH0 MSTORE PUSH1 0x20 PUSH0 KECCAK256 ADD SLOAD LT ISZERO PUSH2 0x15F JUMPI PUSH0 DUP4 DUP2 SLOAD DUP2 LT PUSH2 0x123 JUMPI PUSH2 0x122 PUSH2 0x4C2 JUMP JUMPDEST JUMPDEST SWAP1 PUSH0 MSTORE PUSH1 0x20 PUSH0 KECCAK256 ADD SLOAD PUSH1 0x2 DUP3 DUP2 SLOAD DUP2 LT PUSH2 0x140 JUMPI PUSH2 0x13F PUSH2 0x4C2 JUMP JUMPDEST JUMPDEST SWAP1 PUSH0 MSTORE PUSH1 0x20 PUSH0 KECCAK256 ADD DUP2 SWAP1 SSTORE POP DUP3 DUP1 PUSH2 0x157 SWAP1 PUSH2 0x51C JUMP JUMPDEST SWAP4 POP POP PUSH2 0x1AB JUMP JUMPDEST PUSH1 0x1 DUP3 DUP2 SLOAD DUP2 LT PUSH2 0x173 JUMPI PUSH2 0x172 PUSH2 0x4C2 JUMP JUMPDEST JUMPDEST SWAP1 PUSH0 MSTORE PUSH1 0x20 PUSH0 KECCAK256 ADD SLOAD PUSH1 0x2 DUP3 DUP2 SLOAD DUP2 LT PUSH2 0x190 JUMPI PUSH2 0x18F PUSH2 0x4C2 JUMP JUMPDEST JUMPDEST SWAP1 PUSH0 MSTORE PUSH1 0x20 PUSH0 KECCAK256 ADD DUP2 SWAP1 SSTORE POP DUP2 DUP1 PUSH2 0x1A7 SWAP1 PUSH2 0x51C JUMP JUMPDEST SWAP3 POP POP JUMPDEST DUP1 DUP1 PUSH2 0x1B6 SWAP1 PUSH2 0x51C JUMP JUMPDEST SWAP2 POP POP PUSH2 0xB5 JUMP JUMPDEST JUMPDEST PUSH0 DUP1 SLOAD SWAP1 POP DUP4 LT ISZERO PUSH2 0x228 JUMPI PUSH0 DUP4 DUP2 SLOAD DUP2 LT PUSH2 0x1DE JUMPI PUSH2 0x1DD PUSH2 0x4C2 JUMP JUMPDEST JUMPDEST SWAP1 PUSH0 MSTORE PUSH1 0x20 PUSH0 KECCAK256 ADD SLOAD PUSH1 0x2 DUP3 DUP2 SLOAD DUP2 LT PUSH2 0x1FB JUMPI PUSH2 0x1FA PUSH2 0x4C2 JUMP JUMPDEST JUMPDEST SWAP1 PUSH0 MSTORE PUSH1 0x20 PUSH0 KECCAK256 ADD DUP2 SWAP1 SSTORE POP DUP3 DUP1 PUSH2 0x212 SWAP1 PUSH2 0x51C JUMP JUMPDEST SWAP4 POP POP DUP1 DUP1 PUSH2 0x220 SWAP1 PUSH2 0x51C JUMP JUMPDEST SWAP2 POP POP PUSH2 0x1BF JUMP JUMPDEST JUMPDEST PUSH1 0x1 DUP1 SLOAD SWAP1 POP DUP3 LT ISZERO PUSH2 0x294 JUMPI PUSH1 0x1 DUP3 DUP2 SLOAD DUP2 LT PUSH2 0x24A JUMPI PUSH2 0x249 PUSH2 0x4C2 JUMP JUMPDEST JUMPDEST SWAP1 PUSH0 MSTORE PUSH1 0x20 PUSH0 KECCAK256 ADD SLOAD PUSH1 0x2 DUP3 DUP2 SLOAD DUP2 LT PUSH2 0x267 JUMPI PUSH2 0x266 PUSH2 0x4C2 JUMP JUMPDEST JUMPDEST SWAP1 PUSH0 MSTORE PUSH1 0x20 PUSH0 KECCAK256 ADD DUP2 SWAP1 SSTORE POP DUP2 DUP1 PUSH2 0x27E SWAP1 PUSH2 0x51C JUMP JUMPDEST SWAP3 POP POP DUP1 DUP1 PUSH2 0x28C SWAP1 PUSH2 0x51C JUMP JUMPDEST SWAP2 POP POP PUSH2 0x229 JUMP JUMPDEST PUSH1 0x2 DUP1 SLOAD DUP1 PUSH1 0x20 MUL PUSH1 0x20 ADD PUSH1 0x40 MLOAD SWAP1 DUP2 ADD PUSH1 0x40 MSTORE DUP1 SWAP3 SWAP2 SWAP1 DUP2 DUP2 MSTORE PUSH1 0x20 ADD DUP3 DUP1 SLOAD DUP1 ISZERO PUSH2 0x2DE JUMPI PUSH1 0x20 MUL DUP3 ADD SWAP2 SWAP1 PUSH0 MSTORE PUSH1 0x20 PUSH0 KECCAK256 SWAP1 JUMPDEST DUP2 SLOAD DUP2 MSTORE PUSH1 0x20 ADD SWAP1 PUSH1 0x1 ADD SWAP1 DUP1 DUP4 GT PUSH2 0x2CA JUMPI JUMPDEST POP POP POP POP POP SWAP4 POP POP POP POP SWAP1 JUMP JUMPDEST PUSH1 0x60 PUSH1 0x2 DUP1 SLOAD DUP1 PUSH1 0x20 MUL PUSH1 0x20 ADD PUSH1 0x40 MLOAD SWAP1 DUP2 ADD PUSH1 0x40 MSTORE DUP1 SWAP3 SWAP2 SWAP1 DUP2 DUP2 MSTORE PUSH1 0x20 ADD DUP3 DUP1 SLOAD DUP1 ISZERO PUSH2 0x337 JUMPI PUSH1 0x20 MUL DUP3 ADD SWAP2 SWAP1 PUSH0 MSTORE PUSH1 0x20 PUSH0 KECCAK256 SWAP1 JUMPDEST DUP2 SLOAD DUP2 MSTORE PUSH1 0x20 ADD SWAP1 PUSH1 0x1 ADD SWAP1 DUP1 DUP4 GT PUSH2 0x323 JUMPI JUMPDEST POP POP POP POP POP SWAP1 POP SWAP1 JUMP JUMPDEST PUSH1 0x2 DUP2 DUP2 SLOAD DUP2 LT PUSH2 0x350 JUMPI PUSH0 DUP1 REVERT JUMPDEST SWAP1 PUSH0 MSTORE PUSH1 0x20 PUSH0 KECCAK256 ADD PUSH0 SWAP2 POP SWAP1 POP SLOAD DUP2 JUMP JUMPDEST PUSH0 DUP2 MLOAD SWAP1 POP SWAP2 SWAP1 POP JUMP JUMPDEST PUSH0 DUP3 DUP3 MSTORE PUSH1 0x20 DUP3 ADD SWAP1 POP SWAP3 SWAP2 POP POP JUMP JUMPDEST PUSH0 DUP2 SWAP1 POP PUSH1 0x20 DUP3 ADD SWAP1 POP SWAP2 SWAP1 POP JUMP JUMPDEST PUSH0 DUP2 SWAP1 POP SWAP2 SWAP1 POP JUMP JUMPDEST PUSH2 0x39C DUP2 PUSH2 0x38A JUMP JUMPDEST DUP3 MSTORE POP POP JUMP JUMPDEST PUSH0 PUSH2 0x3AD DUP4 DUP4 PUSH2 0x393 JUMP JUMPDEST PUSH1 0x20 DUP4 ADD SWAP1 POP SWAP3 SWAP2 POP POP JUMP JUMPDEST PUSH0 PUSH1 0x20 DUP3 ADD SWAP1 POP SWAP2 SWAP1 POP JUMP JUMPDEST PUSH0 PUSH2 0x3CF DUP3 PUSH2 0x361 JUMP JUMPDEST PUSH2 0x3D9 DUP2 DUP6 PUSH2 0x36B JUMP JUMPDEST SWAP4 POP PUSH2 0x3E4 DUP4 PUSH2 0x37B JUMP JUMPDEST DUP1 PUSH0 JUMPDEST DUP4 DUP2 LT ISZERO PUSH2 0x414 JUMPI DUP2 MLOAD PUSH2 0x3FB DUP9 DUP3 PUSH2 0x3A2 JUMP JUMPDEST SWAP8 POP PUSH2 0x406 DUP4 PUSH2 0x3B9 JUMP JUMPDEST SWAP3 POP POP PUSH1 0x1 DUP2 ADD SWAP1 POP PUSH2 0x3E7 JUMP JUMPDEST POP DUP6 SWAP4 POP POP POP POP SWAP3 SWAP2 POP POP JUMP JUMPDEST PUSH0 PUSH1 0x20 DUP3 ADD SWAP1 POP DUP2 DUP2 SUB PUSH0 DUP4 ADD MSTORE PUSH2 0x439 DUP2 DUP5 PUSH2 0x3C5 JUMP JUMPDEST SWAP1 POP SWAP3 SWAP2 POP POP JUMP JUMPDEST PUSH0 DUP1 REVERT JUMPDEST PUSH2 0x44E DUP2 PUSH2 0x38A JUMP JUMPDEST DUP2 EQ PUSH2 0x458 JUMPI PUSH0 DUP1 REVERT JUMPDEST POP JUMP JUMPDEST PUSH0 DUP2 CALLDATALOAD SWAP1 POP PUSH2 0x469 DUP2 PUSH2 0x445 JUMP JUMPDEST SWAP3 SWAP2 POP POP JUMP JUMPDEST PUSH0 PUSH1 0x20 DUP3 DUP5 SUB SLT ISZERO PUSH2 0x484 JUMPI PUSH2 0x483 PUSH2 0x441 JUMP JUMPDEST JUMPDEST PUSH0 PUSH2 0x491 DUP5 DUP3 DUP6 ADD PUSH2 0x45B JUMP JUMPDEST SWAP2 POP POP SWAP3 SWAP2 POP POP JUMP JUMPDEST PUSH2 0x4A3 DUP2 PUSH2 0x38A JUMP JUMPDEST DUP3 MSTORE POP POP JUMP JUMPDEST PUSH0 PUSH1 0x20 DUP3 ADD SWAP1 POP PUSH2 0x4BC PUSH0 DUP4 ADD DUP5 PUSH2 0x49A JUMP JUMPDEST SWAP3 SWAP2 POP POP JUMP JUMPDEST PUSH32 0x4E487B7100000000000000000000000000000000000000000000000000000000 PUSH0 MSTORE PUSH1 0x32 PUSH1 0x4 MSTORE PUSH1 0x24 PUSH0 REVERT JUMPDEST PUSH32 0x4E487B7100000000000000000000000000000000000000000000000000000000 PUSH0 MSTORE PUSH1 0x11 PUSH1 0x4 MSTORE PUSH1 0x24 PUSH0 REVERT JUMPDEST PUSH0 PUSH2 0x526 DUP3 PUSH2 0x38A JUMP JUMPDEST SWAP2 POP PUSH32 0xFFFFFFFFFFFFFFFFFFFFFFFFFFFFFFFFFFFFFFFFFFFFFFFFFFFFFFFFFFFFFFFF DUP3 SUB PUSH2 0x558 JUMPI PUSH2 0x557 PUSH2 0x4EF JUMP JUMPDEST JUMPDEST PUSH1 0x1 DUP3 ADD SWAP1 POP SWAP2 SWAP1 POP JUMP INVALID LOG2 PUSH5 0x6970667358 0x22 SLT KECCAK256 SELFBALANCE 0xBC 0xAB 0xEA 0xDE 0x2A NOT DUP15 0xAA 0xE4 0xC0 0x23 MCOPY LOG3 PUSH9 0x4C13AB006CE037CD0 TLOAD PUSH4 0x58168B25 OR CALLDATACOPY PUSH5 0x736F6C6343 STOP ADDMOD BYTE STOP CALLER "
				},
				"gasEstimates": {
					"creation": {
						"codeDepositCost": "286600",
						"executionCost": "infinite",
						"totalCost": "infinite"
					},
					"external": {
						"arr3(uint256)": "infinite",
						"getArr3()": "infinite",
						"merge()": "infinite"
					}
				},
				"methodIdentifiers": {
					"arr3(uint256)": "8732ded8",
					"getArr3()": "47f9c1ac",
					"merge()": "0b65108b"
				}
			},
			"storageLayout": {
				"storage": [
					{
						"astId": 10,
						"contract": "task1/MergeSortedArray.sol:MergeSortedArray",
						"label": "arr1",
						"offset": 0,
						"slot": "0",
						"type": "t_array(t_uint256)dyn_storage"
					},
					{
						"astId": 19,
						"contract": "task1/MergeSortedArray.sol:MergeSortedArray",
						"label": "arr2",
						"offset": 0,
						"slot": "1",
						"type": "t_array(t_uint256)dyn_storage"
					},
					{
						"astId": 31,
						"contract": "task1/MergeSortedArray.sol:MergeSortedArray",
						"label": "arr3",
						"offset": 0,
						"slot": "2",
						"type": "t_array(t_uint256)dyn_storage"
					}
				],
				"types": {
					"t_array(t_uint256)dyn_storage": {
						"base": "t_uint256",
						"encoding": "dynamic_array",
						"label": "uint256[]",
						"numberOfBytes": "32"
					},
					"t_uint256": {
						"encoding": "inplace",
						"label": "uint256",
						"numberOfBytes": "32"
					}
				}
			},
			"userdoc": {
				"kind": "user",
				"methods": {},
				"version": 1
			}
		}
	}
}