{
	"task1/RomanConverter.sol": {
		"RomanConverter": {
			"abi": [
				{
					"inputs": [],
					"stateMutability": "nonpayable",
					"type": "constructor"
				},
				{
					"inputs": [
						{
							"internalType": "string",
							"name": "s",
							"type": "string"
						}
					],
					"name": "romanToInt",
					"outputs": [
						{
							"internalType": "int256",
							"name": "",
							"type": "int256"
						}
					],
					"stateMutability": "view",
					"type": "function"
				},
				{
					"inputs": [
						{
							"internalType": "string",
							"name": "",
							"type": "string"
						}
					],
					"name": "romanValues",
					"outputs": [
						{
							"internalType": "int256",
							"name": "",
							"type": "int256"
						}
					],
					"stateMutability": "view",
					"type": "function"
				},
				{
					"inputs": [
						{
							"internalType": "uint256",
							"name": "_num",
							"type": "uint256"
						}
					],
					"name": "unitToRoman",
					"outputs": [
						{
							"internalType": "string",
							"name": "",
							"type": "string"
						}
					],
					"stateMutability": "view",
					"type": "function"
				}
			],
			"devdoc": {
				"kind": "dev",
				"methods": {},
				"version": 1
			},
			"evm": {
				"assembly": "    /* \"task1/RomanConverter.sol\":59:1980  contract RomanConverter {... */\n  mstore(0x40, 0x80)\n    /* \"task1/RomanConverter.sol\":89:224  uint256[] nums = [... */\n  mload(0x40)\n  dup1\n  0x01c0\n  add\n  0x40\n  mstore\n  dup1\n    /* \"task1/RomanConverter.sol\":116:120  1000 */\n  0x03e8\n    /* \"task1/RomanConverter.sol\":89:224  uint256[] nums = [... */\n  0xffff\n  and\n  dup2\n  mstore\n  0x20\n  add\n    /* \"task1/RomanConverter.sol\":122:125  900 */\n  0x0384\n    /* \"task1/RomanConverter.sol\":89:224  uint256[] nums = [... */\n  0xffff\n  and\n  dup2\n  mstore\n  0x20\n  add\n    /* \"task1/RomanConverter.sol\":127:130  500 */\n  0x01f4\n    /* \"task1/RomanConverter.sol\":89:224  uint256[] nums = [... */\n  0xffff\n  and\n  dup2\n  mstore\n  0x20\n  add\n    /* \"task1/RomanConverter.sol\":132:135  400 */\n  0x0190\n    /* \"task1/RomanConverter.sol\":89:224  uint256[] nums = [... */\n  0xffff\n  and\n  dup2\n  mstore\n  0x20\n  add\n    /* \"task1/RomanConverter.sol\":145:148  100 */\n  0x64\n    /* \"task1/RomanConverter.sol\":89:224  uint256[] nums = [... */\n  0xffff\n  and\n  dup2\n  mstore\n  0x20\n  add\n    /* \"task1/RomanConverter.sol\":150:152  90 */\n  0x5a\n    /* \"task1/RomanConverter.sol\":89:224  uint256[] nums = [... */\n  0xffff\n  and\n  dup2\n  mstore\n  0x20\n  add\n    /* \"task1/RomanConverter.sol\":154:156  50 */\n  0x32\n    /* \"task1/RomanConverter.sol\":89:224  uint256[] nums = [... */\n  0xffff\n  and\n  dup2\n  mstore\n  0x20\n  add\n    /* \"task1/RomanConverter.sol\":158:160  40 */\n  0x28\n    /* \"task1/RomanConverter.sol\":89:224  uint256[] nums = [... */\n  0xffff\n  and\n  dup2\n  mstore\n  0x20\n  add\n    /* \"task1/RomanConverter.sol\":170:172  10 */\n  0x0a\n    /* \"task1/RomanConverter.sol\":89:224  uint256[] nums = [... */\n  0xffff\n  and\n  dup2\n  mstore\n  0x20\n  add\n    /* \"task1/RomanConverter.sol\":174:175  9 */\n  0x09\n    /* \"task1/RomanConverter.sol\":89:224  uint256[] nums = [... */\n  0xffff\n  and\n  dup2\n  mstore\n  0x20\n  add\n    /* \"task1/RomanConverter.sol\":177:178  5 */\n  0x05\n    /* \"task1/RomanConverter.sol\":89:224  uint256[] nums = [... */\n  0xffff\n  and\n  dup2\n  mstore\n  0x20\n  add\n    /* \"task1/RomanConverter.sol\":180:181  4 */\n  0x04\n    /* \"task1/RomanConverter.sol\":89:224  uint256[] nums = [... */\n  0xffff\n  and\n  dup2\n  mstore\n  0x20\n  add\n    /* \"task1/RomanConverter.sol\":191:192  1 */\n  0x01\n    /* \"task1/RomanConverter.sol\":89:224  uint256[] nums = [... */\n  0xffff\n  and\n  dup2\n  mstore\n  0x20\n  add\n    /* \"task1/RomanConverter.sol\":194:195  0 */\n  0x00\n    /* \"task1/RomanConverter.sol\":89:224  uint256[] nums = [... */\n  0xffff\n  and\n  dup2\n  mstore\n  pop\n  0x00\n  swap1\n  0x0e\n  tag_1\n  swap3\n  swap2\n  swap1\n  tag_2\n  jump\t// in\ntag_1:\n  pop\n    /* \"task1/RomanConverter.sol\":231:368  string[] romanSymbols = [... */\n  mload(0x40)\n  dup1\n  0x01c0\n  add\n  0x40\n  mstore\n  dup1\n  mload(0x40)\n  dup1\n  0x40\n  add\n  0x40\n  mstore\n  dup1\n  0x01\n  dup2\n  mstore\n  0x20\n  add\n  0x4d00000000000000000000000000000000000000000000000000000000000000\n  dup2\n  mstore\n  pop\n  dup2\n  mstore\n  0x20\n  add\n  mload(0x40)\n  dup1\n  0x40\n  add\n  0x40\n  mstore\n  dup1\n  0x02\n  dup2\n  mstore\n  0x20\n  add\n  0x434d000000000000000000000000000000000000000000000000000000000000\n  dup2\n  mstore\n  pop\n  dup2\n  mstore\n  0x20\n  add\n  mload(0x40)\n  dup1\n  0x40\n  add\n  0x40\n  mstore\n  dup1\n  0x01\n  dup2\n  mstore\n  0x20\n  add\n  0x4400000000000000000000000000000000000000000000000000000000000000\n  dup2\n  mstore\n  pop\n  dup2\n  mstore\n  0x20\n  add\n  mload(0x40)\n  dup1\n  0x40\n  add\n  0x40\n  mstore\n  dup1\n  0x02\n  dup2\n  mstore\n  0x20\n  add\n  0x4344000000000000000000000000000000000000000000000000000000000000\n  dup2\n  mstore\n  pop\n  dup2\n  mstore\n  0x20\n  add\n  mload(0x40)\n  dup1\n  0x40\n  add\n  0x40\n  mstore\n  dup1\n  0x01\n  dup2\n  mstore\n  0x20\n  add\n  0x4300000000000000000000000000000000000000000000000000000000000000\n  dup2\n  mstore\n  pop\n  dup2\n  mstore\n  0x20\n  add\n  mload(0x40)\n  dup1\n  0x40\n  add\n  0x40\n  mstore\n  dup1\n  0x02\n  dup2\n  mstore\n  0x20\n  add\n  0x5843000000000000000000000000000000000000000000000000000000000000\n  dup2\n  mstore\n  pop\n  dup2\n  mstore\n  0x20\n  add\n  mload(0x40)\n  dup1\n  0x40\n  add\n  0x40\n  mstore\n  dup1\n  0x01\n  dup2\n  mstore\n  0x20\n  add\n  0x4c00000000000000000000000000000000000000000000000000000000000000\n  dup2\n  mstore\n  pop\n  dup2\n  mstore\n  0x20\n  add\n  mload(0x40)\n  dup1\n  0x40\n  add\n  0x40\n  mstore\n  dup1\n  0x02\n  dup2\n  mstore\n  0x20\n  add\n  0x584c000000000000000000000000000000000000000000000000000000000000\n  dup2\n  mstore\n  pop\n  dup2\n  mstore\n  0x20\n  add\n  mload(0x40)\n  dup1\n  0x40\n  add\n  0x40\n  mstore\n  dup1\n  0x01\n  dup2\n  mstore\n  0x20\n  add\n  0x5800000000000000000000000000000000000000000000000000000000000000\n  dup2\n  mstore\n  pop\n  dup2\n  mstore\n  0x20\n  add\n  mload(0x40)\n  dup1\n  0x40\n  add\n  0x40\n  mstore\n  dup1\n  0x02\n  dup2\n  mstore\n  0x20\n  add\n  0x4958000000000000000000000000000000000000000000000000000000000000\n  dup2\n  mstore\n  pop\n  dup2\n  mstore\n  0x20\n  add\n  mload(0x40)\n  dup1\n  0x40\n  add\n  0x40\n  mstore\n  dup1\n  0x01\n  dup2\n  mstore\n  0x20\n  add\n  0x5600000000000000000000000000000000000000000000000000000000000000\n  dup2\n  mstore\n  pop\n  dup2\n  mstore\n  0x20\n  add\n  mload(0x40)\n  dup1\n  0x40\n  add\n  0x40\n  mstore\n  dup1\n  0x02\n  dup2\n  mstore\n  0x20\n  add\n  0x4956000000000000000000000000000000000000000000000000000000000000\n  dup2\n  mstore\n  pop\n  dup2\n  mstore\n  0x20\n  add\n  mload(0x40)\n  dup1\n  0x40\n  add\n  0x40\n  mstore\n  dup1\n  0x01\n  dup2\n  mstore\n  0x20\n  add\n  0x4900000000000000000000000000000000000000000000000000000000000000\n  dup2\n  mstore\n  pop\n  dup2\n  mstore\n  0x20\n  add\n  mload(0x40)\n  dup1\n  0x20\n  add\n  0x40\n  mstore\n  dup1\n  0x00\n  dup2\n  mstore\n  pop\n  dup2\n  mstore\n  pop\n  0x01\n  swap1\n  0x0e\n  tag_3\n  swap3\n  swap2\n  swap1\n  tag_4\n  jump\t// in\ntag_3:\n  pop\n    /* \"task1/RomanConverter.sol\":426:666  constructor() {... */\n  callvalue\n  dup1\n  iszero\n  tag_5\n  jumpi\n  0x00\n  dup1\n  revert\ntag_5:\n  pop\n    /* \"task1/RomanConverter.sol\":469:470  1 */\n  0x01\n    /* \"task1/RomanConverter.sol\":450:461  romanValues */\n  0x02\n    /* \"task1/RomanConverter.sol\":450:466  romanValues[\"I\"] */\n  mload(0x40)\n  tag_8\n  swap1\n  tag_9\n  jump\t// in\ntag_8:\n  swap1\n  dup2\n  mstore\n  0x20\n  add\n  mload(0x40)\n  dup1\n  swap2\n  sub\n  swap1\n  keccak256\n    /* \"task1/RomanConverter.sol\":450:470  romanValues[\"I\"] = 1 */\n  dup2\n  swap1\n  sstore\n  pop\n    /* \"task1/RomanConverter.sol\":499:500  5 */\n  0x05\n    /* \"task1/RomanConverter.sol\":480:491  romanValues */\n  0x02\n    /* \"task1/RomanConverter.sol\":480:496  romanValues[\"V\"] */\n  mload(0x40)\n  tag_10\n  swap1\n  tag_11\n  jump\t// in\ntag_10:\n  swap1\n  dup2\n  mstore\n  0x20\n  add\n  mload(0x40)\n  dup1\n  swap2\n  sub\n  swap1\n  keccak256\n    /* \"task1/RomanConverter.sol\":480:500  romanValues[\"V\"] = 5 */\n  dup2\n  swap1\n  sstore\n  pop\n    /* \"task1/RomanConverter.sol\":529:531  10 */\n  0x0a\n    /* \"task1/RomanConverter.sol\":510:521  romanValues */\n  0x02\n    /* \"task1/RomanConverter.sol\":510:526  romanValues[\"X\"] */\n  mload(0x40)\n  tag_12\n  swap1\n  tag_13\n  jump\t// in\ntag_12:\n  swap1\n  dup2\n  mstore\n  0x20\n  add\n  mload(0x40)\n  dup1\n  swap2\n  sub\n  swap1\n  keccak256\n    /* \"task1/RomanConverter.sol\":510:531  romanValues[\"X\"] = 10 */\n  dup2\n  swap1\n  sstore\n  pop\n    /* \"task1/RomanConverter.sol\":560:562  50 */\n  0x32\n    /* \"task1/RomanConverter.sol\":541:552  romanValues */\n  0x02\n    /* \"task1/RomanConverter.sol\":541:557  romanValues[\"L\"] */\n  mload(0x40)\n  tag_14\n  swap1\n  tag_15\n  jump\t// in\ntag_14:\n  swap1\n  dup2\n  mstore\n  0x20\n  add\n  mload(0x40)\n  dup1\n  swap2\n  sub\n  swap1\n  keccak256\n    /* \"task1/RomanConverter.sol\":541:562  romanValues[\"L\"] = 50 */\n  dup2\n  swap1\n  sstore\n  pop\n    /* \"task1/RomanConverter.sol\":591:594  100 */\n  0x64\n    /* \"task1/RomanConverter.sol\":572:583  romanValues */\n  0x02\n    /* \"task1/RomanConverter.sol\":572:588  romanValues[\"C\"] */\n  mload(0x40)\n  tag_16\n  swap1\n  tag_17\n  jump\t// in\ntag_16:\n  swap1\n  dup2\n  mstore\n  0x20\n  add\n  mload(0x40)\n  dup1\n  swap2\n  sub\n  swap1\n  keccak256\n    /* \"task1/RomanConverter.sol\":572:594  romanValues[\"C\"] = 100 */\n  dup2\n  swap1\n  sstore\n  pop\n    /* \"task1/RomanConverter.sol\":623:626  500 */\n  0x01f4\n    /* \"task1/RomanConverter.sol\":604:615  romanValues */\n  0x02\n    /* \"task1/RomanConverter.sol\":604:620  romanValues[\"D\"] */\n  mload(0x40)\n  tag_18\n  swap1\n  tag_19\n  jump\t// in\ntag_18:\n  swap1\n  dup2\n  mstore\n  0x20\n  add\n  mload(0x40)\n  dup1\n  swap2\n  sub\n  swap1\n  keccak256\n    /* \"task1/RomanConverter.sol\":604:626  romanValues[\"D\"] = 500 */\n  dup2\n  swap1\n  sstore\n  pop\n    /* \"task1/RomanConverter.sol\":655:659  1000 */\n  0x03e8\n    /* \"task1/RomanConverter.sol\":636:647  romanValues */\n  0x02\n    /* \"task1/RomanConverter.sol\":636:652  romanValues[\"M\"] */\n  mload(0x40)\n  tag_20\n  swap1\n  tag_21\n  jump\t// in\ntag_20:\n  swap1\n  dup2\n  mstore\n  0x20\n  add\n  mload(0x40)\n  dup1\n  swap2\n  sub\n  swap1\n  keccak256\n    /* \"task1/RomanConverter.sol\":636:659  romanValues[\"M\"] = 1000 */\n  dup2\n  swap1\n  sstore\n  pop\n    /* \"task1/RomanConverter.sol\":59:1980  contract RomanConverter {... */\n  jump(tag_22)\ntag_2:\n  dup3\n  dup1\n  sload\n  dup3\n  dup3\n  sstore\n  swap1\n  0x00\n  mstore\n  keccak256(0x00, 0x20)\n  swap1\n  dup2\n  add\n  swap3\n  dup3\n  iszero\n  tag_23\n  jumpi\n  swap2\n  0x20\n  mul\n  dup3\n  add\ntag_24:\n  dup3\n  dup2\n  gt\n  iszero\n  tag_25\n  jumpi\n  dup3\n  mload\n  dup3\n  swap1\n  0xffff\n  and\n  swap1\n  sstore\n  swap2\n  0x20\n  add\n  swap2\n  swap1\n  0x01\n  add\n  swap1\n  jump(tag_24)\ntag_25:\ntag_23:\n  pop\n  swap1\n  pop\n  tag_26\n  swap2\n  swap1\n  tag_27\n  jump\t// in\ntag_26:\n  pop\n  swap1\n  jump\t// out\ntag_4:\n  dup3\n  dup1\n  sload\n  dup3\n  dup3\n  sstore\n  swap1\n  0x00\n  mstore\n  keccak256(0x00, 0x20)\n  swap1\n  dup2\n  add\n  swap3\n  dup3\n  iszero\n  tag_28\n  jumpi\n  swap2\n  0x20\n  mul\n  dup3\n  add\ntag_29:\n  dup3\n  dup2\n  gt\n  iszero\n  tag_30\n  jumpi\n  dup3\n  mload\n  dup3\n  swap1\n  dup2\n  tag_31\n  swap2\n  swap1\n  tag_32\n  jump\t// in\ntag_31:\n  pop\n  swap2\n  0x20\n  add\n  swap2\n  swap1\n  0x01\n  add\n  swap1\n  jump(tag_29)\ntag_30:\ntag_28:\n  pop\n  swap1\n  pop\n  tag_33\n  swap2\n  swap1\n  tag_34\n  jump\t// in\ntag_33:\n  pop\n  swap1\n  jump\t// out\ntag_27:\ntag_35:\n  dup1\n  dup3\n  gt\n  iszero\n  tag_36\n  jumpi\n  0x00\n  dup2\n  0x00\n  swap1\n  sstore\n  pop\n  0x01\n  add\n  jump(tag_35)\ntag_36:\n  pop\n  swap1\n  jump\t// out\ntag_34:\ntag_37:\n  dup1\n  dup3\n  gt\n  iszero\n  tag_38\n  jumpi\n  0x00\n  dup2\n  dup2\n  tag_39\n  swap2\n  swap1\n  tag_40\n  jump\t// in\ntag_39:\n  pop\n  0x01\n  add\n  jump(tag_37)\ntag_38:\n  pop\n  swap1\n  jump\t// out\ntag_40:\n  pop\n  dup1\n  sload\n  tag_41\n  swap1\n  tag_42\n  jump\t// in\ntag_41:\n  0x00\n  dup3\n  sstore\n  dup1\n  0x1f\n  lt\n  tag_44\n  jumpi\n  pop\n  jump(tag_43)\ntag_44:\n  0x1f\n  add\n  0x20\n  swap1\n  div\n  swap1\n  0x00\n  mstore\n  keccak256(0x00, 0x20)\n  swap1\n  dup2\n  add\n  swap1\n  tag_45\n  swap2\n  swap1\n  tag_27\n  jump\t// in\ntag_45:\ntag_43:\n  pop\n  jump\t// out\n    /* \"#utility.yul\":7:155   */\ntag_46:\n    /* \"#utility.yul\":109:120   */\n  0x00\n    /* \"#utility.yul\":146:149   */\n  dup2\n    /* \"#utility.yul\":131:149   */\n  swap1\n  pop\n    /* \"#utility.yul\":7:155   */\n  swap3\n  swap2\n  pop\n  pop\n  jump\t// out\n    /* \"#utility.yul\":161:312   */\ntag_47:\n    /* \"#utility.yul\":301:304   */\n  0x4900000000000000000000000000000000000000000000000000000000000000\n    /* \"#utility.yul\":297:298   */\n  0x00\n    /* \"#utility.yul\":289:295   */\n  dup3\n    /* \"#utility.yul\":285:299   */\n  add\n    /* \"#utility.yul\":278:305   */\n  mstore\n    /* \"#utility.yul\":161:312   */\n  pop\n  jump\t// out\n    /* \"#utility.yul\":318:718   */\ntag_48:\n    /* \"#utility.yul\":478:481   */\n  0x00\n    /* \"#utility.yul\":499:583   */\n  tag_84\n    /* \"#utility.yul\":581:582   */\n  0x01\n    /* \"#utility.yul\":576:579   */\n  dup4\n    /* \"#utility.yul\":499:583   */\n  tag_46\n  jump\t// in\ntag_84:\n    /* \"#utility.yul\":492:583   */\n  swap2\n  pop\n    /* \"#utility.yul\":592:685   */\n  tag_85\n    /* \"#utility.yul\":681:684   */\n  dup3\n    /* \"#utility.yul\":592:685   */\n  tag_47\n  jump\t// in\ntag_85:\n    /* \"#utility.yul\":710:711   */\n  0x01\n    /* \"#utility.yul\":705:708   */\n  dup3\n    /* \"#utility.yul\":701:712   */\n  add\n    /* \"#utility.yul\":694:712   */\n  swap1\n  pop\n    /* \"#utility.yul\":318:718   */\n  swap2\n  swap1\n  pop\n  jump\t// out\n    /* \"#utility.yul\":724:1105   */\ntag_9:\n    /* \"#utility.yul\":909:912   */\n  0x00\n    /* \"#utility.yul\":931:1079   */\n  tag_87\n    /* \"#utility.yul\":1075:1078   */\n  dup3\n    /* \"#utility.yul\":931:1079   */\n  tag_48\n  jump\t// in\ntag_87:\n    /* \"#utility.yul\":924:1079   */\n  swap2\n  pop\n    /* \"#utility.yul\":1096:1099   */\n  dup2\n    /* \"#utility.yul\":1089:1099   */\n  swap1\n  pop\n    /* \"#utility.yul\":724:1105   */\n  swap2\n  swap1\n  pop\n  jump\t// out\n    /* \"#utility.yul\":1111:1262   */\ntag_49:\n    /* \"#utility.yul\":1251:1254   */\n  0x5600000000000000000000000000000000000000000000000000000000000000\n    /* \"#utility.yul\":1247:1248   */\n  0x00\n    /* \"#utility.yul\":1239:1245   */\n  dup3\n    /* \"#utility.yul\":1235:1249   */\n  add\n    /* \"#utility.yul\":1228:1255   */\n  mstore\n    /* \"#utility.yul\":1111:1262   */\n  pop\n  jump\t// out\n    /* \"#utility.yul\":1268:1668   */\ntag_50:\n    /* \"#utility.yul\":1428:1431   */\n  0x00\n    /* \"#utility.yul\":1449:1533   */\n  tag_90\n    /* \"#utility.yul\":1531:1532   */\n  0x01\n    /* \"#utility.yul\":1526:1529   */\n  dup4\n    /* \"#utility.yul\":1449:1533   */\n  tag_46\n  jump\t// in\ntag_90:\n    /* \"#utility.yul\":1442:1533   */\n  swap2\n  pop\n    /* \"#utility.yul\":1542:1635   */\n  tag_91\n    /* \"#utility.yul\":1631:1634   */\n  dup3\n    /* \"#utility.yul\":1542:1635   */\n  tag_49\n  jump\t// in\ntag_91:\n    /* \"#utility.yul\":1660:1661   */\n  0x01\n    /* \"#utility.yul\":1655:1658   */\n  dup3\n    /* \"#utility.yul\":1651:1662   */\n  add\n    /* \"#utility.yul\":1644:1662   */\n  swap1\n  pop\n    /* \"#utility.yul\":1268:1668   */\n  swap2\n  swap1\n  pop\n  jump\t// out\n    /* \"#utility.yul\":1674:2055   */\ntag_11:\n    /* \"#utility.yul\":1859:1862   */\n  0x00\n    /* \"#utility.yul\":1881:2029   */\n  tag_93\n    /* \"#utility.yul\":2025:2028   */\n  dup3\n    /* \"#utility.yul\":1881:2029   */\n  tag_50\n  jump\t// in\ntag_93:\n    /* \"#utility.yul\":1874:2029   */\n  swap2\n  pop\n    /* \"#utility.yul\":2046:2049   */\n  dup2\n    /* \"#utility.yul\":2039:2049   */\n  swap1\n  pop\n    /* \"#utility.yul\":1674:2055   */\n  swap2\n  swap1\n  pop\n  jump\t// out\n    /* \"#utility.yul\":2061:2212   */\ntag_51:\n    /* \"#utility.yul\":2201:2204   */\n  0x5800000000000000000000000000000000000000000000000000000000000000\n    /* \"#utility.yul\":2197:2198   */\n  0x00\n    /* \"#utility.yul\":2189:2195   */\n  dup3\n    /* \"#utility.yul\":2185:2199   */\n  add\n    /* \"#utility.yul\":2178:2205   */\n  mstore\n    /* \"#utility.yul\":2061:2212   */\n  pop\n  jump\t// out\n    /* \"#utility.yul\":2218:2618   */\ntag_52:\n    /* \"#utility.yul\":2378:2381   */\n  0x00\n    /* \"#utility.yul\":2399:2483   */\n  tag_96\n    /* \"#utility.yul\":2481:2482   */\n  0x01\n    /* \"#utility.yul\":2476:2479   */\n  dup4\n    /* \"#utility.yul\":2399:2483   */\n  tag_46\n  jump\t// in\ntag_96:\n    /* \"#utility.yul\":2392:2483   */\n  swap2\n  pop\n    /* \"#utility.yul\":2492:2585   */\n  tag_97\n    /* \"#utility.yul\":2581:2584   */\n  dup3\n    /* \"#utility.yul\":2492:2585   */\n  tag_51\n  jump\t// in\ntag_97:\n    /* \"#utility.yul\":2610:2611   */\n  0x01\n    /* \"#utility.yul\":2605:2608   */\n  dup3\n    /* \"#utility.yul\":2601:2612   */\n  add\n    /* \"#utility.yul\":2594:2612   */\n  swap1\n  pop\n    /* \"#utility.yul\":2218:2618   */\n  swap2\n  swap1\n  pop\n  jump\t// out\n    /* \"#utility.yul\":2624:3005   */\ntag_13:\n    /* \"#utility.yul\":2809:2812   */\n  0x00\n    /* \"#utility.yul\":2831:2979   */\n  tag_99\n    /* \"#utility.yul\":2975:2978   */\n  dup3\n    /* \"#utility.yul\":2831:2979   */\n  tag_52\n  jump\t// in\ntag_99:\n    /* \"#utility.yul\":2824:2979   */\n  swap2\n  pop\n    /* \"#utility.yul\":2996:2999   */\n  dup2\n    /* \"#utility.yul\":2989:2999   */\n  swap1\n  pop\n    /* \"#utility.yul\":2624:3005   */\n  swap2\n  swap1\n  pop\n  jump\t// out\n    /* \"#utility.yul\":3011:3162   */\ntag_53:\n    /* \"#utility.yul\":3151:3154   */\n  0x4c00000000000000000000000000000000000000000000000000000000000000\n    /* \"#utility.yul\":3147:3148   */\n  0x00\n    /* \"#utility.yul\":3139:3145   */\n  dup3\n    /* \"#utility.yul\":3135:3149   */\n  add\n    /* \"#utility.yul\":3128:3155   */\n  mstore\n    /* \"#utility.yul\":3011:3162   */\n  pop\n  jump\t// out\n    /* \"#utility.yul\":3168:3568   */\ntag_54:\n    /* \"#utility.yul\":3328:3331   */\n  0x00\n    /* \"#utility.yul\":3349:3433   */\n  tag_102\n    /* \"#utility.yul\":3431:3432   */\n  0x01\n    /* \"#utility.yul\":3426:3429   */\n  dup4\n    /* \"#utility.yul\":3349:3433   */\n  tag_46\n  jump\t// in\ntag_102:\n    /* \"#utility.yul\":3342:3433   */\n  swap2\n  pop\n    /* \"#utility.yul\":3442:3535   */\n  tag_103\n    /* \"#utility.yul\":3531:3534   */\n  dup3\n    /* \"#utility.yul\":3442:3535   */\n  tag_53\n  jump\t// in\ntag_103:\n    /* \"#utility.yul\":3560:3561   */\n  0x01\n    /* \"#utility.yul\":3555:3558   */\n  dup3\n    /* \"#utility.yul\":3551:3562   */\n  add\n    /* \"#utility.yul\":3544:3562   */\n  swap1\n  pop\n    /* \"#utility.yul\":3168:3568   */\n  swap2\n  swap1\n  pop\n  jump\t// out\n    /* \"#utility.yul\":3574:3955   */\ntag_15:\n    /* \"#utility.yul\":3759:3762   */\n  0x00\n    /* \"#utility.yul\":3781:3929   */\n  tag_105\n    /* \"#utility.yul\":3925:3928   */\n  dup3\n    /* \"#utility.yul\":3781:3929   */\n  tag_54\n  jump\t// in\ntag_105:\n    /* \"#utility.yul\":3774:3929   */\n  swap2\n  pop\n    /* \"#utility.yul\":3946:3949   */\n  dup2\n    /* \"#utility.yul\":3939:3949   */\n  swap1\n  pop\n    /* \"#utility.yul\":3574:3955   */\n  swap2\n  swap1\n  pop\n  jump\t// out\n    /* \"#utility.yul\":3961:4112   */\ntag_55:\n    /* \"#utility.yul\":4101:4104   */\n  0x4300000000000000000000000000000000000000000000000000000000000000\n    /* \"#utility.yul\":4097:4098   */\n  0x00\n    /* \"#utility.yul\":4089:4095   */\n  dup3\n    /* \"#utility.yul\":4085:4099   */\n  add\n    /* \"#utility.yul\":4078:4105   */\n  mstore\n    /* \"#utility.yul\":3961:4112   */\n  pop\n  jump\t// out\n    /* \"#utility.yul\":4118:4518   */\ntag_56:\n    /* \"#utility.yul\":4278:4281   */\n  0x00\n    /* \"#utility.yul\":4299:4383   */\n  tag_108\n    /* \"#utility.yul\":4381:4382   */\n  0x01\n    /* \"#utility.yul\":4376:4379   */\n  dup4\n    /* \"#utility.yul\":4299:4383   */\n  tag_46\n  jump\t// in\ntag_108:\n    /* \"#utility.yul\":4292:4383   */\n  swap2\n  pop\n    /* \"#utility.yul\":4392:4485   */\n  tag_109\n    /* \"#utility.yul\":4481:4484   */\n  dup3\n    /* \"#utility.yul\":4392:4485   */\n  tag_55\n  jump\t// in\ntag_109:\n    /* \"#utility.yul\":4510:4511   */\n  0x01\n    /* \"#utility.yul\":4505:4508   */\n  dup3\n    /* \"#utility.yul\":4501:4512   */\n  add\n    /* \"#utility.yul\":4494:4512   */\n  swap1\n  pop\n    /* \"#utility.yul\":4118:4518   */\n  swap2\n  swap1\n  pop\n  jump\t// out\n    /* \"#utility.yul\":4524:4905   */\ntag_17:\n    /* \"#utility.yul\":4709:4712   */\n  0x00\n    /* \"#utility.yul\":4731:4879   */\n  tag_111\n    /* \"#utility.yul\":4875:4878   */\n  dup3\n    /* \"#utility.yul\":4731:4879   */\n  tag_56\n  jump\t// in\ntag_111:\n    /* \"#utility.yul\":4724:4879   */\n  swap2\n  pop\n    /* \"#utility.yul\":4896:4899   */\n  dup2\n    /* \"#utility.yul\":4889:4899   */\n  swap1\n  pop\n    /* \"#utility.yul\":4524:4905   */\n  swap2\n  swap1\n  pop\n  jump\t// out\n    /* \"#utility.yul\":4911:5062   */\ntag_57:\n    /* \"#utility.yul\":5051:5054   */\n  0x4400000000000000000000000000000000000000000000000000000000000000\n    /* \"#utility.yul\":5047:5048   */\n  0x00\n    /* \"#utility.yul\":5039:5045   */\n  dup3\n    /* \"#utility.yul\":5035:5049   */\n  add\n    /* \"#utility.yul\":5028:5055   */\n  mstore\n    /* \"#utility.yul\":4911:5062   */\n  pop\n  jump\t// out\n    /* \"#utility.yul\":5068:5468   */\ntag_58:\n    /* \"#utility.yul\":5228:5231   */\n  0x00\n    /* \"#utility.yul\":5249:5333   */\n  tag_114\n    /* \"#utility.yul\":5331:5332   */\n  0x01\n    /* \"#utility.yul\":5326:5329   */\n  dup4\n    /* \"#utility.yul\":5249:5333   */\n  tag_46\n  jump\t// in\ntag_114:\n    /* \"#utility.yul\":5242:5333   */\n  swap2\n  pop\n    /* \"#utility.yul\":5342:5435   */\n  tag_115\n    /* \"#utility.yul\":5431:5434   */\n  dup3\n    /* \"#utility.yul\":5342:5435   */\n  tag_57\n  jump\t// in\ntag_115:\n    /* \"#utility.yul\":5460:5461   */\n  0x01\n    /* \"#utility.yul\":5455:5458   */\n  dup3\n    /* \"#utility.yul\":5451:5462   */\n  add\n    /* \"#utility.yul\":5444:5462   */\n  swap1\n  pop\n    /* \"#utility.yul\":5068:5468   */\n  swap2\n  swap1\n  pop\n  jump\t// out\n    /* \"#utility.yul\":5474:5855   */\ntag_19:\n    /* \"#utility.yul\":5659:5662   */\n  0x00\n    /* \"#utility.yul\":5681:5829   */\n  tag_117\n    /* \"#utility.yul\":5825:5828   */\n  dup3\n    /* \"#utility.yul\":5681:5829   */\n  tag_58\n  jump\t// in\ntag_117:\n    /* \"#utility.yul\":5674:5829   */\n  swap2\n  pop\n    /* \"#utility.yul\":5846:5849   */\n  dup2\n    /* \"#utility.yul\":5839:5849   */\n  swap1\n  pop\n    /* \"#utility.yul\":5474:5855   */\n  swap2\n  swap1\n  pop\n  jump\t// out\n    /* \"#utility.yul\":5861:6012   */\ntag_59:\n    /* \"#utility.yul\":6001:6004   */\n  0x4d00000000000000000000000000000000000000000000000000000000000000\n    /* \"#utility.yul\":5997:5998   */\n  0x00\n    /* \"#utility.yul\":5989:5995   */\n  dup3\n    /* \"#utility.yul\":5985:5999   */\n  add\n    /* \"#utility.yul\":5978:6005   */\n  mstore\n    /* \"#utility.yul\":5861:6012   */\n  pop\n  jump\t// out\n    /* \"#utility.yul\":6018:6418   */\ntag_60:\n    /* \"#utility.yul\":6178:6181   */\n  0x00\n    /* \"#utility.yul\":6199:6283   */\n  tag_120\n    /* \"#utility.yul\":6281:6282   */\n  0x01\n    /* \"#utility.yul\":6276:6279   */\n  dup4\n    /* \"#utility.yul\":6199:6283   */\n  tag_46\n  jump\t// in\ntag_120:\n    /* \"#utility.yul\":6192:6283   */\n  swap2\n  pop\n    /* \"#utility.yul\":6292:6385   */\n  tag_121\n    /* \"#utility.yul\":6381:6384   */\n  dup3\n    /* \"#utility.yul\":6292:6385   */\n  tag_59\n  jump\t// in\ntag_121:\n    /* \"#utility.yul\":6410:6411   */\n  0x01\n    /* \"#utility.yul\":6405:6408   */\n  dup3\n    /* \"#utility.yul\":6401:6412   */\n  add\n    /* \"#utility.yul\":6394:6412   */\n  swap1\n  pop\n    /* \"#utility.yul\":6018:6418   */\n  swap2\n  swap1\n  pop\n  jump\t// out\n    /* \"#utility.yul\":6424:6805   */\ntag_21:\n    /* \"#utility.yul\":6609:6612   */\n  0x00\n    /* \"#utility.yul\":6631:6779   */\n  tag_123\n    /* \"#utility.yul\":6775:6778   */\n  dup3\n    /* \"#utility.yul\":6631:6779   */\n  tag_60\n  jump\t// in\ntag_123:\n    /* \"#utility.yul\":6624:6779   */\n  swap2\n  pop\n    /* \"#utility.yul\":6796:6799   */\n  dup2\n    /* \"#utility.yul\":6789:6799   */\n  swap1\n  pop\n    /* \"#utility.yul\":6424:6805   */\n  swap2\n  swap1\n  pop\n  jump\t// out\n    /* \"#utility.yul\":6811:6910   */\ntag_61:\n    /* \"#utility.yul\":6863:6869   */\n  0x00\n    /* \"#utility.yul\":6897:6902   */\n  dup2\n    /* \"#utility.yul\":6891:6903   */\n  mload\n    /* \"#utility.yul\":6881:6903   */\n  swap1\n  pop\n    /* \"#utility.yul\":6811:6910   */\n  swap2\n  swap1\n  pop\n  jump\t// out\n    /* \"#utility.yul\":6916:7096   */\ntag_62:\n    /* \"#utility.yul\":6964:7041   */\n  0x4e487b7100000000000000000000000000000000000000000000000000000000\n    /* \"#utility.yul\":6961:6962   */\n  0x00\n    /* \"#utility.yul\":6954:7042   */\n  mstore\n    /* \"#utility.yul\":7061:7065   */\n  0x41\n    /* \"#utility.yul\":7058:7059   */\n  0x04\n    /* \"#utility.yul\":7051:7066   */\n  mstore\n    /* \"#utility.yul\":7085:7089   */\n  0x24\n    /* \"#utility.yul\":7082:7083   */\n  0x00\n    /* \"#utility.yul\":7075:7090   */\n  revert\n    /* \"#utility.yul\":7102:7282   */\ntag_63:\n    /* \"#utility.yul\":7150:7227   */\n  0x4e487b7100000000000000000000000000000000000000000000000000000000\n    /* \"#utility.yul\":7147:7148   */\n  0x00\n    /* \"#utility.yul\":7140:7228   */\n  mstore\n    /* \"#utility.yul\":7247:7251   */\n  0x22\n    /* \"#utility.yul\":7244:7245   */\n  0x04\n    /* \"#utility.yul\":7237:7252   */\n  mstore\n    /* \"#utility.yul\":7271:7275   */\n  0x24\n    /* \"#utility.yul\":7268:7269   */\n  0x00\n    /* \"#utility.yul\":7261:7276   */\n  revert\n    /* \"#utility.yul\":7288:7608   */\ntag_42:\n    /* \"#utility.yul\":7332:7338   */\n  0x00\n    /* \"#utility.yul\":7369:7370   */\n  0x02\n    /* \"#utility.yul\":7363:7367   */\n  dup3\n    /* \"#utility.yul\":7359:7371   */\n  div\n    /* \"#utility.yul\":7349:7371   */\n  swap1\n  pop\n    /* \"#utility.yul\":7416:7417   */\n  0x01\n    /* \"#utility.yul\":7410:7414   */\n  dup3\n    /* \"#utility.yul\":7406:7418   */\n  and\n    /* \"#utility.yul\":7437:7455   */\n  dup1\n    /* \"#utility.yul\":7427:7508   */\n  tag_128\n  jumpi\n    /* \"#utility.yul\":7493:7497   */\n  0x7f\n    /* \"#utility.yul\":7485:7491   */\n  dup3\n    /* \"#utility.yul\":7481:7498   */\n  and\n    /* \"#utility.yul\":7471:7498   */\n  swap2\n  pop\n    /* \"#utility.yul\":7427:7508   */\ntag_128:\n    /* \"#utility.yul\":7555:7557   */\n  0x20\n    /* \"#utility.yul\":7547:7553   */\n  dup3\n    /* \"#utility.yul\":7544:7558   */\n  lt\n    /* \"#utility.yul\":7524:7542   */\n  dup2\n    /* \"#utility.yul\":7521:7559   */\n  sub\n    /* \"#utility.yul\":7518:7602   */\n  tag_129\n  jumpi\n    /* \"#utility.yul\":7574:7592   */\n  tag_130\n  tag_63\n  jump\t// in\ntag_130:\n    /* \"#utility.yul\":7518:7602   */\ntag_129:\n    /* \"#utility.yul\":7339:7608   */\n  pop\n    /* \"#utility.yul\":7288:7608   */\n  swap2\n  swap1\n  pop\n  jump\t// out\n    /* \"#utility.yul\":7614:7755   */\ntag_64:\n    /* \"#utility.yul\":7663:7667   */\n  0x00\n    /* \"#utility.yul\":7686:7689   */\n  dup2\n    /* \"#utility.yul\":7678:7689   */\n  swap1\n  pop\n    /* \"#utility.yul\":7709:7712   */\n  dup2\n    /* \"#utility.yul\":7706:7707   */\n  0x00\n    /* \"#utility.yul\":7699:7713   */\n  mstore\n    /* \"#utility.yul\":7743:7747   */\n  0x20\n    /* \"#utility.yul\":7740:7741   */\n  0x00\n    /* \"#utility.yul\":7730:7748   */\n  keccak256\n    /* \"#utility.yul\":7722:7748   */\n  swap1\n  pop\n    /* \"#utility.yul\":7614:7755   */\n  swap2\n  swap1\n  pop\n  jump\t// out\n    /* \"#utility.yul\":7761:7854   */\ntag_65:\n    /* \"#utility.yul\":7798:7804   */\n  0x00\n    /* \"#utility.yul\":7845:7847   */\n  0x20\n    /* \"#utility.yul\":7840:7842   */\n  0x1f\n    /* \"#utility.yul\":7833:7838   */\n  dup4\n    /* \"#utility.yul\":7829:7843   */\n  add\n    /* \"#utility.yul\":7825:7848   */\n  div\n    /* \"#utility.yul\":7815:7848   */\n  swap1\n  pop\n    /* \"#utility.yul\":7761:7854   */\n  swap2\n  swap1\n  pop\n  jump\t// out\n    /* \"#utility.yul\":7860:7967   */\ntag_66:\n    /* \"#utility.yul\":7904:7912   */\n  0x00\n    /* \"#utility.yul\":7954:7959   */\n  dup3\n    /* \"#utility.yul\":7948:7952   */\n  dup3\n    /* \"#utility.yul\":7944:7960   */\n  shl\n    /* \"#utility.yul\":7923:7960   */\n  swap1\n  pop\n    /* \"#utility.yul\":7860:7967   */\n  swap3\n  swap2\n  pop\n  pop\n  jump\t// out\n    /* \"#utility.yul\":7973:8366   */\ntag_67:\n    /* \"#utility.yul\":8042:8048   */\n  0x00\n    /* \"#utility.yul\":8092:8093   */\n  0x08\n    /* \"#utility.yul\":8080:8090   */\n  dup4\n    /* \"#utility.yul\":8076:8094   */\n  mul\n    /* \"#utility.yul\":8115:8212   */\n  tag_135\n    /* \"#utility.yul\":8145:8211   */\n  0xffffffffffffffffffffffffffffffffffffffffffffffffffffffffffffffff\n    /* \"#utility.yul\":8134:8143   */\n  dup3\n    /* \"#utility.yul\":8115:8212   */\n  tag_66\n  jump\t// in\ntag_135:\n    /* \"#utility.yul\":8233:8272   */\n  tag_136\n    /* \"#utility.yul\":8263:8271   */\n  dup7\n    /* \"#utility.yul\":8252:8261   */\n  dup4\n    /* \"#utility.yul\":8233:8272   */\n  tag_66\n  jump\t// in\ntag_136:\n    /* \"#utility.yul\":8221:8272   */\n  swap6\n  pop\n    /* \"#utility.yul\":8305:8309   */\n  dup1\n    /* \"#utility.yul\":8301:8310   */\n  not\n    /* \"#utility.yul\":8294:8299   */\n  dup5\n    /* \"#utility.yul\":8290:8311   */\n  and\n    /* \"#utility.yul\":8281:8311   */\n  swap4\n  pop\n    /* \"#utility.yul\":8354:8358   */\n  dup1\n    /* \"#utility.yul\":8344:8352   */\n  dup7\n    /* \"#utility.yul\":8340:8359   */\n  and\n    /* \"#utility.yul\":8333:8338   */\n  dup5\n    /* \"#utility.yul\":8330:8360   */\n  or\n    /* \"#utility.yul\":8320:8360   */\n  swap3\n  pop\n    /* \"#utility.yul\":8049:8366   */\n  pop\n  pop\n    /* \"#utility.yul\":7973:8366   */\n  swap4\n  swap3\n  pop\n  pop\n  pop\n  jump\t// out\n    /* \"#utility.yul\":8372:8449   */\ntag_68:\n    /* \"#utility.yul\":8409:8416   */\n  0x00\n    /* \"#utility.yul\":8438:8443   */\n  dup2\n    /* \"#utility.yul\":8427:8443   */\n  swap1\n  pop\n    /* \"#utility.yul\":8372:8449   */\n  swap2\n  swap1\n  pop\n  jump\t// out\n    /* \"#utility.yul\":8455:8515   */\ntag_69:\n    /* \"#utility.yul\":8483:8486   */\n  0x00\n    /* \"#utility.yul\":8504:8509   */\n  dup2\n    /* \"#utility.yul\":8497:8509   */\n  swap1\n  pop\n    /* \"#utility.yul\":8455:8515   */\n  swap2\n  swap1\n  pop\n  jump\t// out\n    /* \"#utility.yul\":8521:8663   */\ntag_70:\n    /* \"#utility.yul\":8571:8580   */\n  0x00\n    /* \"#utility.yul\":8604:8657   */\n  tag_140\n    /* \"#utility.yul\":8622:8656   */\n  tag_141\n    /* \"#utility.yul\":8631:8655   */\n  tag_142\n    /* \"#utility.yul\":8649:8654   */\n  dup5\n    /* \"#utility.yul\":8631:8655   */\n  tag_68\n  jump\t// in\ntag_142:\n    /* \"#utility.yul\":8622:8656   */\n  tag_69\n  jump\t// in\ntag_141:\n    /* \"#utility.yul\":8604:8657   */\n  tag_68\n  jump\t// in\ntag_140:\n    /* \"#utility.yul\":8591:8657   */\n  swap1\n  pop\n    /* \"#utility.yul\":8521:8663   */\n  swap2\n  swap1\n  pop\n  jump\t// out\n    /* \"#utility.yul\":8669:8744   */\ntag_71:\n    /* \"#utility.yul\":8712:8715   */\n  0x00\n    /* \"#utility.yul\":8733:8738   */\n  dup2\n    /* \"#utility.yul\":8726:8738   */\n  swap1\n  pop\n    /* \"#utility.yul\":8669:8744   */\n  swap2\n  swap1\n  pop\n  jump\t// out\n    /* \"#utility.yul\":8750:9019   */\ntag_72:\n    /* \"#utility.yul\":8860:8899   */\n  tag_145\n    /* \"#utility.yul\":8891:8898   */\n  dup4\n    /* \"#utility.yul\":8860:8899   */\n  tag_70\n  jump\t// in\ntag_145:\n    /* \"#utility.yul\":8921:9012   */\n  tag_146\n    /* \"#utility.yul\":8970:9011   */\n  tag_147\n    /* \"#utility.yul\":8994:9010   */\n  dup3\n    /* \"#utility.yul\":8970:9011   */\n  tag_71\n  jump\t// in\ntag_147:\n    /* \"#utility.yul\":8962:8968   */\n  dup5\n    /* \"#utility.yul\":8955:8959   */\n  dup5\n    /* \"#utility.yul\":8949:8960   */\n  sload\n    /* \"#utility.yul\":8921:9012   */\n  tag_67\n  jump\t// in\ntag_146:\n    /* \"#utility.yul\":8915:8919   */\n  dup3\n    /* \"#utility.yul\":8908:9013   */\n  sstore\n    /* \"#utility.yul\":8826:9019   */\n  pop\n    /* \"#utility.yul\":8750:9019   */\n  pop\n  pop\n  pop\n  jump\t// out\n    /* \"#utility.yul\":9025:9098   */\ntag_73:\n    /* \"#utility.yul\":9070:9073   */\n  0x00\n    /* \"#utility.yul\":9025:9098   */\n  swap1\n  jump\t// out\n    /* \"#utility.yul\":9104:9293   */\ntag_74:\n    /* \"#utility.yul\":9181:9213   */\n  tag_150\n  tag_73\n  jump\t// in\ntag_150:\n    /* \"#utility.yul\":9222:9287   */\n  tag_151\n    /* \"#utility.yul\":9280:9286   */\n  dup2\n    /* \"#utility.yul\":9272:9278   */\n  dup5\n    /* \"#utility.yul\":9266:9270   */\n  dup5\n    /* \"#utility.yul\":9222:9287   */\n  tag_72\n  jump\t// in\ntag_151:\n    /* \"#utility.yul\":9157:9293   */\n  pop\n    /* \"#utility.yul\":9104:9293   */\n  pop\n  pop\n  jump\t// out\n    /* \"#utility.yul\":9299:9485   */\ntag_75:\n    /* \"#utility.yul\":9359:9479   */\ntag_153:\n    /* \"#utility.yul\":9376:9379   */\n  dup2\n    /* \"#utility.yul\":9369:9374   */\n  dup2\n    /* \"#utility.yul\":9366:9380   */\n  lt\n    /* \"#utility.yul\":9359:9479   */\n  iszero\n  tag_155\n  jumpi\n    /* \"#utility.yul\":9430:9469   */\n  tag_156\n    /* \"#utility.yul\":9467:9468   */\n  0x00\n    /* \"#utility.yul\":9460:9465   */\n  dup3\n    /* \"#utility.yul\":9430:9469   */\n  tag_74\n  jump\t// in\ntag_156:\n    /* \"#utility.yul\":9403:9404   */\n  0x01\n    /* \"#utility.yul\":9396:9401   */\n  dup2\n    /* \"#utility.yul\":9392:9405   */\n  add\n    /* \"#utility.yul\":9383:9405   */\n  swap1\n  pop\n    /* \"#utility.yul\":9359:9479   */\n  jump(tag_153)\ntag_155:\n    /* \"#utility.yul\":9299:9485   */\n  pop\n  pop\n  jump\t// out\n    /* \"#utility.yul\":9491:10034   */\ntag_76:\n    /* \"#utility.yul\":9592:9594   */\n  0x1f\n    /* \"#utility.yul\":9587:9590   */\n  dup3\n    /* \"#utility.yul\":9584:9595   */\n  gt\n    /* \"#utility.yul\":9581:10027   */\n  iszero\n  tag_158\n  jumpi\n    /* \"#utility.yul\":9626:9664   */\n  tag_159\n    /* \"#utility.yul\":9658:9663   */\n  dup2\n    /* \"#utility.yul\":9626:9664   */\n  tag_64\n  jump\t// in\ntag_159:\n    /* \"#utility.yul\":9710:9739   */\n  tag_160\n    /* \"#utility.yul\":9728:9738   */\n  dup5\n    /* \"#utility.yul\":9710:9739   */\n  tag_65\n  jump\t// in\ntag_160:\n    /* \"#utility.yul\":9700:9708   */\n  dup2\n    /* \"#utility.yul\":9696:9740   */\n  add\n    /* \"#utility.yul\":9893:9895   */\n  0x20\n    /* \"#utility.yul\":9881:9891   */\n  dup6\n    /* \"#utility.yul\":9878:9896   */\n  lt\n    /* \"#utility.yul\":9875:9924   */\n  iszero\n  tag_161\n  jumpi\n    /* \"#utility.yul\":9914:9922   */\n  dup2\n    /* \"#utility.yul\":9899:9922   */\n  swap1\n  pop\n    /* \"#utility.yul\":9875:9924   */\ntag_161:\n    /* \"#utility.yul\":9937:10017   */\n  tag_162\n    /* \"#utility.yul\":9993:10015   */\n  tag_163\n    /* \"#utility.yul\":10011:10014   */\n  dup6\n    /* \"#utility.yul\":9993:10015   */\n  tag_65\n  jump\t// in\ntag_163:\n    /* \"#utility.yul\":9983:9991   */\n  dup4\n    /* \"#utility.yul\":9979:10016   */\n  add\n    /* \"#utility.yul\":9966:9977   */\n  dup3\n    /* \"#utility.yul\":9937:10017   */\n  tag_75\n  jump\t// in\ntag_162:\n    /* \"#utility.yul\":9596:10027   */\n  pop\n  pop\n    /* \"#utility.yul\":9581:10027   */\ntag_158:\n    /* \"#utility.yul\":9491:10034   */\n  pop\n  pop\n  pop\n  jump\t// out\n    /* \"#utility.yul\":10040:10157   */\ntag_77:\n    /* \"#utility.yul\":10094:10102   */\n  0x00\n    /* \"#utility.yul\":10144:10149   */\n  dup3\n    /* \"#utility.yul\":10138:10142   */\n  dup3\n    /* \"#utility.yul\":10134:10150   */\n  shr\n    /* \"#utility.yul\":10113:10150   */\n  swap1\n  pop\n    /* \"#utility.yul\":10040:10157   */\n  swap3\n  swap2\n  pop\n  pop\n  jump\t// out\n    /* \"#utility.yul\":10163:10332   */\ntag_78:\n    /* \"#utility.yul\":10207:10213   */\n  0x00\n    /* \"#utility.yul\":10240:10291   */\n  tag_166\n    /* \"#utility.yul\":10288:10289   */\n  0x00\n    /* \"#utility.yul\":10284:10290   */\n  not\n    /* \"#utility.yul\":10276:10281   */\n  dup5\n    /* \"#utility.yul\":10273:10274   */\n  0x08\n    /* \"#utility.yul\":10269:10282   */\n  mul\n    /* \"#utility.yul\":10240:10291   */\n  tag_77\n  jump\t// in\ntag_166:\n    /* \"#utility.yul\":10236:10292   */\n  not\n    /* \"#utility.yul\":10321:10325   */\n  dup1\n    /* \"#utility.yul\":10315:10319   */\n  dup4\n    /* \"#utility.yul\":10311:10326   */\n  and\n    /* \"#utility.yul\":10301:10326   */\n  swap2\n  pop\n    /* \"#utility.yul\":10214:10332   */\n  pop\n    /* \"#utility.yul\":10163:10332   */\n  swap3\n  swap2\n  pop\n  pop\n  jump\t// out\n    /* \"#utility.yul\":10337:10632   */\ntag_79:\n    /* \"#utility.yul\":10413:10417   */\n  0x00\n    /* \"#utility.yul\":10559:10588   */\n  tag_168\n    /* \"#utility.yul\":10584:10587   */\n  dup4\n    /* \"#utility.yul\":10578:10582   */\n  dup4\n    /* \"#utility.yul\":10559:10588   */\n  tag_78\n  jump\t// in\ntag_168:\n    /* \"#utility.yul\":10551:10588   */\n  swap2\n  pop\n    /* \"#utility.yul\":10621:10624   */\n  dup3\n    /* \"#utility.yul\":10618:10619   */\n  0x02\n    /* \"#utility.yul\":10614:10625   */\n  mul\n    /* \"#utility.yul\":10608:10612   */\n  dup3\n    /* \"#utility.yul\":10605:10626   */\n  or\n    /* \"#utility.yul\":10597:10626   */\n  swap1\n  pop\n    /* \"#utility.yul\":10337:10632   */\n  swap3\n  swap2\n  pop\n  pop\n  jump\t// out\n    /* \"#utility.yul\":10637:12032   */\ntag_32:\n    /* \"#utility.yul\":10754:10791   */\n  tag_170\n    /* \"#utility.yul\":10787:10790   */\n  dup3\n    /* \"#utility.yul\":10754:10791   */\n  tag_61\n  jump\t// in\ntag_170:\n    /* \"#utility.yul\":10856:10874   */\n  0xffffffffffffffff\n    /* \"#utility.yul\":10848:10854   */\n  dup2\n    /* \"#utility.yul\":10845:10875   */\n  gt\n    /* \"#utility.yul\":10842:10898   */\n  iszero\n  tag_171\n  jumpi\n    /* \"#utility.yul\":10878:10896   */\n  tag_172\n  tag_62\n  jump\t// in\ntag_172:\n    /* \"#utility.yul\":10842:10898   */\ntag_171:\n    /* \"#utility.yul\":10922:10960   */\n  tag_173\n    /* \"#utility.yul\":10954:10958   */\n  dup3\n    /* \"#utility.yul\":10948:10959   */\n  sload\n    /* \"#utility.yul\":10922:10960   */\n  tag_42\n  jump\t// in\ntag_173:\n    /* \"#utility.yul\":11007:11074   */\n  tag_174\n    /* \"#utility.yul\":11067:11073   */\n  dup3\n    /* \"#utility.yul\":11059:11065   */\n  dup3\n    /* \"#utility.yul\":11053:11057   */\n  dup6\n    /* \"#utility.yul\":11007:11074   */\n  tag_76\n  jump\t// in\ntag_174:\n    /* \"#utility.yul\":11101:11102   */\n  0x00\n    /* \"#utility.yul\":11125:11129   */\n  0x20\n    /* \"#utility.yul\":11112:11129   */\n  swap1\n  pop\n    /* \"#utility.yul\":11157:11159   */\n  0x1f\n    /* \"#utility.yul\":11149:11155   */\n  dup4\n    /* \"#utility.yul\":11146:11160   */\n  gt\n    /* \"#utility.yul\":11174:11175   */\n  0x01\n    /* \"#utility.yul\":11169:11787   */\n  dup2\n  eq\n  tag_176\n  jumpi\n    /* \"#utility.yul\":11831:11832   */\n  0x00\n    /* \"#utility.yul\":11848:11854   */\n  dup5\n    /* \"#utility.yul\":11845:11922   */\n  iszero\n  tag_177\n  jumpi\n    /* \"#utility.yul\":11897:11906   */\n  dup3\n    /* \"#utility.yul\":11892:11895   */\n  dup8\n    /* \"#utility.yul\":11888:11907   */\n  add\n    /* \"#utility.yul\":11882:11908   */\n  mload\n    /* \"#utility.yul\":11873:11908   */\n  swap1\n  pop\n    /* \"#utility.yul\":11845:11922   */\ntag_177:\n    /* \"#utility.yul\":11948:12015   */\n  tag_178\n    /* \"#utility.yul\":12008:12014   */\n  dup6\n    /* \"#utility.yul\":12001:12006   */\n  dup3\n    /* \"#utility.yul\":11948:12015   */\n  tag_79\n  jump\t// in\ntag_178:\n    /* \"#utility.yul\":11942:11946   */\n  dup7\n    /* \"#utility.yul\":11935:12016   */\n  sstore\n    /* \"#utility.yul\":11804:12026   */\n  pop\n    /* \"#utility.yul\":11139:12026   */\n  jump(tag_175)\n    /* \"#utility.yul\":11169:11787   */\ntag_176:\n    /* \"#utility.yul\":11221:11225   */\n  0x1f\n    /* \"#utility.yul\":11217:11226   */\n  not\n    /* \"#utility.yul\":11209:11215   */\n  dup5\n    /* \"#utility.yul\":11205:11227   */\n  and\n    /* \"#utility.yul\":11255:11292   */\n  tag_179\n    /* \"#utility.yul\":11287:11291   */\n  dup7\n    /* \"#utility.yul\":11255:11292   */\n  tag_64\n  jump\t// in\ntag_179:\n    /* \"#utility.yul\":11314:11315   */\n  0x00\n    /* \"#utility.yul\":11328:11536   */\ntag_180:\n    /* \"#utility.yul\":11342:11349   */\n  dup3\n    /* \"#utility.yul\":11339:11340   */\n  dup2\n    /* \"#utility.yul\":11336:11350   */\n  lt\n    /* \"#utility.yul\":11328:11536   */\n  iszero\n  tag_182\n  jumpi\n    /* \"#utility.yul\":11421:11430   */\n  dup5\n    /* \"#utility.yul\":11416:11419   */\n  dup10\n    /* \"#utility.yul\":11412:11431   */\n  add\n    /* \"#utility.yul\":11406:11432   */\n  mload\n    /* \"#utility.yul\":11398:11404   */\n  dup3\n    /* \"#utility.yul\":11391:11433   */\n  sstore\n    /* \"#utility.yul\":11472:11473   */\n  0x01\n    /* \"#utility.yul\":11464:11470   */\n  dup3\n    /* \"#utility.yul\":11460:11474   */\n  add\n    /* \"#utility.yul\":11450:11474   */\n  swap2\n  pop\n    /* \"#utility.yul\":11519:11521   */\n  0x20\n    /* \"#utility.yul\":11508:11517   */\n  dup6\n    /* \"#utility.yul\":11504:11522   */\n  add\n    /* \"#utility.yul\":11491:11522   */\n  swap5\n  pop\n    /* \"#utility.yul\":11365:11369   */\n  0x20\n    /* \"#utility.yul\":11362:11363   */\n  dup2\n    /* \"#utility.yul\":11358:11370   */\n  add\n    /* \"#utility.yul\":11353:11370   */\n  swap1\n  pop\n    /* \"#utility.yul\":11328:11536   */\n  jump(tag_180)\ntag_182:\n    /* \"#utility.yul\":11564:11570   */\n  dup7\n    /* \"#utility.yul\":11555:11562   */\n  dup4\n    /* \"#utility.yul\":11552:11571   */\n  lt\n    /* \"#utility.yul\":11549:11728   */\n  iszero\n  tag_183\n  jumpi\n    /* \"#utility.yul\":11622:11631   */\n  dup5\n    /* \"#utility.yul\":11617:11620   */\n  dup10\n    /* \"#utility.yul\":11613:11632   */\n  add\n    /* \"#utility.yul\":11607:11633   */\n  mload\n    /* \"#utility.yul\":11665:11713   */\n  tag_184\n    /* \"#utility.yul\":11707:11711   */\n  0x1f\n    /* \"#utility.yul\":11699:11705   */\n  dup10\n    /* \"#utility.yul\":11695:11712   */\n  and\n    /* \"#utility.yul\":11684:11693   */\n  dup3\n    /* \"#utility.yul\":11665:11713   */\n  tag_78\n  jump\t// in\ntag_184:\n    /* \"#utility.yul\":11657:11663   */\n  dup4\n    /* \"#utility.yul\":11650:11714   */\n  sstore\n    /* \"#utility.yul\":11572:11728   */\n  pop\n    /* \"#utility.yul\":11549:11728   */\ntag_183:\n    /* \"#utility.yul\":11774:11775   */\n  0x01\n    /* \"#utility.yul\":11770:11771   */\n  0x02\n    /* \"#utility.yul\":11762:11768   */\n  dup9\n    /* \"#utility.yul\":11758:11772   */\n  mul\n    /* \"#utility.yul\":11754:11776   */\n  add\n    /* \"#utility.yul\":11748:11752   */\n  dup9\n    /* \"#utility.yul\":11741:11777   */\n  sstore\n    /* \"#utility.yul\":11176:11787   */\n  pop\n  pop\n  pop\n    /* \"#utility.yul\":11139:12026   */\ntag_175:\n  pop\n    /* \"#utility.yul\":10729:12032   */\n  pop\n  pop\n  pop\n    /* \"#utility.yul\":10637:12032   */\n  pop\n  pop\n  jump\t// out\n    /* \"task1/RomanConverter.sol\":59:1980  contract RomanConverter {... */\ntag_22:\n  dataSize(sub_0)\n  dup1\n  dataOffset(sub_0)\n  0x00\n  codecopy\n  0x00\n  return\nstop\n\nsub_0: assembly {\n        /* \"task1/RomanConverter.sol\":59:1980  contract RomanConverter {... */\n      mstore(0x40, 0x80)\n      callvalue\n      dup1\n      iszero\n      tag_1\n      jumpi\n      0x00\n      dup1\n      revert\n    tag_1:\n      pop\n      jumpi(tag_2, lt(calldatasize, 0x04))\n      shr(0xe0, calldataload(0x00))\n      dup1\n      0x1dd92aa0\n      eq\n      tag_3\n      jumpi\n      dup1\n      0x5e30ea3c\n      eq\n      tag_4\n      jumpi\n      dup1\n      0xcb159dfe\n      eq\n      tag_5\n      jumpi\n    tag_2:\n      0x00\n      dup1\n      revert\n        /* \"task1/RomanConverter.sol\":375:420  mapping (string => int256) public romanValues */\n    tag_3:\n      tag_6\n      0x04\n      dup1\n      calldatasize\n      sub\n      dup2\n      add\n      swap1\n      tag_7\n      swap2\n      swap1\n      tag_8\n      jump\t// in\n    tag_7:\n      tag_9\n      jump\t// in\n    tag_6:\n      mload(0x40)\n      tag_10\n      swap2\n      swap1\n      tag_11\n      jump\t// in\n    tag_10:\n      mload(0x40)\n      dup1\n      swap2\n      sub\n      swap1\n      return\n        /* \"task1/RomanConverter.sol\":672:1110  function unitToRoman(uint256 _num) public view returns (string memory) {... */\n    tag_4:\n      tag_12\n      0x04\n      dup1\n      calldatasize\n      sub\n      dup2\n      add\n      swap1\n      tag_13\n      swap2\n      swap1\n      tag_14\n      jump\t// in\n    tag_13:\n      tag_15\n      jump\t// in\n    tag_12:\n      mload(0x40)\n      tag_16\n      swap2\n      swap1\n      tag_17\n      jump\t// in\n    tag_16:\n      mload(0x40)\n      dup1\n      swap2\n      sub\n      swap1\n      return\n        /* \"task1/RomanConverter.sol\":1164:1977  function romanToInt(string memory s) public view returns (int256) {... */\n    tag_5:\n      tag_18\n      0x04\n      dup1\n      calldatasize\n      sub\n      dup2\n      add\n      swap1\n      tag_19\n      swap2\n      swap1\n      tag_8\n      jump\t// in\n    tag_19:\n      tag_20\n      jump\t// in\n    tag_18:\n      mload(0x40)\n      tag_21\n      swap2\n      swap1\n      tag_11\n      jump\t// in\n    tag_21:\n      mload(0x40)\n      dup1\n      swap2\n      sub\n      swap1\n      return\n        /* \"task1/RomanConverter.sol\":375:420  mapping (string => int256) public romanValues */\n    tag_9:\n      0x02\n      dup2\n      dup1\n      mload\n      0x20\n      dup2\n      add\n      dup3\n      add\n      dup1\n      mload\n      dup5\n      dup3\n      mstore\n      0x20\n      dup4\n      add\n      0x20\n      dup6\n      add\n      keccak256\n      dup2\n      dup4\n      mstore\n      dup1\n      swap6\n      pop\n      pop\n      pop\n      pop\n      pop\n      pop\n      0x00\n      swap2\n      pop\n      swap1\n      pop\n      sload\n      dup2\n      jump\t// out\n        /* \"task1/RomanConverter.sol\":672:1110  function unitToRoman(uint256 _num) public view returns (string memory) {... */\n    tag_15:\n        /* \"task1/RomanConverter.sol\":728:741  string memory */\n      0x60\n        /* \"task1/RomanConverter.sol\":766:767  0 */\n      0x00\n        /* \"task1/RomanConverter.sol\":761:765  _num */\n      dup3\n        /* \"task1/RomanConverter.sol\":761:767  _num>0 */\n      gt\n        /* \"task1/RomanConverter.sol\":761:780  _num>0 && _num<4000 */\n      dup1\n      iszero\n      tag_23\n      jumpi\n      pop\n        /* \"task1/RomanConverter.sol\":776:780  4000 */\n      0x0fa0\n        /* \"task1/RomanConverter.sol\":771:775  _num */\n      dup3\n        /* \"task1/RomanConverter.sol\":771:780  _num<4000 */\n      lt\n        /* \"task1/RomanConverter.sol\":761:780  _num>0 && _num<4000 */\n    tag_23:\n        /* \"task1/RomanConverter.sol\":753:817  require(_num>0 && _num<4000, \"Input must be between 1 and 3999\") */\n      tag_24\n      jumpi\n      mload(0x40)\n      0x08c379a000000000000000000000000000000000000000000000000000000000\n      dup2\n      mstore\n      0x04\n      add\n      tag_25\n      swap1\n      tag_26\n      jump\t// in\n    tag_25:\n      mload(0x40)\n      dup1\n      swap2\n      sub\n      swap1\n      revert\n    tag_24:\n        /* \"task1/RomanConverter.sol\":827:847  string memory result */\n      0x00\n        /* \"task1/RomanConverter.sol\":827:852  string memory result = \"\" */\n      mload(0x40)\n      dup1\n      0x20\n      add\n      0x40\n      mstore\n      dup1\n      0x00\n      dup2\n      mstore\n      pop\n      swap1\n      pop\n        /* \"task1/RomanConverter.sol\":867:876  uint256 i */\n      0x00\n        /* \"task1/RomanConverter.sol\":862:1072  for (uint256 i = 0; nums[i] > 0; i++ ) {... */\n    tag_27:\n        /* \"task1/RomanConverter.sol\":892:893  0 */\n      0x00\n        /* \"task1/RomanConverter.sol\":882:886  nums */\n      dup1\n        /* \"task1/RomanConverter.sol\":887:888  i */\n      dup3\n        /* \"task1/RomanConverter.sol\":882:889  nums[i] */\n      dup2\n      sload\n      dup2\n      lt\n      tag_30\n      jumpi\n      tag_31\n      tag_32\n      jump\t// in\n    tag_31:\n    tag_30:\n      swap1\n      0x00\n      mstore\n      keccak256(0x00, 0x20)\n      add\n      sload\n        /* \"task1/RomanConverter.sol\":882:893  nums[i] > 0 */\n      gt\n        /* \"task1/RomanConverter.sol\":862:1072  for (uint256 i = 0; nums[i] > 0; i++ ) {... */\n      iszero\n      tag_28\n      jumpi\n        /* \"task1/RomanConverter.sol\":915:1062  while (_num >= nums[i]){... */\n    tag_34:\n        /* \"task1/RomanConverter.sol\":930:934  nums */\n      0x00\n        /* \"task1/RomanConverter.sol\":935:936  i */\n      dup2\n        /* \"task1/RomanConverter.sol\":930:937  nums[i] */\n      dup2\n      sload\n      dup2\n      lt\n      tag_36\n      jumpi\n      tag_37\n      tag_32\n      jump\t// in\n    tag_37:\n    tag_36:\n      swap1\n      0x00\n      mstore\n      keccak256(0x00, 0x20)\n      add\n      sload\n        /* \"task1/RomanConverter.sol\":922:926  _num */\n      dup5\n        /* \"task1/RomanConverter.sol\":922:937  _num >= nums[i] */\n      lt\n        /* \"task1/RomanConverter.sol\":915:1062  while (_num >= nums[i]){... */\n      tag_35\n      jumpi\n        /* \"task1/RomanConverter.sol\":989:995  result */\n      dup2\n        /* \"task1/RomanConverter.sol\":997:1009  romanSymbols */\n      0x01\n        /* \"task1/RomanConverter.sol\":1010:1011  i */\n      dup3\n        /* \"task1/RomanConverter.sol\":997:1012  romanSymbols[i] */\n      dup2\n      sload\n      dup2\n      lt\n      tag_39\n      jumpi\n      tag_40\n      tag_32\n      jump\t// in\n    tag_40:\n    tag_39:\n      swap1\n      0x00\n      mstore\n      keccak256(0x00, 0x20)\n      add\n        /* \"task1/RomanConverter.sol\":972:1013  abi.encodePacked(result, romanSymbols[i]) */\n      add(0x20, mload(0x40))\n      tag_42\n      swap3\n      swap2\n      swap1\n      tag_43\n      jump\t// in\n    tag_42:\n      mload(0x40)\n      0x20\n      dup2\n      dup4\n      sub\n      sub\n      dup2\n      mstore\n      swap1\n      0x40\n      mstore\n        /* \"task1/RomanConverter.sol\":956:1014  result = string(abi.encodePacked(result, romanSymbols[i])) */\n      swap2\n      pop\n        /* \"task1/RomanConverter.sol\":1040:1044  nums */\n      0x00\n        /* \"task1/RomanConverter.sol\":1045:1046  i */\n      dup2\n        /* \"task1/RomanConverter.sol\":1040:1047  nums[i] */\n      dup2\n      sload\n      dup2\n      lt\n      tag_44\n      jumpi\n      tag_45\n      tag_32\n      jump\t// in\n    tag_45:\n    tag_44:\n      swap1\n      0x00\n      mstore\n      keccak256(0x00, 0x20)\n      add\n      sload\n        /* \"task1/RomanConverter.sol\":1032:1047  _num -= nums[i] */\n      dup5\n      tag_47\n      swap2\n      swap1\n      tag_48\n      jump\t// in\n    tag_47:\n      swap4\n      pop\n        /* \"task1/RomanConverter.sol\":915:1062  while (_num >= nums[i]){... */\n      jump(tag_34)\n    tag_35:\n        /* \"task1/RomanConverter.sol\":895:898  i++ */\n      dup1\n      dup1\n      tag_49\n      swap1\n      tag_50\n      jump\t// in\n    tag_49:\n      swap2\n      pop\n      pop\n        /* \"task1/RomanConverter.sol\":862:1072  for (uint256 i = 0; nums[i] > 0; i++ ) {... */\n      jump(tag_27)\n    tag_28:\n      pop\n        /* \"task1/RomanConverter.sol\":1097:1103  result */\n      dup1\n        /* \"task1/RomanConverter.sol\":1090:1103  return result */\n      swap2\n      pop\n      pop\n        /* \"task1/RomanConverter.sol\":672:1110  function unitToRoman(uint256 _num) public view returns (string memory) {... */\n      swap2\n      swap1\n      pop\n      jump\t// out\n        /* \"task1/RomanConverter.sol\":1164:1977  function romanToInt(string memory s) public view returns (int256) {... */\n    tag_20:\n        /* \"task1/RomanConverter.sol\":1222:1228  int256 */\n      0x00\n        /* \"task1/RomanConverter.sol\":1240:1253  int256 result */\n      dup1\n        /* \"task1/RomanConverter.sol\":1256:1257  0 */\n      0x00\n        /* \"task1/RomanConverter.sol\":1240:1257  int256 result = 0 */\n      swap1\n      pop\n        /* \"task1/RomanConverter.sol\":1267:1290  bytes memory romanBytes */\n      0x00\n        /* \"task1/RomanConverter.sol\":1299:1300  s */\n      dup4\n        /* \"task1/RomanConverter.sol\":1267:1301  bytes memory romanBytes = bytes(s) */\n      swap1\n      pop\n        /* \"task1/RomanConverter.sol\":1376:1385  uint256 i */\n      0x00\n        /* \"task1/RomanConverter.sol\":1371:1939  for (uint256 i = 0; i < romanBytes.length; i++) {... */\n    tag_52:\n        /* \"task1/RomanConverter.sol\":1395:1405  romanBytes */\n      dup2\n        /* \"task1/RomanConverter.sol\":1395:1412  romanBytes.length */\n      mload\n        /* \"task1/RomanConverter.sol\":1391:1392  i */\n      dup2\n        /* \"task1/RomanConverter.sol\":1391:1412  i < romanBytes.length */\n      lt\n        /* \"task1/RomanConverter.sol\":1371:1939  for (uint256 i = 0; i < romanBytes.length; i++) {... */\n      iszero\n      tag_53\n      jumpi\n        /* \"task1/RomanConverter.sol\":1473:1487  int256 current */\n      0x00\n        /* \"task1/RomanConverter.sol\":1490:1501  romanValues */\n      0x02\n        /* \"task1/RomanConverter.sol\":1526:1536  romanBytes */\n      dup4\n        /* \"task1/RomanConverter.sol\":1537:1538  i */\n      dup4\n        /* \"task1/RomanConverter.sol\":1526:1539  romanBytes[i] */\n      dup2\n      mload\n      dup2\n      lt\n      tag_55\n      jumpi\n      tag_56\n      tag_32\n      jump\t// in\n    tag_56:\n    tag_55:\n      0x20\n      add\n      add\n      mload\n      0xf8\n      shr\n      0xf8\n      shl\n        /* \"task1/RomanConverter.sol\":1509:1540  abi.encodePacked(romanBytes[i]) */\n      add(0x20, mload(0x40))\n      tag_57\n      swap2\n      swap1\n      tag_58\n      jump\t// in\n    tag_57:\n      mload(0x40)\n      0x20\n      dup2\n      dup4\n      sub\n      sub\n      dup2\n      mstore\n      swap1\n      0x40\n      mstore\n        /* \"task1/RomanConverter.sol\":1490:1542  romanValues[string(abi.encodePacked(romanBytes[i]))] */\n      mload(0x40)\n      tag_59\n      swap2\n      swap1\n      tag_60\n      jump\t// in\n    tag_59:\n      swap1\n      dup2\n      mstore\n      0x20\n      add\n      mload(0x40)\n      dup1\n      swap2\n      sub\n      swap1\n      keccak256\n      sload\n        /* \"task1/RomanConverter.sol\":1473:1542  int256 current = romanValues[string(abi.encodePacked(romanBytes[i]))] */\n      swap1\n      pop\n        /* \"task1/RomanConverter.sol\":1691:1692  1 */\n      0x01\n        /* \"task1/RomanConverter.sol\":1671:1681  romanBytes */\n      dup4\n        /* \"task1/RomanConverter.sol\":1671:1688  romanBytes.length */\n      mload\n        /* \"task1/RomanConverter.sol\":1671:1692  romanBytes.length - 1 */\n      tag_61\n      swap2\n      swap1\n      tag_48\n      jump\t// in\n    tag_61:\n        /* \"task1/RomanConverter.sol\":1667:1668  i */\n      dup3\n        /* \"task1/RomanConverter.sol\":1667:1692  i < romanBytes.length - 1 */\n      lt\n        /* \"task1/RomanConverter.sol\":1667:1762  i < romanBytes.length - 1 && current < romanValues[string(abi.encodePacked(romanBytes[i + 1]))] */\n      dup1\n      iszero\n      tag_62\n      jumpi\n      pop\n        /* \"task1/RomanConverter.sol\":1706:1717  romanValues */\n      0x02\n        /* \"task1/RomanConverter.sol\":1742:1752  romanBytes */\n      dup4\n        /* \"task1/RomanConverter.sol\":1757:1758  1 */\n      0x01\n        /* \"task1/RomanConverter.sol\":1753:1754  i */\n      dup5\n        /* \"task1/RomanConverter.sol\":1753:1758  i + 1 */\n      tag_63\n      swap2\n      swap1\n      tag_64\n      jump\t// in\n    tag_63:\n        /* \"task1/RomanConverter.sol\":1742:1759  romanBytes[i + 1] */\n      dup2\n      mload\n      dup2\n      lt\n      tag_65\n      jumpi\n      tag_66\n      tag_32\n      jump\t// in\n    tag_66:\n    tag_65:\n      0x20\n      add\n      add\n      mload\n      0xf8\n      shr\n      0xf8\n      shl\n        /* \"task1/RomanConverter.sol\":1725:1760  abi.encodePacked(romanBytes[i + 1]) */\n      add(0x20, mload(0x40))\n      tag_67\n      swap2\n      swap1\n      tag_58\n      jump\t// in\n    tag_67:\n      mload(0x40)\n      0x20\n      dup2\n      dup4\n      sub\n      sub\n      dup2\n      mstore\n      swap1\n      0x40\n      mstore\n        /* \"task1/RomanConverter.sol\":1706:1762  romanValues[string(abi.encodePacked(romanBytes[i + 1]))] */\n      mload(0x40)\n      tag_68\n      swap2\n      swap1\n      tag_60\n      jump\t// in\n    tag_68:\n      swap1\n      dup2\n      mstore\n      0x20\n      add\n      mload(0x40)\n      dup1\n      swap2\n      sub\n      swap1\n      keccak256\n      sload\n        /* \"task1/RomanConverter.sol\":1696:1703  current */\n      dup2\n        /* \"task1/RomanConverter.sol\":1696:1762  current < romanValues[string(abi.encodePacked(romanBytes[i + 1]))] */\n      slt\n        /* \"task1/RomanConverter.sol\":1667:1762  i < romanBytes.length - 1 && current < romanValues[string(abi.encodePacked(romanBytes[i + 1]))] */\n    tag_62:\n        /* \"task1/RomanConverter.sol\":1663:1929  if (i < romanBytes.length - 1 && current < romanValues[string(abi.encodePacked(romanBytes[i + 1]))]) {... */\n      iszero\n      tag_69\n      jumpi\n        /* \"task1/RomanConverter.sol\":1792:1799  current */\n      dup1\n        /* \"task1/RomanConverter.sol\":1782:1799  result -= current */\n      dup5\n      tag_70\n      swap2\n      swap1\n      tag_71\n      jump\t// in\n    tag_70:\n      swap4\n      pop\n        /* \"task1/RomanConverter.sol\":1663:1929  if (i < romanBytes.length - 1 && current < romanValues[string(abi.encodePacked(romanBytes[i + 1]))]) {... */\n      jump(tag_72)\n    tag_69:\n        /* \"task1/RomanConverter.sol\":1907:1914  current */\n      dup1\n        /* \"task1/RomanConverter.sol\":1897:1914  result += current */\n      dup5\n      tag_73\n      swap2\n      swap1\n      tag_74\n      jump\t// in\n    tag_73:\n      swap4\n      pop\n        /* \"task1/RomanConverter.sol\":1663:1929  if (i < romanBytes.length - 1 && current < romanValues[string(abi.encodePacked(romanBytes[i + 1]))]) {... */\n    tag_72:\n        /* \"task1/RomanConverter.sol\":1419:1939  {... */\n      pop\n        /* \"task1/RomanConverter.sol\":1414:1417  i++ */\n      dup1\n      dup1\n      0x01\n      add\n      swap2\n      pop\n      pop\n        /* \"task1/RomanConverter.sol\":1371:1939  for (uint256 i = 0; i < romanBytes.length; i++) {... */\n      jump(tag_52)\n    tag_53:\n      pop\n        /* \"task1/RomanConverter.sol\":1964:1970  result */\n      dup2\n        /* \"task1/RomanConverter.sol\":1957:1970  return result */\n      swap3\n      pop\n      pop\n      pop\n        /* \"task1/RomanConverter.sol\":1164:1977  function romanToInt(string memory s) public view returns (int256) {... */\n      swap2\n      swap1\n      pop\n      jump\t// out\n        /* \"#utility.yul\":7:82   */\n    tag_75:\n        /* \"#utility.yul\":40:46   */\n      0x00\n        /* \"#utility.yul\":73:75   */\n      0x40\n        /* \"#utility.yul\":67:76   */\n      mload\n        /* \"#utility.yul\":57:76   */\n      swap1\n      pop\n        /* \"#utility.yul\":7:82   */\n      swap1\n      jump\t// out\n        /* \"#utility.yul\":88:205   */\n    tag_76:\n        /* \"#utility.yul\":197:198   */\n      0x00\n        /* \"#utility.yul\":194:195   */\n      dup1\n        /* \"#utility.yul\":187:199   */\n      revert\n        /* \"#utility.yul\":211:328   */\n    tag_77:\n        /* \"#utility.yul\":320:321   */\n      0x00\n        /* \"#utility.yul\":317:318   */\n      dup1\n        /* \"#utility.yul\":310:322   */\n      revert\n        /* \"#utility.yul\":334:451   */\n    tag_78:\n        /* \"#utility.yul\":443:444   */\n      0x00\n        /* \"#utility.yul\":440:441   */\n      dup1\n        /* \"#utility.yul\":433:445   */\n      revert\n        /* \"#utility.yul\":457:574   */\n    tag_79:\n        /* \"#utility.yul\":566:567   */\n      0x00\n        /* \"#utility.yul\":563:564   */\n      dup1\n        /* \"#utility.yul\":556:568   */\n      revert\n        /* \"#utility.yul\":580:682   */\n    tag_80:\n        /* \"#utility.yul\":621:627   */\n      0x00\n        /* \"#utility.yul\":672:674   */\n      0x1f\n        /* \"#utility.yul\":668:675   */\n      not\n        /* \"#utility.yul\":663:665   */\n      0x1f\n        /* \"#utility.yul\":656:661   */\n      dup4\n        /* \"#utility.yul\":652:666   */\n      add\n        /* \"#utility.yul\":648:676   */\n      and\n        /* \"#utility.yul\":638:676   */\n      swap1\n      pop\n        /* \"#utility.yul\":580:682   */\n      swap2\n      swap1\n      pop\n      jump\t// out\n        /* \"#utility.yul\":688:868   */\n    tag_81:\n        /* \"#utility.yul\":736:813   */\n      0x4e487b7100000000000000000000000000000000000000000000000000000000\n        /* \"#utility.yul\":733:734   */\n      0x00\n        /* \"#utility.yul\":726:814   */\n      mstore\n        /* \"#utility.yul\":833:837   */\n      0x41\n        /* \"#utility.yul\":830:831   */\n      0x04\n        /* \"#utility.yul\":823:838   */\n      mstore\n        /* \"#utility.yul\":857:861   */\n      0x24\n        /* \"#utility.yul\":854:855   */\n      0x00\n        /* \"#utility.yul\":847:862   */\n      revert\n        /* \"#utility.yul\":874:1155   */\n    tag_82:\n        /* \"#utility.yul\":957:984   */\n      tag_118\n        /* \"#utility.yul\":979:983   */\n      dup3\n        /* \"#utility.yul\":957:984   */\n      tag_80\n      jump\t// in\n    tag_118:\n        /* \"#utility.yul\":949:955   */\n      dup2\n        /* \"#utility.yul\":945:985   */\n      add\n        /* \"#utility.yul\":1087:1093   */\n      dup2\n        /* \"#utility.yul\":1075:1085   */\n      dup2\n        /* \"#utility.yul\":1072:1094   */\n      lt\n        /* \"#utility.yul\":1051:1069   */\n      0xffffffffffffffff\n        /* \"#utility.yul\":1039:1049   */\n      dup3\n        /* \"#utility.yul\":1036:1070   */\n      gt\n        /* \"#utility.yul\":1033:1095   */\n      or\n        /* \"#utility.yul\":1030:1118   */\n      iszero\n      tag_119\n      jumpi\n        /* \"#utility.yul\":1098:1116   */\n      tag_120\n      tag_81\n      jump\t// in\n    tag_120:\n        /* \"#utility.yul\":1030:1118   */\n    tag_119:\n        /* \"#utility.yul\":1138:1148   */\n      dup1\n        /* \"#utility.yul\":1134:1136   */\n      0x40\n        /* \"#utility.yul\":1127:1149   */\n      mstore\n        /* \"#utility.yul\":917:1155   */\n      pop\n        /* \"#utility.yul\":874:1155   */\n      pop\n      pop\n      jump\t// out\n        /* \"#utility.yul\":1161:1290   */\n    tag_83:\n        /* \"#utility.yul\":1195:1201   */\n      0x00\n        /* \"#utility.yul\":1222:1242   */\n      tag_122\n      tag_75\n      jump\t// in\n    tag_122:\n        /* \"#utility.yul\":1212:1242   */\n      swap1\n      pop\n        /* \"#utility.yul\":1251:1284   */\n      tag_123\n        /* \"#utility.yul\":1279:1283   */\n      dup3\n        /* \"#utility.yul\":1271:1277   */\n      dup3\n        /* \"#utility.yul\":1251:1284   */\n      tag_82\n      jump\t// in\n    tag_123:\n        /* \"#utility.yul\":1161:1290   */\n      swap2\n      swap1\n      pop\n      jump\t// out\n        /* \"#utility.yul\":1296:1604   */\n    tag_84:\n        /* \"#utility.yul\":1358:1362   */\n      0x00\n        /* \"#utility.yul\":1448:1466   */\n      0xffffffffffffffff\n        /* \"#utility.yul\":1440:1446   */\n      dup3\n        /* \"#utility.yul\":1437:1467   */\n      gt\n        /* \"#utility.yul\":1434:1490   */\n      iszero\n      tag_125\n      jumpi\n        /* \"#utility.yul\":1470:1488   */\n      tag_126\n      tag_81\n      jump\t// in\n    tag_126:\n        /* \"#utility.yul\":1434:1490   */\n    tag_125:\n        /* \"#utility.yul\":1508:1537   */\n      tag_127\n        /* \"#utility.yul\":1530:1536   */\n      dup3\n        /* \"#utility.yul\":1508:1537   */\n      tag_80\n      jump\t// in\n    tag_127:\n        /* \"#utility.yul\":1500:1537   */\n      swap1\n      pop\n        /* \"#utility.yul\":1592:1596   */\n      0x20\n        /* \"#utility.yul\":1586:1590   */\n      dup2\n        /* \"#utility.yul\":1582:1597   */\n      add\n        /* \"#utility.yul\":1574:1597   */\n      swap1\n      pop\n        /* \"#utility.yul\":1296:1604   */\n      swap2\n      swap1\n      pop\n      jump\t// out\n        /* \"#utility.yul\":1610:1758   */\n    tag_85:\n        /* \"#utility.yul\":1708:1714   */\n      dup3\n        /* \"#utility.yul\":1703:1706   */\n      dup2\n        /* \"#utility.yul\":1698:1701   */\n      dup4\n        /* \"#utility.yul\":1685:1715   */\n      calldatacopy\n        /* \"#utility.yul\":1749:1750   */\n      0x00\n        /* \"#utility.yul\":1740:1746   */\n      dup4\n        /* \"#utility.yul\":1735:1738   */\n      dup4\n        /* \"#utility.yul\":1731:1747   */\n      add\n        /* \"#utility.yul\":1724:1751   */\n      mstore\n        /* \"#utility.yul\":1610:1758   */\n      pop\n      pop\n      pop\n      jump\t// out\n        /* \"#utility.yul\":1764:2189   */\n    tag_86:\n        /* \"#utility.yul\":1842:1847   */\n      0x00\n        /* \"#utility.yul\":1867:1933   */\n      tag_130\n        /* \"#utility.yul\":1883:1932   */\n      tag_131\n        /* \"#utility.yul\":1925:1931   */\n      dup5\n        /* \"#utility.yul\":1883:1932   */\n      tag_84\n      jump\t// in\n    tag_131:\n        /* \"#utility.yul\":1867:1933   */\n      tag_83\n      jump\t// in\n    tag_130:\n        /* \"#utility.yul\":1858:1933   */\n      swap1\n      pop\n        /* \"#utility.yul\":1956:1962   */\n      dup3\n        /* \"#utility.yul\":1949:1954   */\n      dup2\n        /* \"#utility.yul\":1942:1963   */\n      mstore\n        /* \"#utility.yul\":1994:1998   */\n      0x20\n        /* \"#utility.yul\":1987:1992   */\n      dup2\n        /* \"#utility.yul\":1983:1999   */\n      add\n        /* \"#utility.yul\":2032:2035   */\n      dup5\n        /* \"#utility.yul\":2023:2029   */\n      dup5\n        /* \"#utility.yul\":2018:2021   */\n      dup5\n        /* \"#utility.yul\":2014:2030   */\n      add\n        /* \"#utility.yul\":2011:2036   */\n      gt\n        /* \"#utility.yul\":2008:2120   */\n      iszero\n      tag_132\n      jumpi\n        /* \"#utility.yul\":2039:2118   */\n      tag_133\n      tag_79\n      jump\t// in\n    tag_133:\n        /* \"#utility.yul\":2008:2120   */\n    tag_132:\n        /* \"#utility.yul\":2129:2183   */\n      tag_134\n        /* \"#utility.yul\":2176:2182   */\n      dup5\n        /* \"#utility.yul\":2171:2174   */\n      dup3\n        /* \"#utility.yul\":2166:2169   */\n      dup6\n        /* \"#utility.yul\":2129:2183   */\n      tag_85\n      jump\t// in\n    tag_134:\n        /* \"#utility.yul\":1848:2189   */\n      pop\n        /* \"#utility.yul\":1764:2189   */\n      swap4\n      swap3\n      pop\n      pop\n      pop\n      jump\t// out\n        /* \"#utility.yul\":2209:2549   */\n    tag_87:\n        /* \"#utility.yul\":2265:2270   */\n      0x00\n        /* \"#utility.yul\":2314:2317   */\n      dup3\n        /* \"#utility.yul\":2307:2311   */\n      0x1f\n        /* \"#utility.yul\":2299:2305   */\n      dup4\n        /* \"#utility.yul\":2295:2312   */\n      add\n        /* \"#utility.yul\":2291:2318   */\n      slt\n        /* \"#utility.yul\":2281:2403   */\n      tag_136\n      jumpi\n        /* \"#utility.yul\":2322:2401   */\n      tag_137\n      tag_78\n      jump\t// in\n    tag_137:\n        /* \"#utility.yul\":2281:2403   */\n    tag_136:\n        /* \"#utility.yul\":2439:2445   */\n      dup2\n        /* \"#utility.yul\":2426:2446   */\n      calldataload\n        /* \"#utility.yul\":2464:2543   */\n      tag_138\n        /* \"#utility.yul\":2539:2542   */\n      dup5\n        /* \"#utility.yul\":2531:2537   */\n      dup3\n        /* \"#utility.yul\":2524:2528   */\n      0x20\n        /* \"#utility.yul\":2516:2522   */\n      dup7\n        /* \"#utility.yul\":2512:2529   */\n      add\n        /* \"#utility.yul\":2464:2543   */\n      tag_86\n      jump\t// in\n    tag_138:\n        /* \"#utility.yul\":2455:2543   */\n      swap2\n      pop\n        /* \"#utility.yul\":2271:2549   */\n      pop\n        /* \"#utility.yul\":2209:2549   */\n      swap3\n      swap2\n      pop\n      pop\n      jump\t// out\n        /* \"#utility.yul\":2555:3064   */\n    tag_8:\n        /* \"#utility.yul\":2624:2630   */\n      0x00\n        /* \"#utility.yul\":2673:2675   */\n      0x20\n        /* \"#utility.yul\":2661:2670   */\n      dup3\n        /* \"#utility.yul\":2652:2659   */\n      dup5\n        /* \"#utility.yul\":2648:2671   */\n      sub\n        /* \"#utility.yul\":2644:2676   */\n      slt\n        /* \"#utility.yul\":2641:2760   */\n      iszero\n      tag_140\n      jumpi\n        /* \"#utility.yul\":2679:2758   */\n      tag_141\n      tag_76\n      jump\t// in\n    tag_141:\n        /* \"#utility.yul\":2641:2760   */\n    tag_140:\n        /* \"#utility.yul\":2827:2828   */\n      0x00\n        /* \"#utility.yul\":2816:2825   */\n      dup3\n        /* \"#utility.yul\":2812:2829   */\n      add\n        /* \"#utility.yul\":2799:2830   */\n      calldataload\n        /* \"#utility.yul\":2857:2875   */\n      0xffffffffffffffff\n        /* \"#utility.yul\":2849:2855   */\n      dup2\n        /* \"#utility.yul\":2846:2876   */\n      gt\n        /* \"#utility.yul\":2843:2960   */\n      iszero\n      tag_142\n      jumpi\n        /* \"#utility.yul\":2879:2958   */\n      tag_143\n      tag_77\n      jump\t// in\n    tag_143:\n        /* \"#utility.yul\":2843:2960   */\n    tag_142:\n        /* \"#utility.yul\":2984:3047   */\n      tag_144\n        /* \"#utility.yul\":3039:3046   */\n      dup5\n        /* \"#utility.yul\":3030:3036   */\n      dup3\n        /* \"#utility.yul\":3019:3028   */\n      dup6\n        /* \"#utility.yul\":3015:3037   */\n      add\n        /* \"#utility.yul\":2984:3047   */\n      tag_87\n      jump\t// in\n    tag_144:\n        /* \"#utility.yul\":2974:3047   */\n      swap2\n      pop\n        /* \"#utility.yul\":2770:3057   */\n      pop\n        /* \"#utility.yul\":2555:3064   */\n      swap3\n      swap2\n      pop\n      pop\n      jump\t// out\n        /* \"#utility.yul\":3070:3146   */\n    tag_88:\n        /* \"#utility.yul\":3106:3113   */\n      0x00\n        /* \"#utility.yul\":3135:3140   */\n      dup2\n        /* \"#utility.yul\":3124:3140   */\n      swap1\n      pop\n        /* \"#utility.yul\":3070:3146   */\n      swap2\n      swap1\n      pop\n      jump\t// out\n        /* \"#utility.yul\":3152:3267   */\n    tag_89:\n        /* \"#utility.yul\":3237:3260   */\n      tag_147\n        /* \"#utility.yul\":3254:3259   */\n      dup2\n        /* \"#utility.yul\":3237:3260   */\n      tag_88\n      jump\t// in\n    tag_147:\n        /* \"#utility.yul\":3232:3235   */\n      dup3\n        /* \"#utility.yul\":3225:3261   */\n      mstore\n        /* \"#utility.yul\":3152:3267   */\n      pop\n      pop\n      jump\t// out\n        /* \"#utility.yul\":3273:3491   */\n    tag_11:\n        /* \"#utility.yul\":3364:3368   */\n      0x00\n        /* \"#utility.yul\":3402:3404   */\n      0x20\n        /* \"#utility.yul\":3391:3400   */\n      dup3\n        /* \"#utility.yul\":3387:3405   */\n      add\n        /* \"#utility.yul\":3379:3405   */\n      swap1\n      pop\n        /* \"#utility.yul\":3415:3484   */\n      tag_149\n        /* \"#utility.yul\":3481:3482   */\n      0x00\n        /* \"#utility.yul\":3470:3479   */\n      dup4\n        /* \"#utility.yul\":3466:3483   */\n      add\n        /* \"#utility.yul\":3457:3463   */\n      dup5\n        /* \"#utility.yul\":3415:3484   */\n      tag_89\n      jump\t// in\n    tag_149:\n        /* \"#utility.yul\":3273:3491   */\n      swap3\n      swap2\n      pop\n      pop\n      jump\t// out\n        /* \"#utility.yul\":3497:3574   */\n    tag_90:\n        /* \"#utility.yul\":3534:3541   */\n      0x00\n        /* \"#utility.yul\":3563:3568   */\n      dup2\n        /* \"#utility.yul\":3552:3568   */\n      swap1\n      pop\n        /* \"#utility.yul\":3497:3574   */\n      swap2\n      swap1\n      pop\n      jump\t// out\n        /* \"#utility.yul\":3580:3702   */\n    tag_91:\n        /* \"#utility.yul\":3653:3677   */\n      tag_152\n        /* \"#utility.yul\":3671:3676   */\n      dup2\n        /* \"#utility.yul\":3653:3677   */\n      tag_90\n      jump\t// in\n    tag_152:\n        /* \"#utility.yul\":3646:3651   */\n      dup2\n        /* \"#utility.yul\":3643:3678   */\n      eq\n        /* \"#utility.yul\":3633:3696   */\n      tag_153\n      jumpi\n        /* \"#utility.yul\":3692:3693   */\n      0x00\n        /* \"#utility.yul\":3689:3690   */\n      dup1\n        /* \"#utility.yul\":3682:3694   */\n      revert\n        /* \"#utility.yul\":3633:3696   */\n    tag_153:\n        /* \"#utility.yul\":3580:3702   */\n      pop\n      jump\t// out\n        /* \"#utility.yul\":3708:3847   */\n    tag_92:\n        /* \"#utility.yul\":3754:3759   */\n      0x00\n        /* \"#utility.yul\":3792:3798   */\n      dup2\n        /* \"#utility.yul\":3779:3799   */\n      calldataload\n        /* \"#utility.yul\":3770:3799   */\n      swap1\n      pop\n        /* \"#utility.yul\":3808:3841   */\n      tag_155\n        /* \"#utility.yul\":3835:3840   */\n      dup2\n        /* \"#utility.yul\":3808:3841   */\n      tag_91\n      jump\t// in\n    tag_155:\n        /* \"#utility.yul\":3708:3847   */\n      swap3\n      swap2\n      pop\n      pop\n      jump\t// out\n        /* \"#utility.yul\":3853:4182   */\n    tag_14:\n        /* \"#utility.yul\":3912:3918   */\n      0x00\n        /* \"#utility.yul\":3961:3963   */\n      0x20\n        /* \"#utility.yul\":3949:3958   */\n      dup3\n        /* \"#utility.yul\":3940:3947   */\n      dup5\n        /* \"#utility.yul\":3936:3959   */\n      sub\n        /* \"#utility.yul\":3932:3964   */\n      slt\n        /* \"#utility.yul\":3929:4048   */\n      iszero\n      tag_157\n      jumpi\n        /* \"#utility.yul\":3967:4046   */\n      tag_158\n      tag_76\n      jump\t// in\n    tag_158:\n        /* \"#utility.yul\":3929:4048   */\n    tag_157:\n        /* \"#utility.yul\":4087:4088   */\n      0x00\n        /* \"#utility.yul\":4112:4165   */\n      tag_159\n        /* \"#utility.yul\":4157:4164   */\n      dup5\n        /* \"#utility.yul\":4148:4154   */\n      dup3\n        /* \"#utility.yul\":4137:4146   */\n      dup6\n        /* \"#utility.yul\":4133:4155   */\n      add\n        /* \"#utility.yul\":4112:4165   */\n      tag_92\n      jump\t// in\n    tag_159:\n        /* \"#utility.yul\":4102:4165   */\n      swap2\n      pop\n        /* \"#utility.yul\":4058:4175   */\n      pop\n        /* \"#utility.yul\":3853:4182   */\n      swap3\n      swap2\n      pop\n      pop\n      jump\t// out\n        /* \"#utility.yul\":4188:4287   */\n    tag_93:\n        /* \"#utility.yul\":4240:4246   */\n      0x00\n        /* \"#utility.yul\":4274:4279   */\n      dup2\n        /* \"#utility.yul\":4268:4280   */\n      mload\n        /* \"#utility.yul\":4258:4280   */\n      swap1\n      pop\n        /* \"#utility.yul\":4188:4287   */\n      swap2\n      swap1\n      pop\n      jump\t// out\n        /* \"#utility.yul\":4293:4462   */\n    tag_94:\n        /* \"#utility.yul\":4377:4388   */\n      0x00\n        /* \"#utility.yul\":4411:4417   */\n      dup3\n        /* \"#utility.yul\":4406:4409   */\n      dup3\n        /* \"#utility.yul\":4399:4418   */\n      mstore\n        /* \"#utility.yul\":4451:4455   */\n      0x20\n        /* \"#utility.yul\":4446:4449   */\n      dup3\n        /* \"#utility.yul\":4442:4456   */\n      add\n        /* \"#utility.yul\":4427:4456   */\n      swap1\n      pop\n        /* \"#utility.yul\":4293:4462   */\n      swap3\n      swap2\n      pop\n      pop\n      jump\t// out\n        /* \"#utility.yul\":4468:4607   */\n    tag_95:\n        /* \"#utility.yul\":4557:4563   */\n      dup3\n        /* \"#utility.yul\":4552:4555   */\n      dup2\n        /* \"#utility.yul\":4547:4550   */\n      dup4\n        /* \"#utility.yul\":4541:4564   */\n      mcopy\n        /* \"#utility.yul\":4598:4599   */\n      0x00\n        /* \"#utility.yul\":4589:4595   */\n      dup4\n        /* \"#utility.yul\":4584:4587   */\n      dup4\n        /* \"#utility.yul\":4580:4596   */\n      add\n        /* \"#utility.yul\":4573:4600   */\n      mstore\n        /* \"#utility.yul\":4468:4607   */\n      pop\n      pop\n      pop\n      jump\t// out\n        /* \"#utility.yul\":4613:4990   */\n    tag_96:\n        /* \"#utility.yul\":4701:4704   */\n      0x00\n        /* \"#utility.yul\":4729:4768   */\n      tag_164\n        /* \"#utility.yul\":4762:4767   */\n      dup3\n        /* \"#utility.yul\":4729:4768   */\n      tag_93\n      jump\t// in\n    tag_164:\n        /* \"#utility.yul\":4784:4855   */\n      tag_165\n        /* \"#utility.yul\":4848:4854   */\n      dup2\n        /* \"#utility.yul\":4843:4846   */\n      dup6\n        /* \"#utility.yul\":4784:4855   */\n      tag_94\n      jump\t// in\n    tag_165:\n        /* \"#utility.yul\":4777:4855   */\n      swap4\n      pop\n        /* \"#utility.yul\":4864:4929   */\n      tag_166\n        /* \"#utility.yul\":4922:4928   */\n      dup2\n        /* \"#utility.yul\":4917:4920   */\n      dup6\n        /* \"#utility.yul\":4910:4914   */\n      0x20\n        /* \"#utility.yul\":4903:4908   */\n      dup7\n        /* \"#utility.yul\":4899:4915   */\n      add\n        /* \"#utility.yul\":4864:4929   */\n      tag_95\n      jump\t// in\n    tag_166:\n        /* \"#utility.yul\":4954:4983   */\n      tag_167\n        /* \"#utility.yul\":4976:4982   */\n      dup2\n        /* \"#utility.yul\":4954:4983   */\n      tag_80\n      jump\t// in\n    tag_167:\n        /* \"#utility.yul\":4949:4952   */\n      dup5\n        /* \"#utility.yul\":4945:4984   */\n      add\n        /* \"#utility.yul\":4938:4984   */\n      swap2\n      pop\n        /* \"#utility.yul\":4705:4990   */\n      pop\n        /* \"#utility.yul\":4613:4990   */\n      swap3\n      swap2\n      pop\n      pop\n      jump\t// out\n        /* \"#utility.yul\":4996:5309   */\n    tag_17:\n        /* \"#utility.yul\":5109:5113   */\n      0x00\n        /* \"#utility.yul\":5147:5149   */\n      0x20\n        /* \"#utility.yul\":5136:5145   */\n      dup3\n        /* \"#utility.yul\":5132:5150   */\n      add\n        /* \"#utility.yul\":5124:5150   */\n      swap1\n      pop\n        /* \"#utility.yul\":5196:5205   */\n      dup2\n        /* \"#utility.yul\":5190:5194   */\n      dup2\n        /* \"#utility.yul\":5186:5206   */\n      sub\n        /* \"#utility.yul\":5182:5183   */\n      0x00\n        /* \"#utility.yul\":5171:5180   */\n      dup4\n        /* \"#utility.yul\":5167:5184   */\n      add\n        /* \"#utility.yul\":5160:5207   */\n      mstore\n        /* \"#utility.yul\":5224:5302   */\n      tag_169\n        /* \"#utility.yul\":5297:5301   */\n      dup2\n        /* \"#utility.yul\":5288:5294   */\n      dup5\n        /* \"#utility.yul\":5224:5302   */\n      tag_96\n      jump\t// in\n    tag_169:\n        /* \"#utility.yul\":5216:5302   */\n      swap1\n      pop\n        /* \"#utility.yul\":4996:5309   */\n      swap3\n      swap2\n      pop\n      pop\n      jump\t// out\n        /* \"#utility.yul\":5315:5497   */\n    tag_97:\n        /* \"#utility.yul\":5455:5489   */\n      0x496e707574206d757374206265206265747765656e203120616e642033393939\n        /* \"#utility.yul\":5451:5452   */\n      0x00\n        /* \"#utility.yul\":5443:5449   */\n      dup3\n        /* \"#utility.yul\":5439:5453   */\n      add\n        /* \"#utility.yul\":5432:5490   */\n      mstore\n        /* \"#utility.yul\":5315:5497   */\n      pop\n      jump\t// out\n        /* \"#utility.yul\":5503:5869   */\n    tag_98:\n        /* \"#utility.yul\":5645:5648   */\n      0x00\n        /* \"#utility.yul\":5666:5733   */\n      tag_172\n        /* \"#utility.yul\":5730:5732   */\n      0x20\n        /* \"#utility.yul\":5725:5728   */\n      dup4\n        /* \"#utility.yul\":5666:5733   */\n      tag_94\n      jump\t// in\n    tag_172:\n        /* \"#utility.yul\":5659:5733   */\n      swap2\n      pop\n        /* \"#utility.yul\":5742:5835   */\n      tag_173\n        /* \"#utility.yul\":5831:5834   */\n      dup3\n        /* \"#utility.yul\":5742:5835   */\n      tag_97\n      jump\t// in\n    tag_173:\n        /* \"#utility.yul\":5860:5862   */\n      0x20\n        /* \"#utility.yul\":5855:5858   */\n      dup3\n        /* \"#utility.yul\":5851:5863   */\n      add\n        /* \"#utility.yul\":5844:5863   */\n      swap1\n      pop\n        /* \"#utility.yul\":5503:5869   */\n      swap2\n      swap1\n      pop\n      jump\t// out\n        /* \"#utility.yul\":5875:6294   */\n    tag_26:\n        /* \"#utility.yul\":6041:6045   */\n      0x00\n        /* \"#utility.yul\":6079:6081   */\n      0x20\n        /* \"#utility.yul\":6068:6077   */\n      dup3\n        /* \"#utility.yul\":6064:6082   */\n      add\n        /* \"#utility.yul\":6056:6082   */\n      swap1\n      pop\n        /* \"#utility.yul\":6128:6137   */\n      dup2\n        /* \"#utility.yul\":6122:6126   */\n      dup2\n        /* \"#utility.yul\":6118:6138   */\n      sub\n        /* \"#utility.yul\":6114:6115   */\n      0x00\n        /* \"#utility.yul\":6103:6112   */\n      dup4\n        /* \"#utility.yul\":6099:6116   */\n      add\n        /* \"#utility.yul\":6092:6139   */\n      mstore\n        /* \"#utility.yul\":6156:6287   */\n      tag_175\n        /* \"#utility.yul\":6282:6286   */\n      dup2\n        /* \"#utility.yul\":6156:6287   */\n      tag_98\n      jump\t// in\n    tag_175:\n        /* \"#utility.yul\":6148:6287   */\n      swap1\n      pop\n        /* \"#utility.yul\":5875:6294   */\n      swap2\n      swap1\n      pop\n      jump\t// out\n        /* \"#utility.yul\":6300:6480   */\n    tag_32:\n        /* \"#utility.yul\":6348:6425   */\n      0x4e487b7100000000000000000000000000000000000000000000000000000000\n        /* \"#utility.yul\":6345:6346   */\n      0x00\n        /* \"#utility.yul\":6338:6426   */\n      mstore\n        /* \"#utility.yul\":6445:6449   */\n      0x32\n        /* \"#utility.yul\":6442:6443   */\n      0x04\n        /* \"#utility.yul\":6435:6450   */\n      mstore\n        /* \"#utility.yul\":6469:6473   */\n      0x24\n        /* \"#utility.yul\":6466:6467   */\n      0x00\n        /* \"#utility.yul\":6459:6474   */\n      revert\n        /* \"#utility.yul\":6486:6634   */\n    tag_99:\n        /* \"#utility.yul\":6588:6599   */\n      0x00\n        /* \"#utility.yul\":6625:6628   */\n      dup2\n        /* \"#utility.yul\":6610:6628   */\n      swap1\n      pop\n        /* \"#utility.yul\":6486:6634   */\n      swap3\n      swap2\n      pop\n      pop\n      jump\t// out\n        /* \"#utility.yul\":6640:7030   */\n    tag_100:\n        /* \"#utility.yul\":6746:6749   */\n      0x00\n        /* \"#utility.yul\":6774:6813   */\n      tag_179\n        /* \"#utility.yul\":6807:6812   */\n      dup3\n        /* \"#utility.yul\":6774:6813   */\n      tag_93\n      jump\t// in\n    tag_179:\n        /* \"#utility.yul\":6829:6918   */\n      tag_180\n        /* \"#utility.yul\":6911:6917   */\n      dup2\n        /* \"#utility.yul\":6906:6909   */\n      dup6\n        /* \"#utility.yul\":6829:6918   */\n      tag_99\n      jump\t// in\n    tag_180:\n        /* \"#utility.yul\":6822:6918   */\n      swap4\n      pop\n        /* \"#utility.yul\":6927:6992   */\n      tag_181\n        /* \"#utility.yul\":6985:6991   */\n      dup2\n        /* \"#utility.yul\":6980:6983   */\n      dup6\n        /* \"#utility.yul\":6973:6977   */\n      0x20\n        /* \"#utility.yul\":6966:6971   */\n      dup7\n        /* \"#utility.yul\":6962:6978   */\n      add\n        /* \"#utility.yul\":6927:6992   */\n      tag_95\n      jump\t// in\n    tag_181:\n        /* \"#utility.yul\":7017:7023   */\n      dup1\n        /* \"#utility.yul\":7012:7015   */\n      dup5\n        /* \"#utility.yul\":7008:7024   */\n      add\n        /* \"#utility.yul\":7001:7024   */\n      swap2\n      pop\n        /* \"#utility.yul\":6750:7030   */\n      pop\n        /* \"#utility.yul\":6640:7030   */\n      swap3\n      swap2\n      pop\n      pop\n      jump\t// out\n        /* \"#utility.yul\":7036:7216   */\n    tag_101:\n        /* \"#utility.yul\":7084:7161   */\n      0x4e487b7100000000000000000000000000000000000000000000000000000000\n        /* \"#utility.yul\":7081:7082   */\n      0x00\n        /* \"#utility.yul\":7074:7162   */\n      mstore\n        /* \"#utility.yul\":7181:7185   */\n      0x22\n        /* \"#utility.yul\":7178:7179   */\n      0x04\n        /* \"#utility.yul\":7171:7186   */\n      mstore\n        /* \"#utility.yul\":7205:7209   */\n      0x24\n        /* \"#utility.yul\":7202:7203   */\n      0x00\n        /* \"#utility.yul\":7195:7210   */\n      revert\n        /* \"#utility.yul\":7222:7542   */\n    tag_102:\n        /* \"#utility.yul\":7266:7272   */\n      0x00\n        /* \"#utility.yul\":7303:7304   */\n      0x02\n        /* \"#utility.yul\":7297:7301   */\n      dup3\n        /* \"#utility.yul\":7293:7305   */\n      div\n        /* \"#utility.yul\":7283:7305   */\n      swap1\n      pop\n        /* \"#utility.yul\":7350:7351   */\n      0x01\n        /* \"#utility.yul\":7344:7348   */\n      dup3\n        /* \"#utility.yul\":7340:7352   */\n      and\n        /* \"#utility.yul\":7371:7389   */\n      dup1\n        /* \"#utility.yul\":7361:7442   */\n      tag_184\n      jumpi\n        /* \"#utility.yul\":7427:7431   */\n      0x7f\n        /* \"#utility.yul\":7419:7425   */\n      dup3\n        /* \"#utility.yul\":7415:7432   */\n      and\n        /* \"#utility.yul\":7405:7432   */\n      swap2\n      pop\n        /* \"#utility.yul\":7361:7442   */\n    tag_184:\n        /* \"#utility.yul\":7489:7491   */\n      0x20\n        /* \"#utility.yul\":7481:7487   */\n      dup3\n        /* \"#utility.yul\":7478:7492   */\n      lt\n        /* \"#utility.yul\":7458:7476   */\n      dup2\n        /* \"#utility.yul\":7455:7493   */\n      sub\n        /* \"#utility.yul\":7452:7536   */\n      tag_185\n      jumpi\n        /* \"#utility.yul\":7508:7526   */\n      tag_186\n      tag_101\n      jump\t// in\n    tag_186:\n        /* \"#utility.yul\":7452:7536   */\n    tag_185:\n        /* \"#utility.yul\":7273:7542   */\n      pop\n        /* \"#utility.yul\":7222:7542   */\n      swap2\n      swap1\n      pop\n      jump\t// out\n        /* \"#utility.yul\":7548:7689   */\n    tag_103:\n        /* \"#utility.yul\":7597:7601   */\n      0x00\n        /* \"#utility.yul\":7620:7623   */\n      dup2\n        /* \"#utility.yul\":7612:7623   */\n      swap1\n      pop\n        /* \"#utility.yul\":7643:7646   */\n      dup2\n        /* \"#utility.yul\":7640:7641   */\n      0x00\n        /* \"#utility.yul\":7633:7647   */\n      mstore\n        /* \"#utility.yul\":7677:7681   */\n      0x20\n        /* \"#utility.yul\":7674:7675   */\n      0x00\n        /* \"#utility.yul\":7664:7682   */\n      keccak256\n        /* \"#utility.yul\":7656:7682   */\n      swap1\n      pop\n        /* \"#utility.yul\":7548:7689   */\n      swap2\n      swap1\n      pop\n      jump\t// out\n        /* \"#utility.yul\":7719:8593   */\n    tag_104:\n        /* \"#utility.yul\":7822:7825   */\n      0x00\n        /* \"#utility.yul\":7859:7864   */\n      dup2\n        /* \"#utility.yul\":7853:7865   */\n      sload\n        /* \"#utility.yul\":7888:7924   */\n      tag_189\n        /* \"#utility.yul\":7914:7923   */\n      dup2\n        /* \"#utility.yul\":7888:7924   */\n      tag_102\n      jump\t// in\n    tag_189:\n        /* \"#utility.yul\":7940:8029   */\n      tag_190\n        /* \"#utility.yul\":8022:8028   */\n      dup2\n        /* \"#utility.yul\":8017:8020   */\n      dup7\n        /* \"#utility.yul\":7940:8029   */\n      tag_99\n      jump\t// in\n    tag_190:\n        /* \"#utility.yul\":7933:8029   */\n      swap5\n      pop\n        /* \"#utility.yul\":8060:8061   */\n      0x01\n        /* \"#utility.yul\":8049:8058   */\n      dup3\n        /* \"#utility.yul\":8045:8062   */\n      and\n        /* \"#utility.yul\":8076:8077   */\n      0x00\n        /* \"#utility.yul\":8071:8237   */\n      dup2\n      eq\n      tag_192\n      jumpi\n        /* \"#utility.yul\":8251:8252   */\n      0x01\n        /* \"#utility.yul\":8246:8587   */\n      dup2\n      eq\n      tag_193\n      jumpi\n        /* \"#utility.yul\":8038:8587   */\n      jump(tag_191)\n        /* \"#utility.yul\":8071:8237   */\n    tag_192:\n        /* \"#utility.yul\":8155:8159   */\n      0xff\n        /* \"#utility.yul\":8151:8160   */\n      not\n        /* \"#utility.yul\":8140:8149   */\n      dup4\n        /* \"#utility.yul\":8136:8161   */\n      and\n        /* \"#utility.yul\":8131:8134   */\n      dup7\n        /* \"#utility.yul\":8124:8162   */\n      mstore\n        /* \"#utility.yul\":8217:8223   */\n      dup2\n        /* \"#utility.yul\":8210:8224   */\n      iszero\n        /* \"#utility.yul\":8203:8225   */\n      iszero\n        /* \"#utility.yul\":8195:8201   */\n      dup3\n        /* \"#utility.yul\":8191:8226   */\n      mul\n        /* \"#utility.yul\":8186:8189   */\n      dup7\n        /* \"#utility.yul\":8182:8227   */\n      add\n        /* \"#utility.yul\":8175:8227   */\n      swap4\n      pop\n        /* \"#utility.yul\":8071:8237   */\n      jump(tag_191)\n        /* \"#utility.yul\":8246:8587   */\n    tag_193:\n        /* \"#utility.yul\":8313:8351   */\n      tag_194\n        /* \"#utility.yul\":8345:8350   */\n      dup6\n        /* \"#utility.yul\":8313:8351   */\n      tag_103\n      jump\t// in\n    tag_194:\n        /* \"#utility.yul\":8373:8374   */\n      0x00\n        /* \"#utility.yul\":8387:8541   */\n    tag_195:\n        /* \"#utility.yul\":8401:8407   */\n      dup4\n        /* \"#utility.yul\":8398:8399   */\n      dup2\n        /* \"#utility.yul\":8395:8408   */\n      lt\n        /* \"#utility.yul\":8387:8541   */\n      iszero\n      tag_197\n      jumpi\n        /* \"#utility.yul\":8475:8482   */\n      dup2\n        /* \"#utility.yul\":8469:8483   */\n      sload\n        /* \"#utility.yul\":8465:8466   */\n      dup2\n        /* \"#utility.yul\":8460:8463   */\n      dup10\n        /* \"#utility.yul\":8456:8467   */\n      add\n        /* \"#utility.yul\":8449:8484   */\n      mstore\n        /* \"#utility.yul\":8525:8526   */\n      0x01\n        /* \"#utility.yul\":8516:8523   */\n      dup3\n        /* \"#utility.yul\":8512:8527   */\n      add\n        /* \"#utility.yul\":8501:8527   */\n      swap2\n      pop\n        /* \"#utility.yul\":8423:8427   */\n      0x20\n        /* \"#utility.yul\":8420:8421   */\n      dup2\n        /* \"#utility.yul\":8416:8428   */\n      add\n        /* \"#utility.yul\":8411:8428   */\n      swap1\n      pop\n        /* \"#utility.yul\":8387:8541   */\n      jump(tag_195)\n    tag_197:\n        /* \"#utility.yul\":8570:8576   */\n      dup4\n        /* \"#utility.yul\":8565:8568   */\n      dup9\n        /* \"#utility.yul\":8561:8577   */\n      add\n        /* \"#utility.yul\":8554:8577   */\n      swap6\n      pop\n        /* \"#utility.yul\":8253:8587   */\n      pop\n      pop\n        /* \"#utility.yul\":8038:8587   */\n    tag_191:\n      pop\n        /* \"#utility.yul\":7826:8593   */\n      pop\n      pop\n        /* \"#utility.yul\":7719:8593   */\n      swap3\n      swap2\n      pop\n      pop\n      jump\t// out\n        /* \"#utility.yul\":8599:9028   */\n    tag_43:\n        /* \"#utility.yul\":8776:8779   */\n      0x00\n        /* \"#utility.yul\":8798:8893   */\n      tag_199\n        /* \"#utility.yul\":8889:8892   */\n      dup3\n        /* \"#utility.yul\":8880:8886   */\n      dup6\n        /* \"#utility.yul\":8798:8893   */\n      tag_100\n      jump\t// in\n    tag_199:\n        /* \"#utility.yul\":8791:8893   */\n      swap2\n      pop\n        /* \"#utility.yul\":8910:9002   */\n      tag_200\n        /* \"#utility.yul\":8998:9001   */\n      dup3\n        /* \"#utility.yul\":8989:8995   */\n      dup5\n        /* \"#utility.yul\":8910:9002   */\n      tag_104\n      jump\t// in\n    tag_200:\n        /* \"#utility.yul\":8903:9002   */\n      swap2\n      pop\n        /* \"#utility.yul\":9019:9022   */\n      dup2\n        /* \"#utility.yul\":9012:9022   */\n      swap1\n      pop\n        /* \"#utility.yul\":8599:9028   */\n      swap4\n      swap3\n      pop\n      pop\n      pop\n      jump\t// out\n        /* \"#utility.yul\":9034:9214   */\n    tag_105:\n        /* \"#utility.yul\":9082:9159   */\n      0x4e487b7100000000000000000000000000000000000000000000000000000000\n        /* \"#utility.yul\":9079:9080   */\n      0x00\n        /* \"#utility.yul\":9072:9160   */\n      mstore\n        /* \"#utility.yul\":9179:9183   */\n      0x11\n        /* \"#utility.yul\":9176:9177   */\n      0x04\n        /* \"#utility.yul\":9169:9184   */\n      mstore\n        /* \"#utility.yul\":9203:9207   */\n      0x24\n        /* \"#utility.yul\":9200:9201   */\n      0x00\n        /* \"#utility.yul\":9193:9208   */\n      revert\n        /* \"#utility.yul\":9220:9414   */\n    tag_48:\n        /* \"#utility.yul\":9260:9264   */\n      0x00\n        /* \"#utility.yul\":9280:9300   */\n      tag_203\n        /* \"#utility.yul\":9298:9299   */\n      dup3\n        /* \"#utility.yul\":9280:9300   */\n      tag_90\n      jump\t// in\n    tag_203:\n        /* \"#utility.yul\":9275:9300   */\n      swap2\n      pop\n        /* \"#utility.yul\":9314:9334   */\n      tag_204\n        /* \"#utility.yul\":9332:9333   */\n      dup4\n        /* \"#utility.yul\":9314:9334   */\n      tag_90\n      jump\t// in\n    tag_204:\n        /* \"#utility.yul\":9309:9334   */\n      swap3\n      pop\n        /* \"#utility.yul\":9358:9359   */\n      dup3\n        /* \"#utility.yul\":9355:9356   */\n      dup3\n        /* \"#utility.yul\":9351:9360   */\n      sub\n        /* \"#utility.yul\":9343:9360   */\n      swap1\n      pop\n        /* \"#utility.yul\":9382:9383   */\n      dup2\n        /* \"#utility.yul\":9376:9380   */\n      dup2\n        /* \"#utility.yul\":9373:9384   */\n      gt\n        /* \"#utility.yul\":9370:9407   */\n      iszero\n      tag_205\n      jumpi\n        /* \"#utility.yul\":9387:9405   */\n      tag_206\n      tag_105\n      jump\t// in\n    tag_206:\n        /* \"#utility.yul\":9370:9407   */\n    tag_205:\n        /* \"#utility.yul\":9220:9414   */\n      swap3\n      swap2\n      pop\n      pop\n      jump\t// out\n        /* \"#utility.yul\":9420:9653   */\n    tag_50:\n        /* \"#utility.yul\":9459:9462   */\n      0x00\n        /* \"#utility.yul\":9482:9506   */\n      tag_208\n        /* \"#utility.yul\":9500:9505   */\n      dup3\n        /* \"#utility.yul\":9482:9506   */\n      tag_90\n      jump\t// in\n    tag_208:\n        /* \"#utility.yul\":9473:9506   */\n      swap2\n      pop\n        /* \"#utility.yul\":9528:9594   */\n      0xffffffffffffffffffffffffffffffffffffffffffffffffffffffffffffffff\n        /* \"#utility.yul\":9521:9526   */\n      dup3\n        /* \"#utility.yul\":9518:9595   */\n      sub\n        /* \"#utility.yul\":9515:9618   */\n      tag_209\n      jumpi\n        /* \"#utility.yul\":9598:9616   */\n      tag_210\n      tag_105\n      jump\t// in\n    tag_210:\n        /* \"#utility.yul\":9515:9618   */\n    tag_209:\n        /* \"#utility.yul\":9645:9646   */\n      0x01\n        /* \"#utility.yul\":9638:9643   */\n      dup3\n        /* \"#utility.yul\":9634:9647   */\n      add\n        /* \"#utility.yul\":9627:9647   */\n      swap1\n      pop\n        /* \"#utility.yul\":9420:9653   */\n      swap2\n      swap1\n      pop\n      jump\t// out\n        /* \"#utility.yul\":9659:9808   */\n    tag_106:\n        /* \"#utility.yul\":9695:9702   */\n      0x00\n        /* \"#utility.yul\":9735:9801   */\n      0xff00000000000000000000000000000000000000000000000000000000000000\n        /* \"#utility.yul\":9728:9733   */\n      dup3\n        /* \"#utility.yul\":9724:9802   */\n      and\n        /* \"#utility.yul\":9713:9802   */\n      swap1\n      pop\n        /* \"#utility.yul\":9659:9808   */\n      swap2\n      swap1\n      pop\n      jump\t// out\n        /* \"#utility.yul\":9814:9892   */\n    tag_107:\n        /* \"#utility.yul\":9852:9859   */\n      0x00\n        /* \"#utility.yul\":9881:9886   */\n      dup2\n        /* \"#utility.yul\":9870:9886   */\n      swap1\n      pop\n        /* \"#utility.yul\":9814:9892   */\n      swap2\n      swap1\n      pop\n      jump\t// out\n        /* \"#utility.yul\":9898:10051   */\n    tag_108:\n        /* \"#utility.yul\":10001:10044   */\n      tag_214\n        /* \"#utility.yul\":10020:10043   */\n      tag_215\n        /* \"#utility.yul\":10037:10042   */\n      dup3\n        /* \"#utility.yul\":10020:10043   */\n      tag_106\n      jump\t// in\n    tag_215:\n        /* \"#utility.yul\":10001:10044   */\n      tag_107\n      jump\t// in\n    tag_214:\n        /* \"#utility.yul\":9996:9999   */\n      dup3\n        /* \"#utility.yul\":9989:10045   */\n      mstore\n        /* \"#utility.yul\":9898:10051   */\n      pop\n      pop\n      jump\t// out\n        /* \"#utility.yul\":10057:10308   */\n    tag_58:\n        /* \"#utility.yul\":10167:10170   */\n      0x00\n        /* \"#utility.yul\":10182:10255   */\n      tag_217\n        /* \"#utility.yul\":10251:10254   */\n      dup3\n        /* \"#utility.yul\":10242:10248   */\n      dup5\n        /* \"#utility.yul\":10182:10255   */\n      tag_108\n      jump\t// in\n    tag_217:\n        /* \"#utility.yul\":10280:10281   */\n      0x01\n        /* \"#utility.yul\":10275:10278   */\n      dup3\n        /* \"#utility.yul\":10271:10282   */\n      add\n        /* \"#utility.yul\":10264:10282   */\n      swap2\n      pop\n        /* \"#utility.yul\":10299:10302   */\n      dup2\n        /* \"#utility.yul\":10292:10302   */\n      swap1\n      pop\n        /* \"#utility.yul\":10057:10308   */\n      swap3\n      swap2\n      pop\n      pop\n      jump\t// out\n        /* \"#utility.yul\":10314:10589   */\n    tag_60:\n        /* \"#utility.yul\":10446:10449   */\n      0x00\n        /* \"#utility.yul\":10468:10563   */\n      tag_219\n        /* \"#utility.yul\":10559:10562   */\n      dup3\n        /* \"#utility.yul\":10550:10556   */\n      dup5\n        /* \"#utility.yul\":10468:10563   */\n      tag_100\n      jump\t// in\n    tag_219:\n        /* \"#utility.yul\":10461:10563   */\n      swap2\n      pop\n        /* \"#utility.yul\":10580:10583   */\n      dup2\n        /* \"#utility.yul\":10573:10583   */\n      swap1\n      pop\n        /* \"#utility.yul\":10314:10589   */\n      swap3\n      swap2\n      pop\n      pop\n      jump\t// out\n        /* \"#utility.yul\":10595:10786   */\n    tag_64:\n        /* \"#utility.yul\":10635:10638   */\n      0x00\n        /* \"#utility.yul\":10654:10674   */\n      tag_221\n        /* \"#utility.yul\":10672:10673   */\n      dup3\n        /* \"#utility.yul\":10654:10674   */\n      tag_90\n      jump\t// in\n    tag_221:\n        /* \"#utility.yul\":10649:10674   */\n      swap2\n      pop\n        /* \"#utility.yul\":10688:10708   */\n      tag_222\n        /* \"#utility.yul\":10706:10707   */\n      dup4\n        /* \"#utility.yul\":10688:10708   */\n      tag_90\n      jump\t// in\n    tag_222:\n        /* \"#utility.yul\":10683:10708   */\n      swap3\n      pop\n        /* \"#utility.yul\":10731:10732   */\n      dup3\n        /* \"#utility.yul\":10728:10729   */\n      dup3\n        /* \"#utility.yul\":10724:10733   */\n      add\n        /* \"#utility.yul\":10717:10733   */\n      swap1\n      pop\n        /* \"#utility.yul\":10752:10755   */\n      dup1\n        /* \"#utility.yul\":10749:10750   */\n      dup3\n        /* \"#utility.yul\":10746:10756   */\n      gt\n        /* \"#utility.yul\":10743:10779   */\n      iszero\n      tag_223\n      jumpi\n        /* \"#utility.yul\":10759:10777   */\n      tag_224\n      tag_105\n      jump\t// in\n    tag_224:\n        /* \"#utility.yul\":10743:10779   */\n    tag_223:\n        /* \"#utility.yul\":10595:10786   */\n      swap3\n      swap2\n      pop\n      pop\n      jump\t// out\n        /* \"#utility.yul\":10792:11164   */\n    tag_71:\n        /* \"#utility.yul\":10831:10835   */\n      0x00\n        /* \"#utility.yul\":10851:10870   */\n      tag_226\n        /* \"#utility.yul\":10868:10869   */\n      dup3\n        /* \"#utility.yul\":10851:10870   */\n      tag_88\n      jump\t// in\n    tag_226:\n        /* \"#utility.yul\":10846:10870   */\n      swap2\n      pop\n        /* \"#utility.yul\":10884:10903   */\n      tag_227\n        /* \"#utility.yul\":10901:10902   */\n      dup4\n        /* \"#utility.yul\":10884:10903   */\n      tag_88\n      jump\t// in\n    tag_227:\n        /* \"#utility.yul\":10879:10903   */\n      swap3\n      pop\n        /* \"#utility.yul\":10927:10928   */\n      dup3\n        /* \"#utility.yul\":10924:10925   */\n      dup3\n        /* \"#utility.yul\":10920:10929   */\n      sub\n        /* \"#utility.yul\":10912:10929   */\n      swap1\n      pop\n        /* \"#utility.yul\":11121:11122   */\n      dup2\n        /* \"#utility.yul\":11115:11119   */\n      dup2\n        /* \"#utility.yul\":11111:11123   */\n      slt\n        /* \"#utility.yul\":11107:11108   */\n      0x00\n        /* \"#utility.yul\":11104:11105   */\n      dup5\n        /* \"#utility.yul\":11100:11109   */\n      slt\n        /* \"#utility.yul\":11096:11124   */\n      and\n        /* \"#utility.yul\":11079:11080   */\n      dup3\n        /* \"#utility.yul\":11073:11077   */\n      dup3\n        /* \"#utility.yul\":11069:11081   */\n      sgt\n        /* \"#utility.yul\":11064:11065   */\n      0x00\n        /* \"#utility.yul\":11061:11062   */\n      dup6\n        /* \"#utility.yul\":11057:11066   */\n      slt\n        /* \"#utility.yul\":11050:11067   */\n      iszero\n        /* \"#utility.yul\":11046:11082   */\n      and\n        /* \"#utility.yul\":11030:11134   */\n      or\n        /* \"#utility.yul\":11027:11157   */\n      iszero\n      tag_228\n      jumpi\n        /* \"#utility.yul\":11137:11155   */\n      tag_229\n      tag_105\n      jump\t// in\n    tag_229:\n        /* \"#utility.yul\":11027:11157   */\n    tag_228:\n        /* \"#utility.yul\":10792:11164   */\n      swap3\n      swap2\n      pop\n      pop\n      jump\t// out\n        /* \"#utility.yul\":11170:11545   */\n    tag_74:\n        /* \"#utility.yul\":11209:11212   */\n      0x00\n        /* \"#utility.yul\":11228:11247   */\n      tag_231\n        /* \"#utility.yul\":11245:11246   */\n      dup3\n        /* \"#utility.yul\":11228:11247   */\n      tag_88\n      jump\t// in\n    tag_231:\n        /* \"#utility.yul\":11223:11247   */\n      swap2\n      pop\n        /* \"#utility.yul\":11261:11280   */\n      tag_232\n        /* \"#utility.yul\":11278:11279   */\n      dup4\n        /* \"#utility.yul\":11261:11280   */\n      tag_88\n      jump\t// in\n    tag_232:\n        /* \"#utility.yul\":11256:11280   */\n      swap3\n      pop\n        /* \"#utility.yul\":11303:11304   */\n      dup3\n        /* \"#utility.yul\":11300:11301   */\n      dup3\n        /* \"#utility.yul\":11296:11305   */\n      add\n        /* \"#utility.yul\":11289:11305   */\n      swap1\n      pop\n        /* \"#utility.yul\":11501:11502   */\n      dup3\n        /* \"#utility.yul\":11496:11499   */\n      dup2\n        /* \"#utility.yul\":11492:11503   */\n      slt\n        /* \"#utility.yul\":11485:11504   */\n      iszero\n        /* \"#utility.yul\":11481:11482   */\n      0x00\n        /* \"#utility.yul\":11478:11479   */\n      dup4\n        /* \"#utility.yul\":11474:11483   */\n      slt\n        /* \"#utility.yul\":11470:11505   */\n      and\n        /* \"#utility.yul\":11453:11454   */\n      dup4\n        /* \"#utility.yul\":11448:11451   */\n      dup3\n        /* \"#utility.yul\":11444:11455   */\n      slt\n        /* \"#utility.yul\":11439:11440   */\n      0x00\n        /* \"#utility.yul\":11436:11437   */\n      dup5\n        /* \"#utility.yul\":11432:11441   */\n      slt\n        /* \"#utility.yul\":11425:11442   */\n      iszero\n        /* \"#utility.yul\":11421:11456   */\n      and\n        /* \"#utility.yul\":11405:11515   */\n      or\n        /* \"#utility.yul\":11402:11538   */\n      iszero\n      tag_233\n      jumpi\n        /* \"#utility.yul\":11518:11536   */\n      tag_234\n      tag_105\n      jump\t// in\n    tag_234:\n        /* \"#utility.yul\":11402:11538   */\n    tag_233:\n        /* \"#utility.yul\":11170:11545   */\n      swap3\n      swap2\n      pop\n      pop\n      jump\t// out\n\n    auxdata: 0xa2646970667358221220d4571d200a68a330b3c9ecaabb89c9b6e964f9ee4384539cd3ad55ce3df9c6bc64736f6c634300081a0033\n}\n",
				"bytecode": {
					"linkReferences": {},
					"object": "6080604052604051806101c001604052806103e861ffff16815260200161038461ffff1681526020016101f461ffff16815260200161019061ffff168152602001606461ffff168152602001605a61ffff168152602001603261ffff168152602001602861ffff168152602001600a61ffff168152602001600961ffff168152602001600561ffff168152602001600461ffff168152602001600161ffff1681526020015f61ffff168152505f90600e6100ba9291906104ea565b50604051806101c001604052806040518060400160405280600181526020017f4d0000000000000000000000000000000000000000000000000000000000000081525081526020016040518060400160405280600281526020017f434d00000000000000000000000000000000000000000000000000000000000081525081526020016040518060400160405280600181526020017f440000000000000000000000000000000000000000000000000000000000000081525081526020016040518060400160405280600281526020017f434400000000000000000000000000000000000000000000000000000000000081525081526020016040518060400160405280600181526020017f430000000000000000000000000000000000000000000000000000000000000081525081526020016040518060400160405280600281526020017f584300000000000000000000000000000000000000000000000000000000000081525081526020016040518060400160405280600181526020017f4c0000000000000000000000000000000000000000000000000000000000000081525081526020016040518060400160405280600281526020017f584c00000000000000000000000000000000000000000000000000000000000081525081526020016040518060400160405280600181526020017f580000000000000000000000000000000000000000000000000000000000000081525081526020016040518060400160405280600281526020017f495800000000000000000000000000000000000000000000000000000000000081525081526020016040518060400160405280600181526020017f560000000000000000000000000000000000000000000000000000000000000081525081526020016040518060400160405280600281526020017f495600000000000000000000000000000000000000000000000000000000000081525081526020016040518060400160405280600181526020017f4900000000000000000000000000000000000000000000000000000000000000815250815260200160405180602001604052805f815250815250600190600e6103e892919061053b565b503480156103f4575f80fd5b506001600260405161040590610661565b90815260200160405180910390208190555060056002604051610427906106bf565b908152602001604051809103902081905550600a60026040516104499061071d565b9081526020016040518091039020819055506032600260405161046b9061077b565b9081526020016040518091039020819055506064600260405161048d906107d9565b9081526020016040518091039020819055506101f460026040516104b090610837565b9081526020016040518091039020819055506103e860026040516104d390610895565b908152602001604051809103902081905550610bb2565b828054828255905f5260205f2090810192821561052a579160200282015b82811115610529578251829061ffff16905591602001919060010190610508565b5b5090506105379190610592565b5090565b828054828255905f5260205f20908101928215610581579160200282015b828111156105805782518290816105709190610ae3565b5091602001919060010190610559565b5b50905061058e91906105ad565b5090565b5b808211156105a9575f815f905550600101610593565b5090565b5b808211156105cc575f81816105c391906105d0565b506001016105ae565b5090565b5080546105dc9061090d565b5f825580601f106105ed575061060a565b601f0160209004905f5260205f20908101906106099190610592565b5b50565b5f81905092915050565b7f49000000000000000000000000000000000000000000000000000000000000005f82015250565b5f61064b60018361060d565b915061065682610617565b600182019050919050565b5f61066b8261063f565b9150819050919050565b7f56000000000000000000000000000000000000000000000000000000000000005f82015250565b5f6106a960018361060d565b91506106b482610675565b600182019050919050565b5f6106c98261069d565b9150819050919050565b7f58000000000000000000000000000000000000000000000000000000000000005f82015250565b5f61070760018361060d565b9150610712826106d3565b600182019050919050565b5f610727826106fb565b9150819050919050565b7f4c000000000000000000000000000000000000000000000000000000000000005f82015250565b5f61076560018361060d565b915061077082610731565b600182019050919050565b5f61078582610759565b9150819050919050565b7f43000000000000000000000000000000000000000000000000000000000000005f82015250565b5f6107c360018361060d565b91506107ce8261078f565b600182019050919050565b5f6107e3826107b7565b9150819050919050565b7f44000000000000000000000000000000000000000000000000000000000000005f82015250565b5f61082160018361060d565b915061082c826107ed565b600182019050919050565b5f61084182610815565b9150819050919050565b7f4d000000000000000000000000000000000000000000000000000000000000005f82015250565b5f61087f60018361060d565b915061088a8261084b565b600182019050919050565b5f61089f82610873565b9150819050919050565b5f81519050919050565b7f4e487b71000000000000000000000000000000000000000000000000000000005f52604160045260245ffd5b7f4e487b71000000000000000000000000000000000000000000000000000000005f52602260045260245ffd5b5f600282049050600182168061092457607f821691505b602082108103610937576109366108e0565b5b50919050565b5f819050815f5260205f209050919050565b5f6020601f8301049050919050565b5f82821b905092915050565b5f600883026109997fffffffffffffffffffffffffffffffffffffffffffffffffffffffffffffffff8261095e565b6109a3868361095e565b95508019841693508086168417925050509392505050565b5f819050919050565b5f819050919050565b5f6109e76109e26109dd846109bb565b6109c4565b6109bb565b9050919050565b5f819050919050565b610a00836109cd565b610a14610a0c826109ee565b84845461096a565b825550505050565b5f90565b610a28610a1c565b610a338184846109f7565b505050565b5b81811015610a5657610a4b5f82610a20565b600181019050610a39565b5050565b601f821115610a9b57610a6c8161093d565b610a758461094f565b81016020851015610a84578190505b610a98610a908561094f565b830182610a38565b50505b505050565b5f82821c905092915050565b5f610abb5f1984600802610aa0565b1980831691505092915050565b5f610ad38383610aac565b9150826002028217905092915050565b610aec826108a9565b67ffffffffffffffff811115610b0557610b046108b3565b5b610b0f825461090d565b610b1a828285610a5a565b5f60209050601f831160018114610b4b575f8415610b39578287015190505b610b438582610ac8565b865550610baa565b601f198416610b598661093d565b5f5b82811015610b8057848901518255600182019150602085019450602081019050610b5b565b86831015610b9d5784890151610b99601f891682610aac565b8355505b6001600288020188555050505b505050505050565b6109f880610bbf5f395ff3fe608060405234801561000f575f80fd5b506004361061003f575f3560e01c80631dd92aa0146100435780635e30ea3c14610073578063cb159dfe146100a3575b5f80fd5b61005d600480360381019061005891906104b5565b6100d3565b60405161006a9190610514565b60405180910390f35b61008d60048036038101906100889190610560565b610100565b60405161009a91906105eb565b60405180910390f35b6100bd60048036038101906100b891906104b5565b610235565b6040516100ca9190610514565b60405180910390f35b6002818051602081018201805184825260208301602085012081835280955050505050505f915090505481565b60605f821180156101125750610fa082105b610151576040517f08c379a000000000000000000000000000000000000000000000000000000000815260040161014890610655565b60405180910390fd5b5f60405180602001604052805f81525090505f5b5f80828154811061017957610178610673565b5b905f5260205f200154111561022b575b5f818154811061019c5761019b610673565b5b905f5260205f20015484106102185781600182815481106101c0576101bf610673565b5b905f5260205f20016040516020016101d99291906107c9565b60405160208183030381529060405291505f81815481106101fd576101fc610673565b5b905f5260205f200154846102119190610819565b9350610189565b80806102239061084c565b915050610165565b5080915050919050565b5f805f90505f8390505f5b815181101561035d575f600283838151811061025f5761025e610673565b5b602001015160f81c60f81b60405160200161027a91906108de565b60405160208183030381529060405260405161029691906108f8565b9081526020016040518091039020549050600183516102b59190610819565b8210801561032857506002836001846102ce919061090e565b815181106102df576102de610673565b5b602001015160f81c60f81b6040516020016102fa91906108de565b60405160208183030381529060405260405161031691906108f8565b90815260200160405180910390205481125b156103405780846103399190610941565b935061034f565b808461034c9190610981565b93505b508080600101915050610240565b508192505050919050565b5f604051905090565b5f80fd5b5f80fd5b5f80fd5b5f80fd5b5f601f19601f8301169050919050565b7f4e487b71000000000000000000000000000000000000000000000000000000005f52604160045260245ffd5b6103c782610381565b810181811067ffffffffffffffff821117156103e6576103e5610391565b5b80604052505050565b5f6103f8610368565b905061040482826103be565b919050565b5f67ffffffffffffffff82111561042357610422610391565b5b61042c82610381565b9050602081019050919050565b828183375f83830152505050565b5f61045961045484610409565b6103ef565b9050828152602081018484840111156104755761047461037d565b5b610480848285610439565b509392505050565b5f82601f83011261049c5761049b610379565b5b81356104ac848260208601610447565b91505092915050565b5f602082840312156104ca576104c9610371565b5b5f82013567ffffffffffffffff8111156104e7576104e6610375565b5b6104f384828501610488565b91505092915050565b5f819050919050565b61050e816104fc565b82525050565b5f6020820190506105275f830184610505565b92915050565b5f819050919050565b61053f8161052d565b8114610549575f80fd5b50565b5f8135905061055a81610536565b92915050565b5f6020828403121561057557610574610371565b5b5f6105828482850161054c565b91505092915050565b5f81519050919050565b5f82825260208201905092915050565b8281835e5f83830152505050565b5f6105bd8261058b565b6105c78185610595565b93506105d78185602086016105a5565b6105e081610381565b840191505092915050565b5f6020820190508181035f83015261060381846105b3565b905092915050565b7f496e707574206d757374206265206265747765656e203120616e6420333939395f82015250565b5f61063f602083610595565b915061064a8261060b565b602082019050919050565b5f6020820190508181035f83015261066c81610633565b9050919050565b7f4e487b71000000000000000000000000000000000000000000000000000000005f52603260045260245ffd5b5f81905092915050565b5f6106b48261058b565b6106be81856106a0565b93506106ce8185602086016105a5565b80840191505092915050565b7f4e487b71000000000000000000000000000000000000000000000000000000005f52602260045260245ffd5b5f600282049050600182168061071e57607f821691505b602082108103610731576107306106da565b5b50919050565b5f819050815f5260205f209050919050565b5f815461075581610707565b61075f81866106a0565b9450600182165f8114610779576001811461078e576107c0565b60ff19831686528115158202860193506107c0565b61079785610737565b5f5b838110156107b857815481890152600182019150602081019050610799565b838801955050505b50505092915050565b5f6107d482856106aa565b91506107e08284610749565b91508190509392505050565b7f4e487b71000000000000000000000000000000000000000000000000000000005f52601160045260245ffd5b5f6108238261052d565b915061082e8361052d565b9250828203905081811115610846576108456107ec565b5b92915050565b5f6108568261052d565b91507fffffffffffffffffffffffffffffffffffffffffffffffffffffffffffffffff8203610888576108876107ec565b5b600182019050919050565b5f7fff0000000000000000000000000000000000000000000000000000000000000082169050919050565b5f819050919050565b6108d86108d382610893565b6108be565b82525050565b5f6108e982846108c7565b60018201915081905092915050565b5f61090382846106aa565b915081905092915050565b5f6109188261052d565b91506109238361052d565b925082820190508082111561093b5761093a6107ec565b5b92915050565b5f61094b826104fc565b9150610956836104fc565b925082820390508181125f8412168282135f85121516171561097b5761097a6107ec565b5b92915050565b5f61098b826104fc565b9150610996836104fc565b92508282019050828112155f8312168382125f8412151617156109bc576109bb6107ec565b5b9291505056fea2646970667358221220d4571d200a68a330b3c9ecaabb89c9b6e964f9ee4384539cd3ad55ce3df9c6bc64736f6c634300081a0033",
					"opcodes": "PUSH1 0x80 PUSH1 0x40 MSTORE PUSH1 0x40 MLOAD DUP1 PUSH2 0x1C0 ADD PUSH1 0x40 MSTORE DUP1 PUSH2 0x3E8 PUSH2 0xFFFF AND DUP2 MSTORE PUSH1 0x20 ADD PUSH2 0x384 PUSH2 0xFFFF AND DUP2 MSTORE PUSH1 0x20 ADD PUSH2 0x1F4 PUSH2 0xFFFF AND DUP2 MSTORE PUSH1 0x20 ADD PUSH2 0x190 PUSH2 0xFFFF AND DUP2 MSTORE PUSH1 0x20 ADD PUSH1 0x64 PUSH2 0xFFFF AND DUP2 MSTORE PUSH1 0x20 ADD PUSH1 0x5A PUSH2 0xFFFF AND DUP2 MSTORE PUSH1 0x20 ADD PUSH1 0x32 PUSH2 0xFFFF AND DUP2 MSTORE PUSH1 0x20 ADD PUSH1 0x28 PUSH2 0xFFFF AND DUP2 MSTORE PUSH1 0x20 ADD PUSH1 0xA PUSH2 0xFFFF AND DUP2 MSTORE PUSH1 0x20 ADD PUSH1 0x9 PUSH2 0xFFFF AND DUP2 MSTORE PUSH1 0x20 ADD PUSH1 0x5 PUSH2 0xFFFF AND DUP2 MSTORE PUSH1 0x20 ADD PUSH1 0x4 PUSH2 0xFFFF AND DUP2 MSTORE PUSH1 0x20 ADD PUSH1 0x1 PUSH2 0xFFFF AND DUP2 MSTORE PUSH1 0x20 ADD PUSH0 PUSH2 0xFFFF AND DUP2 MSTORE POP PUSH0 SWAP1 PUSH1 0xE PUSH2 0xBA SWAP3 SWAP2 SWAP1 PUSH2 0x4EA JUMP JUMPDEST POP PUSH1 0x40 MLOAD DUP1 PUSH2 0x1C0 ADD PUSH1 0x40 MSTORE DUP1 PUSH1 0x40 MLOAD DUP1 PUSH1 0x40 ADD PUSH1 0x40 MSTORE DUP1 PUSH1 0x1 DUP2 MSTORE PUSH1 0x20 ADD PUSH32 0x4D00000000000000000000000000000000000000000000000000000000000000 DUP2 MSTORE POP DUP2 MSTORE PUSH1 0x20 ADD PUSH1 0x40 MLOAD DUP1 PUSH1 0x40 ADD PUSH1 0x40 MSTORE DUP1 PUSH1 0x2 DUP2 MSTORE PUSH1 0x20 ADD PUSH32 0x434D000000000000000000000000000000000000000000000000000000000000 DUP2 MSTORE POP DUP2 MSTORE PUSH1 0x20 ADD PUSH1 0x40 MLOAD DUP1 PUSH1 0x40 ADD PUSH1 0x40 MSTORE DUP1 PUSH1 0x1 DUP2 MSTORE PUSH1 0x20 ADD PUSH32 0x4400000000000000000000000000000000000000000000000000000000000000 DUP2 MSTORE POP DUP2 MSTORE PUSH1 0x20 ADD PUSH1 0x40 MLOAD DUP1 PUSH1 0x40 ADD PUSH1 0x40 MSTORE DUP1 PUSH1 0x2 DUP2 MSTORE PUSH1 0x20 ADD PUSH32 0x4344000000000000000000000000000000000000000000000000000000000000 DUP2 MSTORE POP DUP2 MSTORE PUSH1 0x20 ADD PUSH1 0x40 MLOAD DUP1 PUSH1 0x40 ADD PUSH1 0x40 MSTORE DUP1 PUSH1 0x1 DUP2 MSTORE PUSH1 0x20 ADD PUSH32 0x4300000000000000000000000000000000000000000000000000000000000000 DUP2 MSTORE POP DUP2 MSTORE PUSH1 0x20 ADD PUSH1 0x40 MLOAD DUP1 PUSH1 0x40 ADD PUSH1 0x40 MSTORE DUP1 PUSH1 0x2 DUP2 MSTORE PUSH1 0x20 ADD PUSH32 0x5843000000000000000000000000000000000000000000000000000000000000 DUP2 MSTORE POP DUP2 MSTORE PUSH1 0x20 ADD PUSH1 0x40 MLOAD DUP1 PUSH1 0x40 ADD PUSH1 0x40 MSTORE DUP1 PUSH1 0x1 DUP2 MSTORE PUSH1 0x20 ADD PUSH32 0x4C00000000000000000000000000000000000000000000000000000000000000 DUP2 MSTORE POP DUP2 MSTORE PUSH1 0x20 ADD PUSH1 0x40 MLOAD DUP1 PUSH1 0x40 ADD PUSH1 0x40 MSTORE DUP1 PUSH1 0x2 DUP2 MSTORE PUSH1 0x20 ADD PUSH32 0x584C000000000000000000000000000000000000000000000000000000000000 DUP2 MSTORE POP DUP2 MSTORE PUSH1 0x20 ADD PUSH1 0x40 MLOAD DUP1 PUSH1 0x40 ADD PUSH1 0x40 MSTORE DUP1 PUSH1 0x1 DUP2 MSTORE PUSH1 0x20 ADD PUSH32 0x5800000000000000000000000000000000000000000000000000000000000000 DUP2 MSTORE POP DUP2 MSTORE PUSH1 0x20 ADD PUSH1 0x40 MLOAD DUP1 PUSH1 0x40 ADD PUSH1 0x40 MSTORE DUP1 PUSH1 0x2 DUP2 MSTORE PUSH1 0x20 ADD PUSH32 0x4958000000000000000000000000000000000000000000000000000000000000 DUP2 MSTORE POP DUP2 MSTORE PUSH1 0x20 ADD PUSH1 0x40 MLOAD DUP1 PUSH1 0x40 ADD PUSH1 0x40 MSTORE DUP1 PUSH1 0x1 DUP2 MSTORE PUSH1 0x20 ADD PUSH32 0x5600000000000000000000000000000000000000000000000000000000000000 DUP2 MSTORE POP DUP2 MSTORE PUSH1 0x20 ADD PUSH1 0x40 MLOAD DUP1 PUSH1 0x40 ADD PUSH1 0x40 MSTORE DUP1 PUSH1 0x2 DUP2 MSTORE PUSH1 0x20 ADD PUSH32 0x4956000000000000000000000000000000000000000000000000000000000000 DUP2 MSTORE POP DUP2 MSTORE PUSH1 0x20 ADD PUSH1 0x40 MLOAD DUP1 PUSH1 0x40 ADD PUSH1 0x40 MSTORE DUP1 PUSH1 0x1 DUP2 MSTORE PUSH1 0x20 ADD PUSH32 0x4900000000000000000000000000000000000000000000000000000000000000 DUP2 MSTORE POP DUP2 MSTORE PUSH1 0x20 ADD PUSH1 0x40 MLOAD DUP1 PUSH1 0x20 ADD PUSH1 0x40 MSTORE DUP1 PUSH0 DUP2 MSTORE POP DUP2 MSTORE POP PUSH1 0x1 SWAP1 PUSH1 0xE PUSH2 0x3E8 SWAP3 SWAP2 SWAP1 PUSH2 0x53B JUMP JUMPDEST POP CALLVALUE DUP1 ISZERO PUSH2 0x3F4 JUMPI PUSH0 DUP1 REVERT JUMPDEST POP PUSH1 0x1 PUSH1 0x2 PUSH1 0x40 MLOAD PUSH2 0x405 SWAP1 PUSH2 0x661 JUMP JUMPDEST SWAP1 DUP2 MSTORE PUSH1 0x20 ADD PUSH1 0x40 MLOAD DUP1 SWAP2 SUB SWAP1 KECCAK256 DUP2 SWAP1 SSTORE POP PUSH1 0x5 PUSH1 0x2 PUSH1 0x40 MLOAD PUSH2 0x427 SWAP1 PUSH2 0x6BF JUMP JUMPDEST SWAP1 DUP2 MSTORE PUSH1 0x20 ADD PUSH1 0x40 MLOAD DUP1 SWAP2 SUB SWAP1 KECCAK256 DUP2 SWAP1 SSTORE POP PUSH1 0xA PUSH1 0x2 PUSH1 0x40 MLOAD PUSH2 0x449 SWAP1 PUSH2 0x71D JUMP JUMPDEST SWAP1 DUP2 MSTORE PUSH1 0x20 ADD PUSH1 0x40 MLOAD DUP1 SWAP2 SUB SWAP1 KECCAK256 DUP2 SWAP1 SSTORE POP PUSH1 0x32 PUSH1 0x2 PUSH1 0x40 MLOAD PUSH2 0x46B SWAP1 PUSH2 0x77B JUMP JUMPDEST SWAP1 DUP2 MSTORE PUSH1 0x20 ADD PUSH1 0x40 MLOAD DUP1 SWAP2 SUB SWAP1 KECCAK256 DUP2 SWAP1 SSTORE POP PUSH1 0x64 PUSH1 0x2 PUSH1 0x40 MLOAD PUSH2 0x48D SWAP1 PUSH2 0x7D9 JUMP JUMPDEST SWAP1 DUP2 MSTORE PUSH1 0x20 ADD PUSH1 0x40 MLOAD DUP1 SWAP2 SUB SWAP1 KECCAK256 DUP2 SWAP1 SSTORE POP PUSH2 0x1F4 PUSH1 0x2 PUSH1 0x40 MLOAD PUSH2 0x4B0 SWAP1 PUSH2 0x837 JUMP JUMPDEST SWAP1 DUP2 MSTORE PUSH1 0x20 ADD PUSH1 0x40 MLOAD DUP1 SWAP2 SUB SWAP1 KECCAK256 DUP2 SWAP1 SSTORE POP PUSH2 0x3E8 PUSH1 0x2 PUSH1 0x40 MLOAD PUSH2 0x4D3 SWAP1 PUSH2 0x895 JUMP JUMPDEST SWAP1 DUP2 MSTORE PUSH1 0x20 ADD PUSH1 0x40 MLOAD DUP1 SWAP2 SUB SWAP1 KECCAK256 DUP2 SWAP1 SSTORE POP PUSH2 0xBB2 JUMP JUMPDEST DUP3 DUP1 SLOAD DUP3 DUP3 SSTORE SWAP1 PUSH0 MSTORE PUSH1 0x20 PUSH0 KECCAK256 SWAP1 DUP2 ADD SWAP3 DUP3 ISZERO PUSH2 0x52A JUMPI SWAP2 PUSH1 0x20 MUL DUP3 ADD JUMPDEST DUP3 DUP2 GT ISZERO PUSH2 0x529 JUMPI DUP3 MLOAD DUP3 SWAP1 PUSH2 0xFFFF AND SWAP1 SSTORE SWAP2 PUSH1 0x20 ADD SWAP2 SWAP1 PUSH1 0x1 ADD SWAP1 PUSH2 0x508 JUMP JUMPDEST JUMPDEST POP SWAP1 POP PUSH2 0x537 SWAP2 SWAP1 PUSH2 0x592 JUMP JUMPDEST POP SWAP1 JUMP JUMPDEST DUP3 DUP1 SLOAD DUP3 DUP3 SSTORE SWAP1 PUSH0 MSTORE PUSH1 0x20 PUSH0 KECCAK256 SWAP1 DUP2 ADD SWAP3 DUP3 ISZERO PUSH2 0x581 JUMPI SWAP2 PUSH1 0x20 MUL DUP3 ADD JUMPDEST DUP3 DUP2 GT ISZERO PUSH2 0x580 JUMPI DUP3 MLOAD DUP3 SWAP1 DUP2 PUSH2 0x570 SWAP2 SWAP1 PUSH2 0xAE3 JUMP JUMPDEST POP SWAP2 PUSH1 0x20 ADD SWAP2 SWAP1 PUSH1 0x1 ADD SWAP1 PUSH2 0x559 JUMP JUMPDEST JUMPDEST POP SWAP1 POP PUSH2 0x58E SWAP2 SWAP1 PUSH2 0x5AD JUMP JUMPDEST POP SWAP1 JUMP JUMPDEST JUMPDEST DUP1 DUP3 GT ISZERO PUSH2 0x5A9 JUMPI PUSH0 DUP2 PUSH0 SWAP1 SSTORE POP PUSH1 0x1 ADD PUSH2 0x593 JUMP JUMPDEST POP SWAP1 JUMP JUMPDEST JUMPDEST DUP1 DUP3 GT ISZERO PUSH2 0x5CC JUMPI PUSH0 DUP2 DUP2 PUSH2 0x5C3 SWAP2 SWAP1 PUSH2 0x5D0 JUMP JUMPDEST POP PUSH1 0x1 ADD PUSH2 0x5AE JUMP JUMPDEST POP SWAP1 JUMP JUMPDEST POP DUP1 SLOAD PUSH2 0x5DC SWAP1 PUSH2 0x90D JUMP JUMPDEST PUSH0 DUP3 SSTORE DUP1 PUSH1 0x1F LT PUSH2 0x5ED JUMPI POP PUSH2 0x60A JUMP JUMPDEST PUSH1 0x1F ADD PUSH1 0x20 SWAP1 DIV SWAP1 PUSH0 MSTORE PUSH1 0x20 PUSH0 KECCAK256 SWAP1 DUP2 ADD SWAP1 PUSH2 0x609 SWAP2 SWAP1 PUSH2 0x592 JUMP JUMPDEST JUMPDEST POP JUMP JUMPDEST PUSH0 DUP2 SWAP1 POP SWAP3 SWAP2 POP POP JUMP JUMPDEST PUSH32 0x4900000000000000000000000000000000000000000000000000000000000000 PUSH0 DUP3 ADD MSTORE POP JUMP JUMPDEST PUSH0 PUSH2 0x64B PUSH1 0x1 DUP4 PUSH2 0x60D JUMP JUMPDEST SWAP2 POP PUSH2 0x656 DUP3 PUSH2 0x617 JUMP JUMPDEST PUSH1 0x1 DUP3 ADD SWAP1 POP SWAP2 SWAP1 POP JUMP JUMPDEST PUSH0 PUSH2 0x66B DUP3 PUSH2 0x63F JUMP JUMPDEST SWAP2 POP DUP2 SWAP1 POP SWAP2 SWAP1 POP JUMP JUMPDEST PUSH32 0x5600000000000000000000000000000000000000000000000000000000000000 PUSH0 DUP3 ADD MSTORE POP JUMP JUMPDEST PUSH0 PUSH2 0x6A9 PUSH1 0x1 DUP4 PUSH2 0x60D JUMP JUMPDEST SWAP2 POP PUSH2 0x6B4 DUP3 PUSH2 0x675 JUMP JUMPDEST PUSH1 0x1 DUP3 ADD SWAP1 POP SWAP2 SWAP1 POP JUMP JUMPDEST PUSH0 PUSH2 0x6C9 DUP3 PUSH2 0x69D JUMP JUMPDEST SWAP2 POP DUP2 SWAP1 POP SWAP2 SWAP1 POP JUMP JUMPDEST PUSH32 0x5800000000000000000000000000000000000000000000000000000000000000 PUSH0 DUP3 ADD MSTORE POP JUMP JUMPDEST PUSH0 PUSH2 0x707 PUSH1 0x1 DUP4 PUSH2 0x60D JUMP JUMPDEST SWAP2 POP PUSH2 0x712 DUP3 PUSH2 0x6D3 JUMP JUMPDEST PUSH1 0x1 DUP3 ADD SWAP1 POP SWAP2 SWAP1 POP JUMP JUMPDEST PUSH0 PUSH2 0x727 DUP3 PUSH2 0x6FB JUMP JUMPDEST SWAP2 POP DUP2 SWAP1 POP SWAP2 SWAP1 POP JUMP JUMPDEST PUSH32 0x4C00000000000000000000000000000000000000000000000000000000000000 PUSH0 DUP3 ADD MSTORE POP JUMP JUMPDEST PUSH0 PUSH2 0x765 PUSH1 0x1 DUP4 PUSH2 0x60D JUMP JUMPDEST SWAP2 POP PUSH2 0x770 DUP3 PUSH2 0x731 JUMP JUMPDEST PUSH1 0x1 DUP3 ADD SWAP1 POP SWAP2 SWAP1 POP JUMP JUMPDEST PUSH0 PUSH2 0x785 DUP3 PUSH2 0x759 JUMP JUMPDEST SWAP2 POP DUP2 SWAP1 POP SWAP2 SWAP1 POP JUMP JUMPDEST PUSH32 0x4300000000000000000000000000000000000000000000000000000000000000 PUSH0 DUP3 ADD MSTORE POP JUMP JUMPDEST PUSH0 PUSH2 0x7C3 PUSH1 0x1 DUP4 PUSH2 0x60D JUMP JUMPDEST SWAP2 POP PUSH2 0x7CE DUP3 PUSH2 0x78F JUMP JUMPDEST PUSH1 0x1 DUP3 ADD SWAP1 POP SWAP2 SWAP1 POP JUMP JUMPDEST PUSH0 PUSH2 0x7E3 DUP3 PUSH2 0x7B7 JUMP JUMPDEST SWAP2 POP DUP2 SWAP1 POP SWAP2 SWAP1 POP JUMP JUMPDEST PUSH32 0x4400000000000000000000000000000000000000000000000000000000000000 PUSH0 DUP3 ADD MSTORE POP JUMP JUMPDEST PUSH0 PUSH2 0x821 PUSH1 0x1 DUP4 PUSH2 0x60D JUMP JUMPDEST SWAP2 POP PUSH2 0x82C DUP3 PUSH2 0x7ED JUMP JUMPDEST PUSH1 0x1 DUP3 ADD SWAP1 POP SWAP2 SWAP1 POP JUMP JUMPDEST PUSH0 PUSH2 0x841 DUP3 PUSH2 0x815 JUMP JUMPDEST SWAP2 POP DUP2 SWAP1 POP SWAP2 SWAP1 POP JUMP JUMPDEST PUSH32 0x4D00000000000000000000000000000000000000000000000000000000000000 PUSH0 DUP3 ADD MSTORE POP JUMP JUMPDEST PUSH0 PUSH2 0x87F PUSH1 0x1 DUP4 PUSH2 0x60D JUMP JUMPDEST SWAP2 POP PUSH2 0x88A DUP3 PUSH2 0x84B JUMP JUMPDEST PUSH1 0x1 DUP3 ADD SWAP1 POP SWAP2 SWAP1 POP JUMP JUMPDEST PUSH0 PUSH2 0x89F DUP3 PUSH2 0x873 JUMP JUMPDEST SWAP2 POP DUP2 SWAP1 POP SWAP2 SWAP1 POP JUMP JUMPDEST PUSH0 DUP2 MLOAD SWAP1 POP SWAP2 SWAP1 POP JUMP JUMPDEST PUSH32 0x4E487B7100000000000000000000000000000000000000000000000000000000 PUSH0 MSTORE PUSH1 0x41 PUSH1 0x4 MSTORE PUSH1 0x24 PUSH0 REVERT JUMPDEST PUSH32 0x4E487B7100000000000000000000000000000000000000000000000000000000 PUSH0 MSTORE PUSH1 0x22 PUSH1 0x4 MSTORE PUSH1 0x24 PUSH0 REVERT JUMPDEST PUSH0 PUSH1 0x2 DUP3 DIV SWAP1 POP PUSH1 0x1 DUP3 AND DUP1 PUSH2 0x924 JUMPI PUSH1 0x7F DUP3 AND SWAP2 POP JUMPDEST PUSH1 0x20 DUP3 LT DUP2 SUB PUSH2 0x937 JUMPI PUSH2 0x936 PUSH2 0x8E0 JUMP JUMPDEST JUMPDEST POP SWAP2 SWAP1 POP JUMP JUMPDEST PUSH0 DUP2 SWAP1 POP DUP2 PUSH0 MSTORE PUSH1 0x20 PUSH0 KECCAK256 SWAP1 POP SWAP2 SWAP1 POP JUMP JUMPDEST PUSH0 PUSH1 0x20 PUSH1 0x1F DUP4 ADD DIV SWAP1 POP SWAP2 SWAP1 POP JUMP JUMPDEST PUSH0 DUP3 DUP3 SHL SWAP1 POP SWAP3 SWAP2 POP POP JUMP JUMPDEST PUSH0 PUSH1 0x8 DUP4 MUL PUSH2 0x999 PUSH32 0xFFFFFFFFFFFFFFFFFFFFFFFFFFFFFFFFFFFFFFFFFFFFFFFFFFFFFFFFFFFFFFFF DUP3 PUSH2 0x95E JUMP JUMPDEST PUSH2 0x9A3 DUP7 DUP4 PUSH2 0x95E JUMP JUMPDEST SWAP6 POP DUP1 NOT DUP5 AND SWAP4 POP DUP1 DUP7 AND DUP5 OR SWAP3 POP POP POP SWAP4 SWAP3 POP POP POP JUMP JUMPDEST PUSH0 DUP2 SWAP1 POP SWAP2 SWAP1 POP JUMP JUMPDEST PUSH0 DUP2 SWAP1 POP SWAP2 SWAP1 POP JUMP JUMPDEST PUSH0 PUSH2 0x9E7 PUSH2 0x9E2 PUSH2 0x9DD DUP5 PUSH2 0x9BB JUMP JUMPDEST PUSH2 0x9C4 JUMP JUMPDEST PUSH2 0x9BB JUMP JUMPDEST SWAP1 POP SWAP2 SWAP1 POP JUMP JUMPDEST PUSH0 DUP2 SWAP1 POP SWAP2 SWAP1 POP JUMP JUMPDEST PUSH2 0xA00 DUP4 PUSH2 0x9CD JUMP JUMPDEST PUSH2 0xA14 PUSH2 0xA0C DUP3 PUSH2 0x9EE JUMP JUMPDEST DUP5 DUP5 SLOAD PUSH2 0x96A JUMP JUMPDEST DUP3 SSTORE POP POP POP POP JUMP JUMPDEST PUSH0 SWAP1 JUMP JUMPDEST PUSH2 0xA28 PUSH2 0xA1C JUMP JUMPDEST PUSH2 0xA33 DUP2 DUP5 DUP5 PUSH2 0x9F7 JUMP JUMPDEST POP POP POP JUMP JUMPDEST JUMPDEST DUP2 DUP2 LT ISZERO PUSH2 0xA56 JUMPI PUSH2 0xA4B PUSH0 DUP3 PUSH2 0xA20 JUMP JUMPDEST PUSH1 0x1 DUP2 ADD SWAP1 POP PUSH2 0xA39 JUMP JUMPDEST POP POP JUMP JUMPDEST PUSH1 0x1F DUP3 GT ISZERO PUSH2 0xA9B JUMPI PUSH2 0xA6C DUP2 PUSH2 0x93D JUMP JUMPDEST PUSH2 0xA75 DUP5 PUSH2 0x94F JUMP JUMPDEST DUP2 ADD PUSH1 0x20 DUP6 LT ISZERO PUSH2 0xA84 JUMPI DUP2 SWAP1 POP JUMPDEST PUSH2 0xA98 PUSH2 0xA90 DUP6 PUSH2 0x94F JUMP JUMPDEST DUP4 ADD DUP3 PUSH2 0xA38 JUMP JUMPDEST POP POP JUMPDEST POP POP POP JUMP JUMPDEST PUSH0 DUP3 DUP3 SHR SWAP1 POP SWAP3 SWAP2 POP POP JUMP JUMPDEST PUSH0 PUSH2 0xABB PUSH0 NOT DUP5 PUSH1 0x8 MUL PUSH2 0xAA0 JUMP JUMPDEST NOT DUP1 DUP4 AND SWAP2 POP POP SWAP3 SWAP2 POP POP JUMP JUMPDEST PUSH0 PUSH2 0xAD3 DUP4 DUP4 PUSH2 0xAAC JUMP JUMPDEST SWAP2 POP DUP3 PUSH1 0x2 MUL DUP3 OR SWAP1 POP SWAP3 SWAP2 POP POP JUMP JUMPDEST PUSH2 0xAEC DUP3 PUSH2 0x8A9 JUMP JUMPDEST PUSH8 0xFFFFFFFFFFFFFFFF DUP2 GT ISZERO PUSH2 0xB05 JUMPI PUSH2 0xB04 PUSH2 0x8B3 JUMP JUMPDEST JUMPDEST PUSH2 0xB0F DUP3 SLOAD PUSH2 0x90D JUMP JUMPDEST PUSH2 0xB1A DUP3 DUP3 DUP6 PUSH2 0xA5A JUMP JUMPDEST PUSH0 PUSH1 0x20 SWAP1 POP PUSH1 0x1F DUP4 GT PUSH1 0x1 DUP2 EQ PUSH2 0xB4B JUMPI PUSH0 DUP5 ISZERO PUSH2 0xB39 JUMPI DUP3 DUP8 ADD MLOAD SWAP1 POP JUMPDEST PUSH2 0xB43 DUP6 DUP3 PUSH2 0xAC8 JUMP JUMPDEST DUP7 SSTORE POP PUSH2 0xBAA JUMP JUMPDEST PUSH1 0x1F NOT DUP5 AND PUSH2 0xB59 DUP7 PUSH2 0x93D JUMP JUMPDEST PUSH0 JUMPDEST DUP3 DUP2 LT ISZERO PUSH2 0xB80 JUMPI DUP5 DUP10 ADD MLOAD DUP3 SSTORE PUSH1 0x1 DUP3 ADD SWAP2 POP PUSH1 0x20 DUP6 ADD SWAP5 POP PUSH1 0x20 DUP2 ADD SWAP1 POP PUSH2 0xB5B JUMP JUMPDEST DUP7 DUP4 LT ISZERO PUSH2 0xB9D JUMPI DUP5 DUP10 ADD MLOAD PUSH2 0xB99 PUSH1 0x1F DUP10 AND DUP3 PUSH2 0xAAC JUMP JUMPDEST DUP4 SSTORE POP JUMPDEST PUSH1 0x1 PUSH1 0x2 DUP9 MUL ADD DUP9 SSTORE POP POP POP JUMPDEST POP POP POP POP POP POP JUMP JUMPDEST PUSH2 0x9F8 DUP1 PUSH2 0xBBF PUSH0 CODECOPY PUSH0 RETURN INVALID PUSH1 0x80 PUSH1 0x40 MSTORE CALLVALUE DUP1 ISZERO PUSH2 0xF JUMPI PUSH0 DUP1 REVERT JUMPDEST POP PUSH1 0x4 CALLDATASIZE LT PUSH2 0x3F JUMPI PUSH0 CALLDATALOAD PUSH1 0xE0 SHR DUP1 PUSH4 0x1DD92AA0 EQ PUSH2 0x43 JUMPI DUP1 PUSH4 0x5E30EA3C EQ PUSH2 0x73 JUMPI DUP1 PUSH4 0xCB159DFE EQ PUSH2 0xA3 JUMPI JUMPDEST PUSH0 DUP1 REVERT JUMPDEST PUSH2 0x5D PUSH1 0x4 DUP1 CALLDATASIZE SUB DUP2 ADD SWAP1 PUSH2 0x58 SWAP2 SWAP1 PUSH2 0x4B5 JUMP JUMPDEST PUSH2 0xD3 JUMP JUMPDEST PUSH1 0x40 MLOAD PUSH2 0x6A SWAP2 SWAP1 PUSH2 0x514 JUMP JUMPDEST PUSH1 0x40 MLOAD DUP1 SWAP2 SUB SWAP1 RETURN JUMPDEST PUSH2 0x8D PUSH1 0x4 DUP1 CALLDATASIZE SUB DUP2 ADD SWAP1 PUSH2 0x88 SWAP2 SWAP1 PUSH2 0x560 JUMP JUMPDEST PUSH2 0x100 JUMP JUMPDEST PUSH1 0x40 MLOAD PUSH2 0x9A SWAP2 SWAP1 PUSH2 0x5EB JUMP JUMPDEST PUSH1 0x40 MLOAD DUP1 SWAP2 SUB SWAP1 RETURN JUMPDEST PUSH2 0xBD PUSH1 0x4 DUP1 CALLDATASIZE SUB DUP2 ADD SWAP1 PUSH2 0xB8 SWAP2 SWAP1 PUSH2 0x4B5 JUMP JUMPDEST PUSH2 0x235 JUMP JUMPDEST PUSH1 0x40 MLOAD PUSH2 0xCA SWAP2 SWAP1 PUSH2 0x514 JUMP JUMPDEST PUSH1 0x40 MLOAD DUP1 SWAP2 SUB SWAP1 RETURN JUMPDEST PUSH1 0x2 DUP2 DUP1 MLOAD PUSH1 0x20 DUP2 ADD DUP3 ADD DUP1 MLOAD DUP5 DUP3 MSTORE PUSH1 0x20 DUP4 ADD PUSH1 0x20 DUP6 ADD KECCAK256 DUP2 DUP4 MSTORE DUP1 SWAP6 POP POP POP POP POP POP PUSH0 SWAP2 POP SWAP1 POP SLOAD DUP2 JUMP JUMPDEST PUSH1 0x60 PUSH0 DUP3 GT DUP1 ISZERO PUSH2 0x112 JUMPI POP PUSH2 0xFA0 DUP3 LT JUMPDEST PUSH2 0x151 JUMPI PUSH1 0x40 MLOAD PUSH32 0x8C379A000000000000000000000000000000000000000000000000000000000 DUP2 MSTORE PUSH1 0x4 ADD PUSH2 0x148 SWAP1 PUSH2 0x655 JUMP JUMPDEST PUSH1 0x40 MLOAD DUP1 SWAP2 SUB SWAP1 REVERT JUMPDEST PUSH0 PUSH1 0x40 MLOAD DUP1 PUSH1 0x20 ADD PUSH1 0x40 MSTORE DUP1 PUSH0 DUP2 MSTORE POP SWAP1 POP PUSH0 JUMPDEST PUSH0 DUP1 DUP3 DUP2 SLOAD DUP2 LT PUSH2 0x179 JUMPI PUSH2 0x178 PUSH2 0x673 JUMP JUMPDEST JUMPDEST SWAP1 PUSH0 MSTORE PUSH1 0x20 PUSH0 KECCAK256 ADD SLOAD GT ISZERO PUSH2 0x22B JUMPI JUMPDEST PUSH0 DUP2 DUP2 SLOAD DUP2 LT PUSH2 0x19C JUMPI PUSH2 0x19B PUSH2 0x673 JUMP JUMPDEST JUMPDEST SWAP1 PUSH0 MSTORE PUSH1 0x20 PUSH0 KECCAK256 ADD SLOAD DUP5 LT PUSH2 0x218 JUMPI DUP2 PUSH1 0x1 DUP3 DUP2 SLOAD DUP2 LT PUSH2 0x1C0 JUMPI PUSH2 0x1BF PUSH2 0x673 JUMP JUMPDEST JUMPDEST SWAP1 PUSH0 MSTORE PUSH1 0x20 PUSH0 KECCAK256 ADD PUSH1 0x40 MLOAD PUSH1 0x20 ADD PUSH2 0x1D9 SWAP3 SWAP2 SWAP1 PUSH2 0x7C9 JUMP JUMPDEST PUSH1 0x40 MLOAD PUSH1 0x20 DUP2 DUP4 SUB SUB DUP2 MSTORE SWAP1 PUSH1 0x40 MSTORE SWAP2 POP PUSH0 DUP2 DUP2 SLOAD DUP2 LT PUSH2 0x1FD JUMPI PUSH2 0x1FC PUSH2 0x673 JUMP JUMPDEST JUMPDEST SWAP1 PUSH0 MSTORE PUSH1 0x20 PUSH0 KECCAK256 ADD SLOAD DUP5 PUSH2 0x211 SWAP2 SWAP1 PUSH2 0x819 JUMP JUMPDEST SWAP4 POP PUSH2 0x189 JUMP JUMPDEST DUP1 DUP1 PUSH2 0x223 SWAP1 PUSH2 0x84C JUMP JUMPDEST SWAP2 POP POP PUSH2 0x165 JUMP JUMPDEST POP DUP1 SWAP2 POP POP SWAP2 SWAP1 POP JUMP JUMPDEST PUSH0 DUP1 PUSH0 SWAP1 POP PUSH0 DUP4 SWAP1 POP PUSH0 JUMPDEST DUP2 MLOAD DUP2 LT ISZERO PUSH2 0x35D JUMPI PUSH0 PUSH1 0x2 DUP4 DUP4 DUP2 MLOAD DUP2 LT PUSH2 0x25F JUMPI PUSH2 0x25E PUSH2 0x673 JUMP JUMPDEST JUMPDEST PUSH1 0x20 ADD ADD MLOAD PUSH1 0xF8 SHR PUSH1 0xF8 SHL PUSH1 0x40 MLOAD PUSH1 0x20 ADD PUSH2 0x27A SWAP2 SWAP1 PUSH2 0x8DE JUMP JUMPDEST PUSH1 0x40 MLOAD PUSH1 0x20 DUP2 DUP4 SUB SUB DUP2 MSTORE SWAP1 PUSH1 0x40 MSTORE PUSH1 0x40 MLOAD PUSH2 0x296 SWAP2 SWAP1 PUSH2 0x8F8 JUMP JUMPDEST SWAP1 DUP2 MSTORE PUSH1 0x20 ADD PUSH1 0x40 MLOAD DUP1 SWAP2 SUB SWAP1 KECCAK256 SLOAD SWAP1 POP PUSH1 0x1 DUP4 MLOAD PUSH2 0x2B5 SWAP2 SWAP1 PUSH2 0x819 JUMP JUMPDEST DUP3 LT DUP1 ISZERO PUSH2 0x328 JUMPI POP PUSH1 0x2 DUP4 PUSH1 0x1 DUP5 PUSH2 0x2CE SWAP2 SWAP1 PUSH2 0x90E JUMP JUMPDEST DUP2 MLOAD DUP2 LT PUSH2 0x2DF JUMPI PUSH2 0x2DE PUSH2 0x673 JUMP JUMPDEST JUMPDEST PUSH1 0x20 ADD ADD MLOAD PUSH1 0xF8 SHR PUSH1 0xF8 SHL PUSH1 0x40 MLOAD PUSH1 0x20 ADD PUSH2 0x2FA SWAP2 SWAP1 PUSH2 0x8DE JUMP JUMPDEST PUSH1 0x40 MLOAD PUSH1 0x20 DUP2 DUP4 SUB SUB DUP2 MSTORE SWAP1 PUSH1 0x40 MSTORE PUSH1 0x40 MLOAD PUSH2 0x316 SWAP2 SWAP1 PUSH2 0x8F8 JUMP JUMPDEST SWAP1 DUP2 MSTORE PUSH1 0x20 ADD PUSH1 0x40 MLOAD DUP1 SWAP2 SUB SWAP1 KECCAK256 SLOAD DUP2 SLT JUMPDEST ISZERO PUSH2 0x340 JUMPI DUP1 DUP5 PUSH2 0x339 SWAP2 SWAP1 PUSH2 0x941 JUMP JUMPDEST SWAP4 POP PUSH2 0x34F JUMP JUMPDEST DUP1 DUP5 PUSH2 0x34C SWAP2 SWAP1 PUSH2 0x981 JUMP JUMPDEST SWAP4 POP JUMPDEST POP DUP1 DUP1 PUSH1 0x1 ADD SWAP2 POP POP PUSH2 0x240 JUMP JUMPDEST POP DUP2 SWAP3 POP POP POP SWAP2 SWAP1 POP JUMP JUMPDEST PUSH0 PUSH1 0x40 MLOAD SWAP1 POP SWAP1 JUMP JUMPDEST PUSH0 DUP1 REVERT JUMPDEST PUSH0 DUP1 REVERT JUMPDEST PUSH0 DUP1 REVERT JUMPDEST PUSH0 DUP1 REVERT JUMPDEST PUSH0 PUSH1 0x1F NOT PUSH1 0x1F DUP4 ADD AND SWAP1 POP SWAP2 SWAP1 POP JUMP JUMPDEST PUSH32 0x4E487B7100000000000000000000000000000000000000000000000000000000 PUSH0 MSTORE PUSH1 0x41 PUSH1 0x4 MSTORE PUSH1 0x24 PUSH0 REVERT JUMPDEST PUSH2 0x3C7 DUP3 PUSH2 0x381 JUMP JUMPDEST DUP2 ADD DUP2 DUP2 LT PUSH8 0xFFFFFFFFFFFFFFFF DUP3 GT OR ISZERO PUSH2 0x3E6 JUMPI PUSH2 0x3E5 PUSH2 0x391 JUMP JUMPDEST JUMPDEST DUP1 PUSH1 0x40 MSTORE POP POP POP JUMP JUMPDEST PUSH0 PUSH2 0x3F8 PUSH2 0x368 JUMP JUMPDEST SWAP1 POP PUSH2 0x404 DUP3 DUP3 PUSH2 0x3BE JUMP JUMPDEST SWAP2 SWAP1 POP JUMP JUMPDEST PUSH0 PUSH8 0xFFFFFFFFFFFFFFFF DUP3 GT ISZERO PUSH2 0x423 JUMPI PUSH2 0x422 PUSH2 0x391 JUMP JUMPDEST JUMPDEST PUSH2 0x42C DUP3 PUSH2 0x381 JUMP JUMPDEST SWAP1 POP PUSH1 0x20 DUP2 ADD SWAP1 POP SWAP2 SWAP1 POP JUMP JUMPDEST DUP3 DUP2 DUP4 CALLDATACOPY PUSH0 DUP4 DUP4 ADD MSTORE POP POP POP JUMP JUMPDEST PUSH0 PUSH2 0x459 PUSH2 0x454 DUP5 PUSH2 0x409 JUMP JUMPDEST PUSH2 0x3EF JUMP JUMPDEST SWAP1 POP DUP3 DUP2 MSTORE PUSH1 0x20 DUP2 ADD DUP5 DUP5 DUP5 ADD GT ISZERO PUSH2 0x475 JUMPI PUSH2 0x474 PUSH2 0x37D JUMP JUMPDEST JUMPDEST PUSH2 0x480 DUP5 DUP3 DUP6 PUSH2 0x439 JUMP JUMPDEST POP SWAP4 SWAP3 POP POP POP JUMP JUMPDEST PUSH0 DUP3 PUSH1 0x1F DUP4 ADD SLT PUSH2 0x49C JUMPI PUSH2 0x49B PUSH2 0x379 JUMP JUMPDEST JUMPDEST DUP2 CALLDATALOAD PUSH2 0x4AC DUP5 DUP3 PUSH1 0x20 DUP7 ADD PUSH2 0x447 JUMP JUMPDEST SWAP2 POP POP SWAP3 SWAP2 POP POP JUMP JUMPDEST PUSH0 PUSH1 0x20 DUP3 DUP5 SUB SLT ISZERO PUSH2 0x4CA JUMPI PUSH2 0x4C9 PUSH2 0x371 JUMP JUMPDEST JUMPDEST PUSH0 DUP3 ADD CALLDATALOAD PUSH8 0xFFFFFFFFFFFFFFFF DUP2 GT ISZERO PUSH2 0x4E7 JUMPI PUSH2 0x4E6 PUSH2 0x375 JUMP JUMPDEST JUMPDEST PUSH2 0x4F3 DUP5 DUP3 DUP6 ADD PUSH2 0x488 JUMP JUMPDEST SWAP2 POP POP SWAP3 SWAP2 POP POP JUMP JUMPDEST PUSH0 DUP2 SWAP1 POP SWAP2 SWAP1 POP JUMP JUMPDEST PUSH2 0x50E DUP2 PUSH2 0x4FC JUMP JUMPDEST DUP3 MSTORE POP POP JUMP JUMPDEST PUSH0 PUSH1 0x20 DUP3 ADD SWAP1 POP PUSH2 0x527 PUSH0 DUP4 ADD DUP5 PUSH2 0x505 JUMP JUMPDEST SWAP3 SWAP2 POP POP JUMP JUMPDEST PUSH0 DUP2 SWAP1 POP SWAP2 SWAP1 POP JUMP JUMPDEST PUSH2 0x53F DUP2 PUSH2 0x52D JUMP JUMPDEST DUP2 EQ PUSH2 0x549 JUMPI PUSH0 DUP1 REVERT JUMPDEST POP JUMP JUMPDEST PUSH0 DUP2 CALLDATALOAD SWAP1 POP PUSH2 0x55A DUP2 PUSH2 0x536 JUMP JUMPDEST SWAP3 SWAP2 POP POP JUMP JUMPDEST PUSH0 PUSH1 0x20 DUP3 DUP5 SUB SLT ISZERO PUSH2 0x575 JUMPI PUSH2 0x574 PUSH2 0x371 JUMP JUMPDEST JUMPDEST PUSH0 PUSH2 0x582 DUP5 DUP3 DUP6 ADD PUSH2 0x54C JUMP JUMPDEST SWAP2 POP POP SWAP3 SWAP2 POP POP JUMP JUMPDEST PUSH0 DUP2 MLOAD SWAP1 POP SWAP2 SWAP1 POP JUMP JUMPDEST PUSH0 DUP3 DUP3 MSTORE PUSH1 0x20 DUP3 ADD SWAP1 POP SWAP3 SWAP2 POP POP JUMP JUMPDEST DUP3 DUP2 DUP4 MCOPY PUSH0 DUP4 DUP4 ADD MSTORE POP POP POP JUMP JUMPDEST PUSH0 PUSH2 0x5BD DUP3 PUSH2 0x58B JUMP JUMPDEST PUSH2 0x5C7 DUP2 DUP6 PUSH2 0x595 JUMP JUMPDEST SWAP4 POP PUSH2 0x5D7 DUP2 DUP6 PUSH1 0x20 DUP7 ADD PUSH2 0x5A5 JUMP JUMPDEST PUSH2 0x5E0 DUP2 PUSH2 0x381 JUMP JUMPDEST DUP5 ADD SWAP2 POP POP SWAP3 SWAP2 POP POP JUMP JUMPDEST PUSH0 PUSH1 0x20 DUP3 ADD SWAP1 POP DUP2 DUP2 SUB PUSH0 DUP4 ADD MSTORE PUSH2 0x603 DUP2 DUP5 PUSH2 0x5B3 JUMP JUMPDEST SWAP1 POP SWAP3 SWAP2 POP POP JUMP JUMPDEST PUSH32 0x496E707574206D757374206265206265747765656E203120616E642033393939 PUSH0 DUP3 ADD MSTORE POP JUMP JUMPDEST PUSH0 PUSH2 0x63F PUSH1 0x20 DUP4 PUSH2 0x595 JUMP JUMPDEST SWAP2 POP PUSH2 0x64A DUP3 PUSH2 0x60B JUMP JUMPDEST PUSH1 0x20 DUP3 ADD SWAP1 POP SWAP2 SWAP1 POP JUMP JUMPDEST PUSH0 PUSH1 0x20 DUP3 ADD SWAP1 POP DUP2 DUP2 SUB PUSH0 DUP4 ADD MSTORE PUSH2 0x66C DUP2 PUSH2 0x633 JUMP JUMPDEST SWAP1 POP SWAP2 SWAP1 POP JUMP JUMPDEST PUSH32 0x4E487B7100000000000000000000000000000000000000000000000000000000 PUSH0 MSTORE PUSH1 0x32 PUSH1 0x4 MSTORE PUSH1 0x24 PUSH0 REVERT JUMPDEST PUSH0 DUP2 SWAP1 POP SWAP3 SWAP2 POP POP JUMP JUMPDEST PUSH0 PUSH2 0x6B4 DUP3 PUSH2 0x58B JUMP JUMPDEST PUSH2 0x6BE DUP2 DUP6 PUSH2 0x6A0 JUMP JUMPDEST SWAP4 POP PUSH2 0x6CE DUP2 DUP6 PUSH1 0x20 DUP7 ADD PUSH2 0x5A5 JUMP JUMPDEST DUP1 DUP5 ADD SWAP2 POP POP SWAP3 SWAP2 POP POP JUMP JUMPDEST PUSH32 0x4E487B7100000000000000000000000000000000000000000000000000000000 PUSH0 MSTORE PUSH1 0x22 PUSH1 0x4 MSTORE PUSH1 0x24 PUSH0 REVERT JUMPDEST PUSH0 PUSH1 0x2 DUP3 DIV SWAP1 POP PUSH1 0x1 DUP3 AND DUP1 PUSH2 0x71E JUMPI PUSH1 0x7F DUP3 AND SWAP2 POP JUMPDEST PUSH1 0x20 DUP3 LT DUP2 SUB PUSH2 0x731 JUMPI PUSH2 0x730 PUSH2 0x6DA JUMP JUMPDEST JUMPDEST POP SWAP2 SWAP1 POP JUMP JUMPDEST PUSH0 DUP2 SWAP1 POP DUP2 PUSH0 MSTORE PUSH1 0x20 PUSH0 KECCAK256 SWAP1 POP SWAP2 SWAP1 POP JUMP JUMPDEST PUSH0 DUP2 SLOAD PUSH2 0x755 DUP2 PUSH2 0x707 JUMP JUMPDEST PUSH2 0x75F DUP2 DUP7 PUSH2 0x6A0 JUMP JUMPDEST SWAP5 POP PUSH1 0x1 DUP3 AND PUSH0 DUP2 EQ PUSH2 0x779 JUMPI PUSH1 0x1 DUP2 EQ PUSH2 0x78E JUMPI PUSH2 0x7C0 JUMP JUMPDEST PUSH1 0xFF NOT DUP4 AND DUP7 MSTORE DUP2 ISZERO ISZERO DUP3 MUL DUP7 ADD SWAP4 POP PUSH2 0x7C0 JUMP JUMPDEST PUSH2 0x797 DUP6 PUSH2 0x737 JUMP JUMPDEST PUSH0 JUMPDEST DUP4 DUP2 LT ISZERO PUSH2 0x7B8 JUMPI DUP2 SLOAD DUP2 DUP10 ADD MSTORE PUSH1 0x1 DUP3 ADD SWAP2 POP PUSH1 0x20 DUP2 ADD SWAP1 POP PUSH2 0x799 JUMP JUMPDEST DUP4 DUP9 ADD SWAP6 POP POP POP JUMPDEST POP POP POP SWAP3 SWAP2 POP POP JUMP JUMPDEST PUSH0 PUSH2 0x7D4 DUP3 DUP6 PUSH2 0x6AA JUMP JUMPDEST SWAP2 POP PUSH2 0x7E0 DUP3 DUP5 PUSH2 0x749 JUMP JUMPDEST SWAP2 POP DUP2 SWAP1 POP SWAP4 SWAP3 POP POP POP JUMP JUMPDEST PUSH32 0x4E487B7100000000000000000000000000000000000000000000000000000000 PUSH0 MSTORE PUSH1 0x11 PUSH1 0x4 MSTORE PUSH1 0x24 PUSH0 REVERT JUMPDEST PUSH0 PUSH2 0x823 DUP3 PUSH2 0x52D JUMP JUMPDEST SWAP2 POP PUSH2 0x82E DUP4 PUSH2 0x52D JUMP JUMPDEST SWAP3 POP DUP3 DUP3 SUB SWAP1 POP DUP2 DUP2 GT ISZERO PUSH2 0x846 JUMPI PUSH2 0x845 PUSH2 0x7EC JUMP JUMPDEST JUMPDEST SWAP3 SWAP2 POP POP JUMP JUMPDEST PUSH0 PUSH2 0x856 DUP3 PUSH2 0x52D JUMP JUMPDEST SWAP2 POP PUSH32 0xFFFFFFFFFFFFFFFFFFFFFFFFFFFFFFFFFFFFFFFFFFFFFFFFFFFFFFFFFFFFFFFF DUP3 SUB PUSH2 0x888 JUMPI PUSH2 0x887 PUSH2 0x7EC JUMP JUMPDEST JUMPDEST PUSH1 0x1 DUP3 ADD SWAP1 POP SWAP2 SWAP1 POP JUMP JUMPDEST PUSH0 PUSH32 0xFF00000000000000000000000000000000000000000000000000000000000000 DUP3 AND SWAP1 POP SWAP2 SWAP1 POP JUMP JUMPDEST PUSH0 DUP2 SWAP1 POP SWAP2 SWAP1 POP JUMP JUMPDEST PUSH2 0x8D8 PUSH2 0x8D3 DUP3 PUSH2 0x893 JUMP JUMPDEST PUSH2 0x8BE JUMP JUMPDEST DUP3 MSTORE POP POP JUMP JUMPDEST PUSH0 PUSH2 0x8E9 DUP3 DUP5 PUSH2 0x8C7 JUMP JUMPDEST PUSH1 0x1 DUP3 ADD SWAP2 POP DUP2 SWAP1 POP SWAP3 SWAP2 POP POP JUMP JUMPDEST PUSH0 PUSH2 0x903 DUP3 DUP5 PUSH2 0x6AA JUMP JUMPDEST SWAP2 POP DUP2 SWAP1 POP SWAP3 SWAP2 POP POP JUMP JUMPDEST PUSH0 PUSH2 0x918 DUP3 PUSH2 0x52D JUMP JUMPDEST SWAP2 POP PUSH2 0x923 DUP4 PUSH2 0x52D JUMP JUMPDEST SWAP3 POP DUP3 DUP3 ADD SWAP1 POP DUP1 DUP3 GT ISZERO PUSH2 0x93B JUMPI PUSH2 0x93A PUSH2 0x7EC JUMP JUMPDEST JUMPDEST SWAP3 SWAP2 POP POP JUMP JUMPDEST PUSH0 PUSH2 0x94B DUP3 PUSH2 0x4FC JUMP JUMPDEST SWAP2 POP PUSH2 0x956 DUP4 PUSH2 0x4FC JUMP JUMPDEST SWAP3 POP DUP3 DUP3 SUB SWAP1 POP DUP2 DUP2 SLT PUSH0 DUP5 SLT AND DUP3 DUP3 SGT PUSH0 DUP6 SLT ISZERO AND OR ISZERO PUSH2 0x97B JUMPI PUSH2 0x97A PUSH2 0x7EC JUMP JUMPDEST JUMPDEST SWAP3 SWAP2 POP POP JUMP JUMPDEST PUSH0 PUSH2 0x98B DUP3 PUSH2 0x4FC JUMP JUMPDEST SWAP2 POP PUSH2 0x996 DUP4 PUSH2 0x4FC JUMP JUMPDEST SWAP3 POP DUP3 DUP3 ADD SWAP1 POP DUP3 DUP2 SLT ISZERO PUSH0 DUP4 SLT AND DUP4 DUP3 SLT PUSH0 DUP5 SLT ISZERO AND OR ISZERO PUSH2 0x9BC JUMPI PUSH2 0x9BB PUSH2 0x7EC JUMP JUMPDEST JUMPDEST SWAP3 SWAP2 POP POP JUMP INVALID LOG2 PUSH5 0x6970667358 0x22 SLT KECCAK256 0xD4 JUMPI SAR KECCAK256 EXP PUSH9 0xA330B3C9ECAABB89C9 0xB6 0xE9 PUSH5 0xF9EE438453 SWAP13 0xD3 0xAD SSTORE 0xCE RETURNDATASIZE 0xF9 0xC6 0xBC PUSH5 0x736F6C6343 STOP ADDMOD BYTE STOP CALLER "
				},
				"gasEstimates": {
					"creation": {
						"codeDepositCost": "510400",
						"executionCost": "infinite",
						"totalCost": "infinite"
					},
					"external": {
						"romanToInt(string)": "infinite",
						"romanValues(string)": "infinite",
						"unitToRoman(uint256)": "infinite"
					}
				},
				"methodIdentifiers": {
					"romanToInt(string)": "cb159dfe",
					"romanValues(string)": "1dd92aa0",
					"unitToRoman(uint256)": "5e30ea3c"
				}
			},
			"storageLayout": {
				"storage": [
					{
						"astId": 19,
						"contract": "task1/RomanConverter.sol:RomanConverter",
						"label": "nums",
						"offset": 0,
						"slot": "0",
						"type": "t_array(t_uint256)dyn_storage"
					},
					{
						"astId": 37,
						"contract": "task1/RomanConverter.sol:RomanConverter",
						"label": "romanSymbols",
						"offset": 0,
						"slot": "1",
						"type": "t_array(t_string_storage)dyn_storage"
					},
					{
						"astId": 41,
						"contract": "task1/RomanConverter.sol:RomanConverter",
						"label": "romanValues",
						"offset": 0,
						"slot": "2",
						"type": "t_mapping(t_string_memory_ptr,t_int256)"
					}
				],
				"types": {
					"t_array(t_string_storage)dyn_storage": {
						"base": "t_string_storage",
						"encoding": "dynamic_array",
						"label": "string[]",
						"numberOfBytes": "32"
					},
					"t_array(t_uint256)dyn_storage": {
						"base": "t_uint256",
						"encoding": "dynamic_array",
						"label": "uint256[]",
						"numberOfBytes": "32"
					},
					"t_int256": {
						"encoding": "inplace",
						"label": "int256",
						"numberOfBytes": "32"
					},
					"t_mapping(t_string_memory_ptr,t_int256)": {
						"encoding": "mapping",
						"key": "t_string_memory_ptr",
						"label": "mapping(string => int256)",
						"numberOfBytes": "32",
						"value": "t_int256"
					},
					"t_string_memory_ptr": {
						"encoding": "bytes",
						"label": "string",
						"numberOfBytes": "32"
					},
					"t_string_storage": {
						"encoding": "bytes",
						"label": "string",
						"numberOfBytes": "32"
					},
					"t_uint256": {
						"encoding": "inplace",
						"label": "uint256",
						"numberOfBytes": "32"
					}
				}
			},
			"userdoc": {
				"kind": "user",
				"methods": {},
				"version": 1
			}
		}
	}
}